:020000040800F2
:10000000C81A0020A9010008893D00084B360008E5
:10001000853D0008E7050008E95B000800000000D6
:10002000000000000000000000000000374B000846
:10003000590700080000000047420008394B00083B
:10004000C3010008C3010008C3010008C301000880
:10005000C3010008C3010008C3010008C301000870
:10006000C3010008C3010008C3010008C301000860
:10007000C3010008C3010008C3010008C301000850
:10008000C3010008C3010008C3010008C301000840
:10009000D95B0008C3010008C3010008C3010008C0
:1000A000C3010008C3010008C3010008C301000820
:1000B000C3010008C3010008C3010008C301000810
:1000C000C3010008C3010008C3010008C301000800
:1000D000C3010008C3010008C3010008C3010008F0
:1000E000C3010008C3010008C3010008C3010008E0
:1000F000C3010008C3010008C3010008C3010008D0
:10010000C30100080000000000000000C301000857
:10011000C3010008C3010008C3010008C3010008AF
:10012000C3010008C3010008C3010008C30100089F
:10013000C3010008C3010008000000000000000027
:10014000C3010008C3010008C3010008000000004B
:10015000000000000000000000000000000000009F
:10016000C3010008C3010008C3010008C30100085F
:10017000C3010008C3010008C3010008C30100084F
:10018000C3010008C30100080000000000000000D7
:10019000C3010008DFF80CD000F026F90048004742
:1001A000F5670008C81A002006488047064800473F
:1001B000FEE7FEE7FEE7FEE7FEE7FEE7FEE7FEE717
:1001C000FEE7FEE7E14B0008950100082DE9F05F2E
:1001D0000546002092469B468846064681464024B6
:1001E0001BE0284641464746224600F020F8534689
:1001F0005A46C01A914110D311461846224600F0C3
:100200006DF82D1A67EB01084F46224601200021A8
:1002100000F064F817EB00094E41201EA4F1010420
:10022000DFDC484631462A464346BDE8F09F202A97
:1002300004DB203A21FA02F00021704721FA02F390
:10024000D040C2F12002914008431946704740EA6D
:1002500001039B0703D009E008C9121F08C0042A44
:10026000FAD203E011F8013B00F8013B521EF9D22B
:100270007047D2B201E000F8012B491EFBD2704753
:100280000022F6E710B513460A4604461946FFF762
:10029000F0FF204610BD421C10F8011B0029FBD1C5
:1002A000801A704730B504460020034600E05B1C0E
:1002B000934203D2E05CCD5C401BF8D030BD00F02F
:1002C00054B870B5064605F0A5FC046805460A2238
:1002D0000021304600F011F82C6070BD202A04DBAC
:1002E000203A00FA02F1002070479140C2F1200349
:1002F00020FA03F31943904070472DE9F0479146E7
:100300000F4680460446002614F8015B2DB100F02C
:100310007DF80068405DC007F6D12B2D02D02D2D51
:1003200018D0641E4A463946204600F073F827B1BB
:100330003968A14201D1C7F8008071054FF002046D
:100340000BD54042002803DD05F064FC0460A007E3
:10035000BDE8F08746F48066E4E70028F8DA05F0A7
:1003600059FC04606FF00040F2E72DE9F05F93461E
:100370000F4680460446002605F04CFCD0F800905D
:10038000824614F8015B2DB100F040F80068405D32
:10039000C007F6D12B2D02D02D2D1FD0641E0021B9
:1003A000CAF800105A463946204600F082F8024644
:1003B00027B13868A04201D1C7F80080DAF8000000
:1003C00002280ED0CAF8009070050AD50020034616
:1003D000D2EB000063EB0101BDE8F09F46F48066BC
:1003E000DDE71046F8E70000064C074D06E0E06840
:1003F00040F0010394E8070098471034AC42F6D36C
:10040000FFF7CCFE046B0008246B0008004870471F
:10041000006B00082DE9F05F824600780027154642
:100420008B460AF10104B946302801D09DB113E092
:1004300014F8010B0127782803D0582801D045B1C2
:100440000AE00DB1102D07D10027102514F8010B7B
:1004500002E0082500E00A250026B0460EE005FB74
:10046000080005FB06F1012701EB10461FFA80F892
:10047000B6F5803F00D3B94614F8010B294600F0C9
:1004800079F80028EBDABBF1000F05D00FB1641E3C
:1004900000E05446CBF80040B9F1000F06D005F05B
:1004A000B9FB02210160C81EBDE8F09F48EA064082
:1004B000FAE72DE9F74F4FF00009009C1546CA46B0
:1004C00014F8010B302801D0ADB115E014F8010B80
:1004D0004FF00109782803D0582801D04DB10BE026
:1004E0000DB1102D08D14FF00009102514F8010BA3
:1004F00002E0082500E00A2500273E46B8464FEAFC
:10050000E57B16E0A5FB07230BFB073105FB080085
:1005100005FB0616030CD71846F100061FFA80F8F3
:10052000381E4FF0010976F5803000D3CA4614F822
:10053000010B294600F01EF80028E3DA019838B1D3
:10054000B9F1000F01D0641E00E0009C0198046026
:10055000BAF1000F08D005F05DFB02210160C81E52
:10056000014603B0BDE8F08F310441EA174148EA83
:100570000740F6E73A2800D2303820F02002412A1E
:1005800001D3A2F13700884201D34FF0FF3070470A
:1005900070B58C1810F8015B15F0070301D110F845
:1005A000013B2A1106D110F8012B03E010F8016B72
:1005B00001F8016B5B1EF9D12B0705D40023521EF5
:1005C0000DD401F8013BFAE710F8013BCB1A921C5D
:1005D00003E013F8015B01F8015B521EF9D5A1425B
:1005E000D8D3002070BD00BFFEE7000010B5034661
:1005F000042B15D007DC7BB1012B0ED0022B0DD0C4
:10060000032B3CD10BE0202B0BD0212B1CD0222B19
:1006100033D0232B33D131E032E031E030E02FE032
:100620002EE008784C7840EA04208C7840EA0440B8
:10063000CC7840EA0460144C206008792071487935
:1006400060718879A0711BE00F48007808700E482F
:100650000088000A48700C480068000C88700A483E
:100660000068000EC8700848007908710648407993
:10067000487105488079887102E001E000E000BF20
:1006800000BF002010BD000068000020002070475F
:1006900010B500220449054804F0DEFB0449034874
:1006A00004F0D3FB002010BD700B0020CC0800200C
:1006B000F00A002070B504460E4600251CE0605D7F
:1006C0000D2802D0605D0A2806D112480078002863
:1006D00011DD06F08DF90EE00E4800780E2800DBE3
:1006E0000DE0605D0C490B4A127888540948007887
:1006F000401C084908706D1C3068A842DFD800BF54
:100700002146064804F0A1FB044804F07AFB0020CF
:1007100070BD000070000020F00B0020CC0800200D
:100720002DE9F04104460D4600260A48D0F818721B
:10073000D7F8140210B10120BDE8F0812A46214605
:10074000044804F089FB034804F0D8FB0646304611
:10075000F2E70000CC08002070470000012291035E
:10076000024800F00DF900BFFEE70000001000484D
:1007700031B500F00BF9044600BF00F007F9001B8B
:1007800000998842F9D338BD78B503460022002489
:100790000020D5E0012696400D6805EA0604002CED
:1007A00072D04D68022D02D04D68122D13D1D6089B
:1007B00003F1200555F826005507EE0E0F25B5402C
:1007C000A8435607F60E0D69B5402843D60803F135
:1007D000200545F82600186856000325B540A843B3
:1007E0000D7905F003055600B540284318604D68A3
:1007F000012D08D04D68022D05D04D68112D02D075
:100800004D68122D13D1986856000325B540A843B2
:100810005600CD68B540284398605868012595403A
:10082000A8430D79C5F30015954028435860D86852
:1008300056000325B540A84356008D68B5402843AF
:10084000D8604D6805F08055B5F1805F77D100BF65
:100850003E4DAD6945F001053C4EB5613546AD698B
:1008600005F00105009500BF00BF4FEAB6359608B8
:1008700055F8260095072E0F0F25B540A843B3F174
:10088000904F02D100251FE059E0314DAB4201D11C
:10089000012519E02F4DAB4201D1022514E02E4D68
:1008A000AB4201D103250FE02C4DAB4201D1042511
:1008B0000AE02B4DAB4201D1052505E0294DAB42A5
:1008C00001D1062500E007259607360FB5402843DD
:1008D000254D960845F82600244D2868A0434D680C
:1008E00005F48035B5F5803F00D120431F4D2860C9
:1008F0002D1D2868A0434D6805F40035B5F5003F6F
:1009000000D12043194D2D1D28602D1D2868A043BE
:100910004D6805F48015B5F5801F00D12043134DB7
:10092000083528602D1D2868A0434D6805F4001582
:10093000B5F5001F00D120430C4D0C352860521C2A
:100940000D68D540002D7FF425AF78BD0010024022
:100950000004004800080048000C0048001000484F
:10096000001400480018004808000140000401403D
:10097000024613690B400BB1012000E000207047D4
:100980000AB1816100E0816270470000014800689F
:100990007047000000000020024692F84100202825
:1009A0002DD100BF92F84000012801D102207047EC
:1009B000012082F8400000BF242082F84100106826
:1009C000006820F00100136818601068006820F4C7
:1009D0008050136818601068006808431368186036
:1009E0001068006840F0010013681860202082F849
:1009F000410000BF002082F8400000BFD7E702207E
:100A0000D5E7000010B504460CB9012010BD94F8DC
:100A1000410028B9002084F84000204600F0C8F9C1
:100A2000242084F841002068006820F0010021683B
:100A30000860606820F07060216808612068806844
:100A400020F4004021688860A06868B1E06801284F
:100A500005D1A06840F400402168886004E0A068E7
:100A600040F4044021688860E068022802D18002D6
:100A70002168486020684068104908432168486040
:100A8000D4E904010843A16940EA01202168C86053
:100A9000D4E907010843216808602068006840F035
:100AA00001002168086000206064202084F8410073
:100AB0000020206384F8420000BFA7E70080000206
:100AC0002DE9F8430446894616461F46DDF8208086
:100AD000002594F8410020287AD100BF94F8400006
:100AE000012802D10220BDE8F883012084F84000EB
:100AF00000BFFFF74BFF054619230122D103204613
:100B0000009502F017FE08B10320ECE7222084F8DC
:100B10004100102084F8420000206064666267850E
:100B20006063608DFF280DD9FF2020854FF41050A1
:100B3000009094F828204FF080734946204602F038
:100B4000E1FD0CE0608D20854FF41050009094F88A
:100B500028204FF000734946204602F0D3FD44E0C0
:100B60002A464146204602F011FE30B1606C04284E
:100B700001D10120B7E70320B5E72068406AC1B280
:100B8000626A501C60621170208D401E2085608D4D
:100B9000401E6085208D40BB608D30B343460022EF
:100BA00080212046009502F0C5FD08B103209AE798
:100BB000608DFF280DD9FF2020850020009094F83B
:100BC00028204FF080734946204602F09BFD0CE040
:100BD0002FE0608D20850020009094F828204FF0B1
:100BE00000734946204602F08DFD608D0028B7D184
:100BF0002A464146204602F011FE30B1606C0428BE
:100C000001D101206FE703206DE720202168C86132
:100C1000206840680849084021684860202084F81E
:100C20004100002084F8420000BF84F8400000BF6B
:100C300059E7022057E7000000E800FE2DE9F843DD
:100C40000446894616461F46DDF82080002594F8A4
:100C50004100202877D100BF94F84000012802D13C
:100C60000220BDE8F883012084F8400000BFFFF7B0
:100C70008DFE054619230122D1032046009502F07E
:100C800059FD08B10320ECE7212084F84100102031
:100C900084F8420000206064666267856063608D4E
:100CA000FF280CD9FF2020854FF40050009094F8C5
:100CB0002820C3024946204602F024FD0BE0608D47
:100CC00020854FF40050009094F8282003034946F3
:100CD000204602F017FD43E02A464146204602F036
:100CE000C8FD30B1606C042801D10120B9E70320B0
:100CF000B7E7616A481C6062087821688862608D85
:100D0000401E6085208D401E2085208D40BB608D5B
:100D100030B34346002280212046009502F00AFDB0
:100D200008B103209DE7608DFF280DD9FF202085A5
:100D30000020009094F828204FF080734946204608
:100D400002F0E0FC0CE02FE0608D20850020009098
:100D500094F828204FF000734946204602F0D2FC58
:100D6000608D0028B8D12A464146204602F056FD43
:100D700030B1606C042801D1012072E7032070E7D4
:100D800020202168C861206840680849084021681F
:100D90004860202084F84100002084F8420000BF11
:100DA00084F8400000BF5CE702205AE700E800FE3C
:100DB00010B586B004461149206888421BD1C02076
:100DC000019012200290012003900320049004203F
:100DD000059001A90A48FFF7D7FC00BF0948C06980
:100DE00040F400100749C8610846C06900F40010CB
:100DF000009000BF00BF06B010BD000000540040CE
:100E0000000400480010024002480068401C0149EC
:100E1000086070470000002010B50848006840F0E6
:100E2000100006490860032000F0A6F8002000F03A
:100E300007F800F019F8002010BD00000020024063
:100E400070B50446074800684FF47A71B0FBF1F5BD
:100E5000284602F0DCFB00222146501E00F04DF82F
:100E6000002070BD0400002008B500BF1B48806949
:100E700040F00100194988610846806900F00100CE
:100E8000009000BF00BF032000F076F8002211465A
:100E90006FF00B0000F031F8002211466FF00A00ED
:100EA00000F02BF8002211466FF0090000F025F841
:100EB00000221146501F00F020F800221146101F9A
:100EC00000F01BF800221146901E00F016F80022D8
:100ED0001146501E00F011F808BD0000001002403D
:100EE00000BF00F01F02012191404209920002F16F
:100EF000E022C2F8001100BF70472DE9F05F804684
:100F00000D461646002702F041FF074639462A469D
:100F1000334601F00700C0F1070ABAF1040F02D905
:100F20004FF0040A01E0C0F1070AD14600F1040ABB
:100F3000BAF1070F02D24FF0000A01E0A0F1030A54
:100F4000D4464FF0010A0AFA09FAAAF1010A0AEA9C
:100F5000020A0AFA0CFA4FF0010B0BFA0CFBABF188
:100F6000010B0BEA030B4AEA0B042146404602F050
:100F700015FFBDE8F09F000000BF00F00702064B20
:100F800019684FF6FF031940044B0B4343EA022153
:100F9000014B196000BF70470CED00E00000FA053E
:100FA00070B505460C4604F08000802808D104F096
:100FB0007F00C0EBC00605F1280000EB860105E0CC
:100FC000C4EBC40605F5E67000EB86011AB90020F3
:100FD00088728B8004E001208872CB80180C088115
:100FE000002070BD704770B504460D46C5EBC503C3
:100FF00004F1280101EB83010A692946D4F8A4030E
:1010000004F00EFA70BD70B504460D46C5EBC5037D
:1010100004F5E67101EB83010A692946D4F8A403BB
:1010200004F06BFA70BD70B502460B4603F0800009
:10103000802808D103F07F00C0EBC00402F1280033
:1010400000EB840107E003F07F00C0EBC00402F571
:10105000E67000EB840103F07F00087003F080006D
:10106000C009487000BF92F87003012801D1022026
:1010700070BD012082F8700300BF887A002857D124
:10108000487850B30C786400106830F8140000F011
:10109000400078B10C786400106830F8140048F60D
:1010A0008F74204048F2C00420430D786D0014680E
:1010B00024F815000D786D00146834F8154048F6D2
:1010C000BF7504EA050040F4004444F080040E7843
:1010D0007600156825F81640F7E00C786400106873
:1010E00030F8140000F4804078B10C786400106887
:1010F00030F8140048F68F7420404CF280042043EE
:101100000D786D00146824F815000D786D001468D2
:1011100034F815404BF68F7504EA050040F400449E
:1011200044F080040E787600156825F81640CCE06F
:101130004878002864D10C786400106830F81400F6
:1011400000F4804078B10C786400106830F8140026
:1011500048F68F7420404CF2800420430D786D00D7
:10116000146824F815000C786400106830F8140036
:1011700000F0400078B10C786400106830F814007A
:1011800048F68F74204048F2C00420430D786D006B
:10119000146824F815000C786400106830F8140006
:1011A00048F68F74204048F2C00420430D786D004B
:1011B000146824F815000D786D00146834F8154093
:1011C0004BF68F7504EA050040F4004444F08004B7
:1011D0000E787600156825F816400D786D001468B5
:1011E00034F8154048F6BF7504EA050040F40044A1
:1011F00044F080040E787600156825F8164064E007
:101200000C786400106830F8140000F4804078B165
:101210000C786400106830F8140048F68F74204091
:101220004CF2800420430D786D00146824F81500FA
:101230000C786400106830F8140000F0400078B1B9
:101240000C786400106830F8140048F68F74204061
:1012500048F2C00420430D786D00146824F815008E
:101260000C786400106830F8140048F68F74204041
:101270004CF2800420430D786D00146824F81500AA
:101280000D786D00146834F8154048F6BF7504EA0F
:10129000050040F4004444F080040E7876001568A0
:1012A00025F816400D786D00146834F815404BF69B
:1012B0008F7504EA050040F4004444F080040E7881
:1012C0007600156825F8164000BF00BF002082F8A0
:1012D000700300BF00BFCBE670B502460B4603F0BB
:1012E0008000802808D103F07F00C0EBC00402F129
:1012F000280000EB840105E0C3EBC30402F5E670AF
:1013000000EB84010020887003F07F000870C3F3B5
:10131000C010487000BF92F87003012801D102206C
:1013200070BD012082F8700300BF487870B30C785C
:101330006400106830F8140000F0400078B10C78B8
:101340006400106830F8140048F68F74204048F2AA
:10135000C00420430D786D00146824F815000D7842
:101360006D00146834F8154048F6BF7504EA0500AE
:1013700080F0100080F0200040F4004444F080042D
:101380000E787600156825F816402EE00C7864007B
:10139000106830F8140000F4804078B10C786400D4
:1013A000106830F8140048F68F7420404CF2800426
:1013B00020430D786D00146824F815000D786D0039
:1013C000146834F815404BF68F7504EA050080F474
:1013D000805080F4005040F4004444F080040E78C3
:1013E0007600156825F8164000BF00BF002082F87F
:1013F000700300BF00BF93E7024601F07F00C0EB1F
:10140000C00302F5E67000EB8300008B80B27047EA
:101410002DE9F04104460D46002705F080008028A4
:1014200008D105F07F00C0EBC00604F1280000EBF6
:10143000860107E005F07F00C0EBC00604F5E6700A
:1014400000EB860105F07F00087005F08000C00900
:101450004870CA60CB7000BF94F87003012802D1B5
:101460000220BDE8F081012084F8700300BFC87835
:1014700030B1012838D0022814D0032846D121E009
:101480000E787600206830F8160048F68F16304047
:1014900040F4007691F800C04FEA4C0C206820F828
:1014A0001C6033E00E787600206830F8160048F6AD
:1014B0008F16304091F800C04FEA4C0C266826F891
:1014C0001C0023E00E787600206830F8160048F6FD
:1014D0008F16304040F4C06691F800C04FEA4C0CC3
:1014E000206820F81C6011E00E787600206830F843
:1014F000160048F68F16304040F4806691F800C020
:101500004FEA4C0C206820F81C6000BF00BF0E782A
:101510007600206830F8160048F68F76304048F2A2
:10152000800630430E78304391F800C04FEA4C0CEF
:10153000266826F81C00887A00287DD14878E8B310
:101540008888401046002068B0F850C008780CEB3E
:10155000C00C206800F580602CF800600E787600E2
:10156000206830F8160000F0400088B10E78760050
:10157000206830F8160048F68F76304048F2C006F2
:10158000304391F800C04FEA4C0C266826F81C0046
:1015900091F800C04FEA4C0C266836F81C6048F6FB
:1015A000BF7C06EA0C0080F0200040F4004646F0C4
:1015B000800691F800804FEA480800E004E0D4F883
:1015C00000C02CF81860A7E1888840104FEA400C52
:1015D0002068B0F85060087806EBC000001D26684F
:1015E00006F5806620F806C02068B0F850C008787C
:1015F0000CEBC000801DD4F800C00CF5806C00EB33
:101600000C06D1F80CC0BCF13E0F16D9D1F80CC0B5
:10161000CCF34F1091F80CC00CF01F0CBCF1000F74
:1016200003D1A0F1010C1FFA8CF04FF4004C4CEAEE
:10163000802CA6F800C015E04AE0D1F80CC0CCF32D
:101640004F0091F80CC00CF0010CBCF1000F03D05E
:1016500000F1010C1FFA8CF04FF6FF7C0CEA802C95
:10166000A6F800C00E787600206830F8160000F466
:10167000804088B10E787600206830F8160048F671
:101680008F7630404CF28006304391F800C04FEA2C
:101690004C0C266826F81C0091F800C04FEA4C0C50
:1016A000266836F81C604BF68F7C06EA0C0080F446
:1016B000805080F4005040F4004646F0800691F8D7
:1016C00000804FEA4808D4F800C02CF8186023E1E5
:1016D0000E787600206830F8160040F4807048F6E6
:1016E0008F76304048F28006304391F800C04FEAD0
:1016F0004C0C266826F81C00C8884010460020685C
:10170000B0F850C008780CEBC00C206800F5806081
:101710002CF80060088940104FEA400C2068B0F8AF
:101720005060087806EBC000001D266806F580664C
:1017300020F806C04878002879D10E787600206815
:1017400030F8160000F4804088B10E7876002068EA
:1017500030F8160048F68F7630404CF28006304361
:1017600091F800C04FEA4C0C266826F81C000E7851
:101770007600206830F8160000F0400088B10E783E
:101780007600206830F8160048F68F76304048F230
:10179000C006304391F800C04FEA4C0C266826F88A
:1017A0001C000E787600206830F8160048F68F7618
:1017B000304048F2C006304391F800C04FEA4C0C6C
:1017C000266826F81C0091F800C04FEA4C0C2668E9
:1017D00036F81C604BF68F7C06EA0C0080F48050D3
:1017E00080F4005040F4004646F0800691F80080F6
:1017F0004FEA4808D4F800C02CF8186091F800C0EF
:101800004FEA4C0C266836F81C6048F6BF7C06EAA6
:101810000C0040F4004646F0800691F800804FEA44
:101820004808D4F800C02CF8186075E0FFE70E787F
:101830007600206830F8160000F4804088B10E78F9
:101840007600206830F8160048F68F7630404CF26B
:101850008006304391F800C04FEA4C0C266826F809
:101860001C000E787600206830F8160000F040006A
:1018700088B10E787600206830F8160048F68F762A
:10188000304048F2C006304391F800C04FEA4C0C9B
:10189000266826F81C000E787600206830F81600BE
:1018A00048F68F7630404CF28006304391F800C005
:1018B0004FEA4C0C266826F81C0091F800C04FEA4D
:1018C0004C0C266836F81C6048F6BF7C06EA0C0013
:1018D00040F4004646F0800691F800804FEA480840
:1018E000D4F800C02CF8186091F800C04FEA4C0CF6
:1018F000266836F81C604BF68F7C06EA0C0040F434
:10190000004646F0800691F800804FEA4808D4F877
:1019100000C02CF8186000BF00BF002084F87003DE
:1019200000BF38469DE5F0B504460D4605F07F0042
:10193000C0EBC00604F5E67000EB86010A614B615E
:1019400000208861487005F07F00087000BF94F89F
:101950007003012801D10220F0BD012084F870033A
:1019600000BFCE684869B04204D9CB684869C01A44
:10197000486102E04B6900204861887A30BB2068EA
:10198000B0F85070087807EBC000801D276807F595
:101990008067C6193E2B0CD9C3F34F1003F01F0705
:1019A0000FB9471EB8B24FF4004747EA8027378087
:1019B0000BE0C3F34F0003F001070FB1471CB8B2AF
:1019C0004FF6FF7707EA8027378036E0487830BB4C
:1019D0002068B0F85070087807EBC000801D2768B9
:1019E00007F58067C6193E2B0CD9C3F34F1003F0DF
:1019F0001F070FB9471EB8B24FF4004747EA8027C8
:101A000037800BE0C3F34F0003F001070FB1471C11
:101A1000B8B24FF6FF7707EA802737800DE04878A5
:101A200001280AD12068B0F85060087806EBC0069B
:101A3000B61D206800F5806033520F787F0026685D
:101A400036F817604BF68F7706EA070080F480506F
:101A500080F4005040F4004646F0800691F800C043
:101A60004FEA4C0C276827F81C6000BF002084F860
:101A7000700300BF00BF6FE770B502460B4600BFA2
:101A800092F87003012801D1022070BD012082F874
:101A9000700300BF03F08000802808D103F07F00AE
:101AA000C0EBC00402F1280000EB840105E0C3EBA9
:101AB000C30402F5E67000EB84010120887003F096
:101AC0007F000870C3F3C01048700878B0B90D7873
:101AD0006D00146834F815404BF6BF7504EA050034
:101AE00080F4805080F0100040F4004444F0800402
:101AF0000E787600156825F816402BE04878A0B1DE
:101B00000D786D00146834F8154048F6BF7504EA86
:101B1000050080F0100040F4004444F080040E788A
:101B20007600156825F8164014E00D786D001468ED
:101B300034F815404BF68F7504EA050080F48050A8
:101B400040F4004444F080040E787600156825F8CF
:101B5000164000BF00BF002082F8700300BF00BF26
:101B600093E72DE9F04705460F4690461E464FF095
:101B7000000907F07F00C0EBC00105F1280000EB71
:101B80008104C4F8108066610020A06101206070AB
:101B900007F07F00207000BF95F87003012802D184
:101BA0000220BDE8F087012085F8700300BFE168DE
:101BB0006069884204D9E6686069801B606102E060
:101BC000666900206061A07A88B9B3B2A2882169F1
:101BD000286802F01EFB2868B0F85010207801EB4E
:101BE000C000801C296801F58061465238E02178E8
:101BF0004900286830F8110000F0400010B1B4F836
:101C0000089001E0B4F80690B3B221694A4628680A
:101C100002F0FFFA607880B921784900286830F82E
:101C2000110048F68F71084048F2C001084322783D
:101C30005200296821F8120012E0607801280FD1C3
:101C400021784900286830F8110048F68F71084063
:101C50004CF28001084322785200296821F81200D2
:101C600022785200296831F8121048F6BF7201EA52
:101C7000020080F0100080F0200040F4004141F0AC
:101C8000800223785B00296821F8132000BF002020
:101C900085F8700300BF00BF83E770B504460025D8
:101CA0002068B0F8440000F40040B0F5004F02D1C5
:101CB000204602F087F82068B0F8440000F4806005
:101CC000B0F5806F0ED12068B0F8440020F4806039
:101CD0002168A1F84400204600F03EF9002120468A
:101CE00000F05DF92068B0F8440000F48040B0F5E1
:101CF000804F07D12068B0F8440020F4804021686C
:101D0000A1F844002068B0F8440000F40050B0F599
:101D1000005F07D12068B0F8440020F4005021682B
:101D2000A1F844002068B0F8440000F48050B0F5F9
:101D3000805F17D12068B0F8400020F004002168CF
:101D4000A1F840004FF43D452068A0F840502046DF
:101D500000F017F92068B0F8440020F480502168A2
:101D6000A1F844002068B0F8440000F40060B0F529
:101D7000006F20D12068B0F8440020F40060216892
:101D8000A1F844002068B0F8400040F00800216845
:101D9000A1F840002068B0F8400040F0040021683D
:101DA000A1F840002068B0F84400C0F3003010B93A
:101DB000204600F021F92068B0F8440000F40070DB
:101DC000B0F5007F0AD12068B0F8440020F400701C
:101DD0002168A1F84400204600F0DAF82068B0F845
:101DE000440000F48070B0F5807F07D12068B0F81F
:101DF000440020F480702168A1F8440070BD70B5E3
:101E00000446002500260CB9012070BD94F871032A
:101E100028B9002084F87003204600F07BF80320E6
:101E200084F87103002529E00121C5EBC50204F106
:101E3000280000EB82004170C5EBC50204F12800C8
:101E400000F822500021C5EBC50200EB8200C170F2
:101E5000C5EBC50204F1280000EB8200C160C5EBB0
:101E6000C50204F1280000EB82000161C5EBC50248
:101E700004F1280000EB820041616D1C6068A842FB
:101E8000D2D8002528E00021C5EBC50204F5E67094
:101E900000EB82004170C5EBC50204F5E67000F866
:101EA0002250C5EBC50200EB8200C170C5EBC50234
:101EB00004F5E67000EB8200C160C5EBC50204F5D5
:101EC000E67000EB82000161C5EBC50204F5E67027
:101ED00000EB820041616D1C6068A842D3D80120EC
:101EE0002168A1F8400000202168A1F84000216885
:101EF000A1F844002168A1F850004FF43D46206845
:101F0000A0F84060002084F82400012084F87103C8
:101F100000207AE738B504460D492068884215D17B
:101F200000BF0C48C06940F400000A49C861084677
:101F3000C06900F40000009000BF00BF00221146FD
:101F40001420FEF7DAFF1420FEF7CAFF38BD0000A8
:101F5000005C00400010024070B504460125A068F6
:101F6000022801D100BF01E0012500BF00BF2946C2
:101F7000D4F8A40303F0CAFBD4F8A40303F08CFB49
:101F800070BD10B50446D4F8A40303F0A7FB10BD40
:101F900010B50446D4F8A40303F0A7FB10BD024615
:101FA00000BF92F87003012801D102207047012080
:101FB00082F8700300BF21B980201368A3F84C0099
:101FC00001E082F8241000BF002082F8700300BFF7
:101FD00000BFEBE710B5044604F55D71D4F8A40327
:101FE00003F0A2FB10BD10B5044601212046FEF708
:101FF000F9FF002010BD000010B50446D4F8A4037A
:1020000003F0DBFBA06928B10348006840F006003C
:102010000149086010BD000010ED00E0F8B504466D
:1020200000260025206800F48030B0F5803F75D18F
:102030000027E248C06900F0805070B900BFDF4857
:10204000C06940F08050DD49C8610846C06900F0B1
:102050008050009000BF00BF0127D948006800F4FD
:102060008070B0B9D648006840F48070D4490860E8
:10207000FEF78CFC064606E0FEF788FC801B642811
:1020800001D90320F8BDCE48006800F48070002814
:10209000F2D0CA48006A00F44075002D6CD0A088C8
:1020A00000F44070A84267D0C448006A20F440752C
:1020B0000120010491FAA1F1B1FA81F1C14A02EBC8
:1020C0008101C1F8000400204FF4803191FAA1F1A0
:1020D000B1FA81F102EB8101C1F80004B748056251
:1020E00005F00100B8B3FEF751FC064608E0FEF724
:1020F0004DFC801B41F28831884201D90320C1E7A1
:102100004020022191FAA1F1B1FA81F108430121A5
:10211000B1EB601F03D1A94800681FE03CE04020FC
:10212000022191FAA1F1B1FA81F108430221B1EB48
:10213000601F02D1A148006A10E04020022191FAFC
:10214000A1F1B1FA81F108430421B1EB601F03D181
:102150009A48406802E00FE09848406A4021022215
:1021600092FAA2F2B2FA82F2114301F01F020121A7
:10217000914008400028BAD09048006A20F440708E
:10218000616808438D490862012F04D10846C0697F
:1021900020F08050C86100BF207800F0010038B105
:1021A0008648006B20F00300A16808438349086358
:1021B000207800F00200022807D18048006B20F44C
:1021C0004030E16808437D490863207800F004004E
:1021D000042807D17948006B20F440202169084386
:1021E00076490863207800F02000202807D1734842
:1021F000006B20F01000E169084370490863206813
:1022000000F40030B0F5003F07D16C48406820F47E
:102210008000616D084369494860207800F0400003
:10222000402807D16548006B20F02000216A084350
:1022300062490863206800F48020B0F5802F07D140
:102240005E48006B20F04000616A08435B49086308
:10225000207800F00800082807D15848006B20F4C7
:1022600040106169084355490863207800F0100068
:10227000102807D15148006B20F44000A1690843A1
:102280004E490863208800F40070B0F5007F07D144
:102290004A48406820F40000216B084347494860E1
:1022A000207800F08000802807D14448C06A20F4DC
:1022B000F870A16A08434149C862208800F4807020
:1022C000B0F5807F07D13D48C06A20F47850E16ABC
:1022D00008433A49C862208800F48050B0F5805F16
:1022E00007D13648006B20F48070616B0843334996
:1022F0000863208800F40050B0F5005F07D12F4834
:10230000006B20F40070216C08432C49086320689E
:1023100000F48010B0F5801F07D12848006B20F032
:102320008070A16B084325490863206800F4001001
:10233000B0F5001F07D12148006B20F00070E16B61
:1023400008431E490863206800F48000B0F5800F40
:1023500007D11A48006B20F48060616C084317496C
:102360000863206800F40000B0F5000F07D113489F
:10237000006B20F40060A16C0843104908632068DA
:1023800000F08070B0F1807F07D10C48006B20F422
:102390000050E16C084309490863206800F00070B0
:1023A000B0F1007F07D10548006B20F40040216D9B
:1023B000084302490863002064E600000010024060
:1023C000007000400000424270B504460D460026F1
:1023D000B448006800F00700A8420ED2B148006877
:1023E00020F007002843AF4908600846006800F065
:1023F0000700A84201D0012070BD207800F0020043
:10240000022807D1A848406820F0F000A1680843DE
:10241000A5494860207800F0010000287CD0606861
:1024200001283BD12020010391FAA1F1B1FA81F1F9
:1024300008430121B1EB601F02D19B4800681DE0F9
:102440002020010391FAA1F1B1FA81F108430221A0
:10245000B1EB601F02D19448006A0FE02020010315
:1024600091FAA1F1B1FA81F108430421B1EB601FA7
:1024700002D18D48406801E08B48406A20210A0360
:1024800092FAA2F2B2FA82F2114301F01F02012184
:102490009140084000287CD10120ADE76068022807
:1024A0003BD12020010591FAA1F1B1FA81F1084355
:1024B0000121B1EB601F02D17B4800681DE02020A4
:1024C000010591FAA1F1B1FA81F108430221B1EBC2
:1024D000601F02D17448006A0FE02020010591FAC4
:1024E000A1F1B1FA81F108430421B1EB601F02D1DF
:1024F0006D48406801E06C48406A20210A0592FA64
:10250000A2F2B2FA82F2114301F01F0201219140BE
:102510000840E8BB01206FE77EE02020022191FA0D
:10252000A1F1B1FA81F108430121B1EB601F02D1A1
:102530005D4800681DE02020022191FAA1F1B1FA66
:1025400081F108430221B1EB601F02D15648006AB5
:102550000FE02020022191FAA1F1B1FA81F10843A4
:102560000421B1EB601F02D14F48406801E04E48A2
:10257000406A2021022292FAA2F2B2FA82F21143B8
:1025800001F01F0201219140084008B9012033E702
:10259000FFE74548406820F003006168084342496E
:1025A0004860FEF7F3F906466068012810D108E09C
:1025B000FEF7ECF9801B41F28831884201D90320F3
:1025C0001AE73948406800F00C000428F0D123E0F5
:1025D0006068022810D108E0FEF7D8F9801B41F2AC
:1025E0008831884201D9032006E72F48406800F06F
:1025F0000C000828F0D10FE008E0FEF7C7F9801BB7
:1026000041F28831884201D90320F5E62648406826
:1026100000F00C000028F0D12248006800F007000C
:10262000A8420ED91F48006820F0070028431D4922
:1026300008600846006800F00700A84201D00120A9
:10264000DAE6207800F00400042807D11648406834
:1026500020F4E060E168084313494860207800F006
:102660000800082808D11048406820F4605021690B
:1026700040EAC1000C49486000F022F80A49496864
:1026800001F0F001F02292FAA2F2B2FA82F2D14005
:10269000064A515CC840064908600020FEF7D0FB9E
:1026A0000020A9E60020024000100240646A0008F1
:1026B000040000200148006870470000040000206A
:1026C00070B5002100220024002300201D4D696800
:1026D00001F00C057DB3042D02D0082D2CD101E0B2
:1026E00019482CE001F470154FF4701696FAA6F60E
:1026F000B6FA86F6F540154E735D124DED6A05F09B
:102700000F050F2696FAA6F6B6FA86F6F540104E95
:10271000725D01F48035B5F5803F05D10A4DB5FBFA
:10272000F2F505FB03F404E0074DB5FBF2F505FBFC
:1027300003F4204603E000E000BF034800BF00BFF1
:1027400070BD00000010024000127A00446A0008C8
:10275000546A0008F8B504460025207800F001000E
:1027600000287BD0FD48406800F00C0004280CD005
:10277000FA48406800F00C00082845D1F748406846
:1027800000F4C030B0F5803F3ED12020010391FA23
:10279000A1F1B1FA81F108430121B1EB601F02D12F
:1027A000EE4800681DE02020010391FAA1F1B1FA82
:1027B00081F108430221B1EB601F02D1E748006AB2
:1027C0000FE02020010391FAA1F1B1FA81F1084351
:1027D0000421B1EB601F02D1E048406801E0DF480E
:1027E000406A20210A0392FAA2F2B2FA82F211435D
:1027F00001F01F020121914008400028B1D060681B
:1028000000282BD10120F8BD00BF6068B0F5803FE3
:1028100006D1D248006840F48030D049086029E0F1
:10282000606858B9CD48006820F48030CB49086012
:102830000846006820F4802008601BE06068B0F55E
:10284000A02F0CD1C548006840F48020C34908601F
:102850000846006840F4803008600BE099E0BF480B
:10286000006820F48030BD4908600846006820F404
:102870008020086000BF6068A0B3FEF787F80546B7
:1028800006E0FEF783F8401B642801D90320BAE76D
:102890002020010391FAA1F1B1FA81F1084301214D
:1028A000B1EB601F02D1AD4800681EE0202001039B
:1028B00091FAA1F1B1FA81F108430221B1EB601F55
:1028C00002D1A648006A10E02020010391FAA1F18C
:1028D000B1FA81F108430421B1EB601F03D19F4895
:1028E000406802E010E09D48406A20210A0392FA05
:1028F000A2F2B2FA82F2114301F01F0201219140CB
:1029000008400028BDD044E0FEF740F8054606E048
:10291000FEF73CF8401B642801D9032073E7202010
:10292000010391FAA1F1B1FA81F108430121B1EB60
:10293000601F02D1894800681DE02020010391FA40
:10294000A1F1B1FA81F108430221B1EB601F02D17C
:102950008248006A0FE02020010391FAA1F1B1FA48
:1029600081F108430421B1EB601F02D17B4840682C
:1029700001E07A48406A20210A0392FAA2F2B2FAF0
:1029800082F2114301F01F0201219140084000280A
:10299000BED1207800F0020002285DD16F48406867
:1029A00000F00C0060B16D48406800F00C00082891
:1029B00053D16A48406800F4C030B0F5004F4CD1A4
:1029C0002020022191FAA1F1B1FA81F108430121FD
:1029D000B1EB601F02D1614800681DE02020022198
:1029E00091FAA1F1B1FA81F108430221B1EB601F24
:1029F00002D15A48006A0FE02020022191FAA1F189
:102A0000B1FA81F108430421B1EB601F02D15348B0
:102A1000406801E05148406A2021022292FAA2F265
:102A2000B2FA82F2114301F01F02012191400840E5
:102A300020B1E068012801D00120E4E647480068A1
:102A400020F0F800F82292FAA2F2B2FA82F221699A
:102A50009140084341490860B0E0E068E0B30120DC
:102A600090FAA0F1B1FA81F13D4A42F82100FDF758
:102A70008DFF054606E0FDF789FF401B022801D9BE
:102A80000320C0E62020022191FAA1F1B1FA81F1E0
:102A900008430121B1EB601F02D1304800681EE0FD
:102AA0002020022191FAA1F1B1FA81F1084302211B
:102AB000B1EB601F02D12948006A10E020200221FA
:102AC00091FAA1F1B1FA81F108430421B1EB601F41
:102AD00003D12248406802E01EE02048406A2021DD
:102AE000022292FAA2F2B2FA82F2114301F01F021C
:102AF0000121914008400028BDD01848006820F00E
:102B0000F800F82292FAA2F2B2FA82F22169914018
:102B100008431249086051E00020012191FAA1F117
:102B2000B1FA81F10E4A42F82100FDF72FFF054668
:102B300006E0FDF72BFF401B022801D9032062E6C7
:102B40002020022191FAA1F1B1FA81F1084301217B
:102B5000B1EB601F06D10148006821E0001002407F
:102B6000000042422020022191FAA1F1B1FA81F144
:102B700008430221B1EB601F02D1F848006A0FE060
:102B80002020022191FAA1F1B1FA81F10843042138
:102B9000B1EB601F02D1F148406801E0EF48406AA4
:102BA0002021022292FAA2F2B2FA82F2114301F03B
:102BB0001F020121914008400028BAD1207800F07E
:102BC0000800082851D1606980B3012090FAA0F173
:102BD000B1FA81F1E24A02EB8101C1F88004FDF70C
:102BE000D5FE054606E0FDF7D1FE401B022801D9BF
:102BF000032008E66020022191FAA1F1B1FA81F1E7
:102C000008430121B1EB601F02D1D44800681EE0E7
:102C10006020022191FAA1F1B1FA81F10843022169
:102C2000B1EB601F03D1CD48006A10E01EE06020C8
:102C3000022191FAA1F1B1FA81F108430421B1EB2B
:102C4000601F02D1C548406801E0C448406A602165
:102C5000022292FAA2F2B2FA82F2114301F01F02AA
:102C60000121914008400028BDD04FE00021012003
:102C700090FAA0F0B0FA80F0B94A02EB8000C0F8F8
:102C80008014FDF783FE054606E0FDF77FFE401B3E
:102C9000022801D90320B6E56020022191FAA1F1B2
:102CA000B1FA81F108430121B1EB601F02D1AB48B9
:102CB00000681DE06020022191FAA1F1B1FA81F1D2
:102CC00008430221B1EB601F02D1A448006A0FE063
:102CD0006020022191FAA1F1B1FA81F108430421A7
:102CE000B1EB601F02D19D48406801E09B48406AFB
:102CF0006021022292FAA2F2B2FA82F2114301F0AA
:102D00001F020121914008400028BED1207800F028
:102D10000400042873D100269048C06900F0805058
:102D200070B900BF8D48C06940F080508B49C861C0
:102D30000846C06900F08050009000BF00BF012627
:102D40008848006800F48070B0B98648006840F494
:102D5000807084490860FDF719FE054606E0FDF71E
:102D600015FE401B642801D903204CE57D4800680E
:102D700000F480700028F2D000BFA068012806D1BE
:102D80007648006A40F001007449086227E0A068B4
:102D900058B97248006A20F001007049086208467C
:102DA000006A20F00400086219E0A06805280BD131
:102DB0006A48006A40F00400684908620846006AF0
:102DC00040F0010008620AE06448006A20F0010057
:102DD000624908620846006A20F00400086200BFE9
:102DE000A068B8B3FDF7D2FD054609E0FDF7CEFDBA
:102DF000401B41F28831884202D9032003E58BE071
:102E00004020022191FAA1F1B1FA81F10843012198
:102E1000B1EB601F02D1514800681EE04020022142
:102E200091FAA1F1B1FA81F108430221B1EB601FDF
:102E300002D14A48006A10E04020022191FAA1F133
:102E4000B1FA81F108430421B1EB601F03D143487B
:102E5000406802E010E04148406A4021022292FAB4
:102E6000A2F2B2FA82F2114301F01F020121914055
:102E700008400028BAD046E0FDF788FD054608E086
:102E8000FDF784FD401B41F28831884201D90320BF
:102E9000B9E44020022191FAA1F1B1FA81F108438D
:102EA0000121B1EB601F02D12C4800681DE04020D9
:102EB000022191FAA1F1B1FA81F108430221B1EBAB
:102EC000601F02D12548006A0FE04020022191FADC
:102ED000A1F1B1FA81F108430421B1EB601F02D1E5
:102EE0001E48406801E01D48406A4021022292FAD3
:102EF000A2F2B2FA82F2114301F01F0201219140C5
:102F000008400028BCD1012E05D11448C06920F02A
:102F100080501249C86100BFA06900287ED00F48C8
:102F2000406800F00C00082879D0A069022877D109
:102F300000204FF0807191FAA1F1B1FA81F1084AB5
:102F400042F82100FDF722FD05460DE0FDF71EFDCC
:102F5000401B022808D9032055E40000001002405D
:102F600000004242007000402020010591FAA1F1CA
:102F7000B1FA81F108430121B1EB601F02D175481C
:102F800000681DE02020010591FAA1F1B1FA81F15C
:102F900008430221B1EB601F02D16E48006A0FE0C6
:102FA0002020010591FAA1F1B1FA81F10843042131
:102FB000B1EB601F02D16748406801E06548406A94
:102FC00020210A0592FAA2F2B2FA82F2114301F02C
:102FD0001F020121914008400028B7D100BF5D4881
:102FE000C06A20F00F00616A08435A49C862D4E9F8
:102FF000071008435749496821F476110843554999
:10300000486000BF0120010691FAA1F1B1FA81F1F7
:10301000514A42F82100FDF7B9FC02E097E094E044
:1030200043E0054606E0FDF7B1FC401B022801D94C
:1030300003202CE42020010591FAA1F1B1FA81F1DD
:1030400008430121B1EB601F02D1424800681DE036
:103050002020010591FAA1F1B1FA81F10843022182
:10306000B1EB601F02D13B48006A0FE02020010550
:1030700091FAA1F1B1FA81F108430421B1EB601F8B
:1030800002D13448406801E03248406A20210A05F4
:1030900092FAA2F2B2FA82F2114301F01F02012168
:1030A000914008400028BED051E000204FF08071D0
:1030B00091FAA1F1B1FA81F1274A42F82100FDF716
:1030C00065FC054606E0FDF761FC401B022801D9BE
:1030D000032023E42020010591FAA1F1B1FA81F146
:1030E00008430121B1EB601F02D11A4800681DE0BE
:1030F0002020010591FAA1F1B1FA81F108430221E2
:10310000B1EB601F02D11348006A0FE020200105D7
:1031100091FAA1F1B1FA81F108430421B1EB601FEA
:1031200002D10C48406801E00A48406A20210A05A3
:1031300092FAA2F2B2FA82F2114301F01F020121C7
:10314000914008400028BED101E0012075E4002034
:1031500073E40000001002400000424270B50446D3
:103160000CB9012070BD94F85D0028B9002084F8E6
:103170005C00204600F05AF8022084F85D002068C8
:10318000006820F0400021680860E068B0F5E06F5A
:1031900001D9002501E04FF48055E068B0F5706F6B
:1031A00005D0E068B0F5E06F01D00021A162206B8E
:1031B00040B9E068B0F5E06F02D90221216301E077
:1031C00001212163D4E901010843216908436169B0
:1031D0000843218B01F400710843E1690843216A27
:1031E0000843A16A084321680860206B022805D1C2
:1031F0002068006840F40060216808600421A0692C
:1032000001EA1040616A0843616B0843E1680843C2
:103210002843216848602168E06A08610020206630
:10322000012084F85D0000209CE7000010B586B006
:1032300004461849206888422AD100BF1648C06950
:1032400040F480401449C8610846C06900F48040D9
:10325000009000BF00BF881401900220029000205F
:103260000390032004900520059001A90B48FDF769
:103270008BFA4FF4604001900220029001200390ED
:10328000032004900520059001A90448FDF77CFA6D
:1032900006B010BD00380040001002400004004895
:1032A0002DE9F84F04460F4690461D460A9EFDF74D
:1032B0006DFB81464FF0000A00BF94F85C000128C6
:1032C00002D10220BDE8F88F012084F85C0000BF25
:1032D00094F85D00012802D04FF0020A78E11FB196
:1032E000B8F1000F00D015B94FF0010A70E10520C8
:1032F00084F85D0000202066C4F84080A4F84650A1
:10330000A4F84450A763E587A587A06AB0F5005FDD
:103310000ED100BF206800684DF6FF71084021689B
:1033200008602068006840F400502168086000BF11
:10333000E068B0F5E06F03D8B4F84600012806DD78
:103340002068406820F480502168486005E02068CB
:10335000406840F48050216848602068006800F0B0
:103360004000402805D02068006840F040002168F7
:103370000860E068B0F5E06F58D94FE0E08F0028B2
:103380002CDD2068806800F00200022826D1A06BA6
:1033900000882168C860A06B801CA063E08F401E7D
:1033A000E087E08FD0B9A06AB0F5005F16D1206841
:1033B000006800F0040058B92068406800F0080078
:1033C000082805D12068006840F400702168086072
:1033D0002068006840F4805021680860B4F8460016
:1033E000002810DD2068806800F0010058B12068D6
:1033F000C068216C0880206C801C2064B4F84600F2
:10340000401EA4F84600701C40B1FDF7BFFAA0EBC7
:103410000900B04202D34FF0030AD9E0E08F002840
:10342000ACDCB4F846000028A8DC7EE076E0E08F53
:10343000002839DD2068806800F00200022833D1BE
:10344000E08F01280ADDA06B00882168C860A06BAE
:10345000801CA063E08F801EE08708E0A16B481C01
:10346000A063087821680873E08F401EE087E08F32
:10347000D0B9A06AB0F5005F16D12068006800F0EE
:10348000040058B92068406800F00800082805D1F9
:103490002068006840F400702168086020680068B7
:1034A00040F4805021680860B4F8460000282ADD06
:1034B0002068806800F0010028B3B4F846000128B5
:1034C00016DD2068C068216C0880206C801C206498
:1034D000B4F84600801EA4F84600B4F8460001285F
:1034E00011DC2068406840F48050216848600AE0A0
:1034F0002068017B226C501C20641170B4F84600D7
:10350000401EA4F84600701C40B1FDF73FFAA0EB46
:103510000900B04202D34FF0030A59E0E08F0028BF
:1035200085DCB4F84600002881DCA06AB0F5005FB5
:1035300033D1334601221146204601F0ABFA30B1B7
:10354000206E40F0020020664FF0030A40E0E06881
:10355000B0F5706F06D12068C06880B20090BDF8E9
:1035600000001AE02068007B0090BDF80000206B8E
:10357000022812D1334601221146204601F08AFA70
:1035800030B1206E40F0020020664FF0030A1FE0C9
:103590002068007B0090BDF8000020688068C0F3C0
:1035A000001048B1206E40F0020020664FF6EF7028
:1035B000216888604FF0010A3146204601F0F0F999
:1035C00008B120202066206E08B14FF0010A00BF2C
:1035D000012084F85D0000BF002084F85C0000BF7B
:1035E00050466FE6042808D14FF0E021096941F008
:1035F00004014FF0E022116107E04FF0E02109697A
:1036000021F004014FF0E02211617047704770B55E
:1036100004462546681EB0F1807F01D301200FE0EB
:10362000681E4FF0E02148610F214FF0FF3000F09D
:10363000B5FB00204FF0E0218861072008610020E1
:1036400070BD10B5FFF7E2FF10BD00BFFEE70168D7
:103650008969C1F3400111B10021026891620168DA
:10366000896901F0010129B90168896941F0010105
:10367000026891617047000070B504460D46164619
:1036800020688069C0F30010002837D013E0681C60
:1036900088B125B1FDF77AF9801BA8420BD920200B
:1036A00084F84100002084F8420000BF84F8400004
:1036B00000BF032070BD20688069C0F3401000285F
:1036C000E5D010202168C86120202168C86120460B
:1036D000FFF7BDFF2068406809490840216848603D
:1036E00004206064202084F84100002084F8420017
:1036F00000BF84F8400000BF0120DBE70020D9E7CD
:1037000000E800FEF0B50C46059D002106687168D2
:10371000074E3140C4F309064FF47F0707EA02471A
:103720003E431E432E43314306687160F0BD0000E6
:10373000009800FC2DE9F04104460E4617461D4650
:10374000DDF8188015E0681C98B12DB1FDF71EF961
:10375000A0EB0800A8420CD9202084F841000020EA
:1037600084F8420000BF84F8400000BF0320BDE899
:10377000F081206880693040B04201D1012000E032
:103780000020B842DFD00020F1E7000070B5044609
:103790000D46164637E0324629462046FFF76CFFB5
:1037A00008B1012070BD20688069C0F34010B0B13D
:1037B00020202168C86120684068174908402168B6
:1037C000486000206064202084F84100002084F8D4
:1037D000420000BF84F8400000BF0120E2E725B1AD
:1037E000FDF7D4F8801BA8420DD9606C40F0200092
:1037F0006064202084F8410000BF002084F840006D
:1038000000BF0320CEE720688069C0F38000002855
:10381000C1D00020C6E7000000E800FE70B50446F5
:103820000D4616461DE0324629462046FFF724FF86
:1038300008B1012070BD25B1FDF7A8F8801BA84292
:103840000FD9606C40F020006064202084F84100B3
:10385000002084F8420000BF84F8400000BF03202D
:10386000E8E720688069C0F340100028DBD0002022
:10387000E0E770B504460D4616461FE0324629467D
:103880002046FFF7F9FE08B1012070BD681CA8B101
:1038900025B1FDF77BF8801BA8420FD9606C40F082
:1038A00020006064202084F84100002084F8420059
:1038B00000BF84F8400000BF0320E6E7206880696D
:1038C000C0F340000028D9D00020DEE708B500F0A2
:1038D00011F801220F21684600F07AF89DF80000E7
:1038E0003F2803D101200249087008BD0020FCE7F1
:1038F0001C000020034800BF011EA0F10100FBD105
:103900007047000040190100F8B505460E466724CF
:1039100000BF35B900BF9FED280A284880ED000A96
:1039200028E0012D07D144F008049FED250A234823
:1039300080ED000A1EE0022D07D144F010049FED37
:10394000210A1E4880ED000A14E0032D07D144F03F
:1039500018049FED1D0A194880ED000A0AE0042DA5
:1039600007D144F020049FED190A144880ED000AA5
:1039700000E0F8BD06B90FE0012E02D144F4804406
:103980000AE0022E02D144F4004405E0032E02D1E5
:1039900044F4404400E0ECE7E0B200900122202132
:1039A000684600F0A3F82012009001222421684606
:1039B00000F09CF800BFDCE78FC2753D20000020BE
:1039C0008FC2F53DEC51383E8FC2753E48E13A3F1B
:1039D00037B582B0054614469DF80C0040F08000D3
:1039E0000390012C04DD9DF80C0040F04000039092
:1039F0000520012303AA3C2100900648FDF71EF98B
:103A0000052023462A463C2100900248FDF758F83D
:103A100005B030BD9C0100201CB5044601222821C0
:103A20006846FFF7D5FF012229210DF10100FFF7BC
:103A3000CFFF01222A210DF10200FFF7C9FF012269
:103A40002B210DF10300FFF7C3FF01222C2101A858
:103A5000FFF7BEFF01222D210DF10500FFF7B8FF92
:103A60009DF900009DF8011000EB012000B200EE6E
:103A7000100AB8EEC00A1C48D0ED000A20EE200A59
:103A8000BDEEC00A10EE100A00B220809DF90200BF
:103A90009DF8031000EB012000B200EE100AB8EE12
:103AA000C00A1148D0ED000A20EE200ABDEEC00A7F
:103AB00010EE100A00B260809DF904009DF8051018
:103AC00000EB012000B200EE100AB8EEC00A064872
:103AD000D0ED000A20EE200ABDEEC00A10EE100A5A
:103AE00000B2A0801CBD00002000002070B586B090
:103AF00005460E4614468DF808600F2C01DC204662
:103B000000E00F200446224629460DF10900FCF78B
:103B10009EFB0520631C02AA3C2100900248FDF791
:103B20008DF806B070BD00009C01002070B5044601
:103B30000D46FFF7DFFEFFF7C9FE012805D1294634
:103B40002046FFF7E1FE012070BD0020014908700A
:103B500000BFF9E71C00002010B5044605480078B6
:103B6000012804D12046FFF757FF012010BD002097
:103B7000FCE700001C00002000B587B000BF4948EA
:103B8000406940F40020474948610846406900F414
:103B90000020019000BF00BF00BF0846406940F40C
:103BA000800048610846406900F48000019000BF31
:103BB00000BF00BF0846406940F400104861084655
:103BC000406900F40010019000BF00BF00BF08462C
:103BD000406940F4802048610846406900F4802034
:103BE000019000BF00BF00BF0846406940F480104C
:103BF00048610846406900F48010019000BF00BF92
:103C000000BF0846406940F40030486108464069FA
:103C100000F40030019000BF00BF4FF40E5002903E
:103C200000200390049002A91F48FCF7ADFD4FF45B
:103C3000404002900120039000200490059002A9CA
:103C40001A48FCF7A1FD4FF4806002900120039018
:103C500000200490059002A91548FCF795FD4FF44B
:103C60000060029000200390049002A91048FCF725
:103C70008BFD4FF40040029000200390049002A9B5
:103C80000C48FCF781FD00224FF440410748FCF747
:103C900077FE00224FF480610548FCF771FE07B003
:103CA00000BD00000010024000080048001000485D
:103CB00000040048000C004810B50E480E4908608A
:103CC0000E48486000210C4881600121C16000213C
:103CD000016141618161C1610162FCF793FE08B13C
:103CE000FCF73CFD00210448FCF756FE08B1FCF748
:103CF00035FD10BD005400409C0100200E0900203D
:103D000010B51148114908604FF4827048600021D5
:103D10000E4881604FF4E061C16002210161012120
:103D20004161890481612821C161002101624162F0
:103D300081620721C162002101634163FFF70EFA2E
:103D400008B1FCF70BFD10BD00380040E801002071
:103D500010B500220749084801F035FB074906481D
:103D600001F059FD0649044801F068F8024801F0E5
:103D70001BFE10BD34000020CC0800209000002065
:103D80007400002000BFFEE7704700000248006892
:103D9000C0F30220704700000CED00E010B50028D1
:103DA00007DA0A07140E054A00F00F031B1FD4544C
:103DB00003E00A07130E024A135410BD18ED00E089
:103DC00000E400E02DE9FC410546002700200090BA
:103DD00003E2BDF8040000F00F06002E7ED1BDF80E
:103DE000040000F0100080BB2868008848F60F71BE
:103DF00008402968088005F128042868B0F85010A8
:103E0000207801EBC000801C296801F58061405AD0
:103E1000C0F30900A061A169206908442061002164
:103E20002846FDF7E0F895F824000028D0DD606909
:103E30000028CDD195F8240040F080002968A1F831
:103E40004C00002085F82400C7E1FFE705F5E67483
:103E5000286800880090BDF8000000F4006010B3EE
:103E60002868B0F85010207801EBC000801D296848
:103E700001F58061405AC0F30900A061218B8BB22B
:103E8000A28805F55D71286800F0B2F928680088FD
:103E9000C0F30E0048F68F71084029680880284654
:103EA000FEF798F899E1BDF8000000F40040002802
:103EB0008ED028680088C0F30E0048F68F71084045
:103EC000296808802868B0F85010207801EBC000FD
:103ED000801D296801F58061405A00E04EE0C0F382
:103EE0000900A061A06960B1B4F818C01FFA8CF392
:103EF000A2882169286800F07BF9A169206908443B
:103F0000206100212846FDF77EF82868B0F85000AF
:103F1000801D2A6802F580628118E2683E2A0ED967
:103F2000E268C2F34F10227B02F01F020AB9421E60
:103F300090B24FF4004242EA80220A800DE0E2682B
:103F4000C2F34F00227B02F001020AB1421C90B280
:103F50004FF6FF7202EA80220A80296809884BF630
:103F60008F7201EA020080F4805080F4005040F427
:103F7000004141F080012A6811802EE1710028681B
:103F800030F811000090BDF8000000F40040002857
:103F90007BD07100286830F81100C0F30E0048F69D
:103FA0008F7108407200296821F81200C6EBC60123
:103FB00005F5E67000EB8104A07AA0B92868B0F896
:103FC0005010207801EBC000801D296801F5806148
:103FD000405AC0F30907EFB3A28821693B4628681D
:103FE00000F006F942E021784900286830F8110015
:103FF00000F48040A0B12868B0F85010207801EBA0
:10400000C000801C296801F58061405AC0F309078F
:10401000D7B1E28821693B46286800F0E9F813E04F
:104020002868B0F85010207801EBC000801D296886
:1040300001F58061405AC0F309072FB12289216937
:104040003B46286800F0D4F821784900286830F809
:10405000110000E00AE048F68F71084048F2C00104
:10406000084322785200296821F81200A0693844D8
:10407000A061206938442061606910B1E068B842ED
:1040800004D921782846FCF7BEFF05E021782846B0
:10409000D4E90423FDF747FCBDF8000000F08000E0
:1040A00000287DD0C6EBC60105F1280000EB810495
:1040B0007100286830F8110048F60F71084072004E
:1040C000296821F81200A07AC8B92868B0F8501001
:1040D000207801EBC000801C296801F58061405AFE
:1040E000C0F30900A061A069F0B3B4F818C01FFACA
:1040F0008CF3A2882169286800F08BF84CE02178C5
:104100004900286830F8110000F04000C8B1286864
:10411000B0F85010207801EBC000801C296801F530
:104120008061405AC0F30900A061A06920B3B4F8CF
:1041300018C01FFA8CF3E2882169286800F069F83A
:104140001AE02868B0F85010207801EBC000801DFC
:10415000296801F58061405AC0F30900A061A06997
:1041600050B1B4F818C000E016E01FFA8CF32289B1
:104170002169286800F04DF821784900286830F856
:10418000110048F68F7108404CF2800108432278F4
:104190005200296821F812002868B0F8501000E099
:1041A0001BE0207801EBC000801C296801F58061CC
:1041B000405AC0F30900A061A16920690844206148
:1041C000606920B921782846FCF70DFF05E02178C9
:1041D0002846D4E90423FDF7C4FC2868B0F844005D
:1041E000019000F4004000287FF4F3ADBDE8FC81AD
:1041F000F0B55F1C7E10171807F58065344605E0A2
:1042000035F8027B21F8017B491C641E002CF7D194
:10421000F0BD2DE9F04103F101084FEA680C02EB13
:10422000000808F58067644609E00E78491C91F89B
:10423000008046EA082527F8025B491C641E002C12
:10424000F3D1BDE8F081704708B50120009041022C
:104250000448FCF78DFB012801D1002000909DF857
:10426000000008BD000800487FB504460025FF2671
:1042700000224FF480514048FCF782FBFF220021CE
:104280000A2000F007FB002000F0CBF9A8B9FE20BF
:1042900000F0C7F940B900BF04E000F0EBFA0DF8F8
:1042A00005006D1C102DF8D33448007800F068FB31
:1042B0003248007800F064FB0026012211032E48EA
:1042C000FCF75EFB2D48007800F05AFB9DF80000DB
:1042D00020709DF801000002608060889DF8021047
:1042E000084360809DF803000006606060689DF8E8
:1042F000041040EA0140606060689DF8051040EAE3
:104300000120606060689DF80610084360609DF8B9
:10431000070020729DF8080060729DF809000006F1
:10432000E060E0689DF80A1040EA0140E060E06863
:104330009DF80B1040EA0120E060E0689DF80C1049
:104340000843E060207C9DF80D1040EA11102074B5
:104350009DF80D000007000D6082608A9DF80E1028
:10436000084360829DF80F004008207501206075A9
:10437000304604B070BD0000000400481800002062
:104380007FB504460025FF2600224FF48051804867
:10439000FCF7F6FAFF220021092000F07BFA00204A
:1043A00000F03FF9A8B9FE2000F03BF940B900BF8A
:1043B00004E000F05FFA0DF805006D1C102DF8D335
:1043C0007448007800F0DCFA7248007800F0D8FAFF
:1043D0000026012211036E48FCF7D2FA6D480078DE
:1043E00000F0CEFA9DF80000800920709DF80000D2
:1043F000C0F3830060709DF8000000F00300A0701F
:104400009DF80100E0709DF8020020719DF8030006
:1044100060719DF804000001E080E0889DF80510BF
:1044200040EA1110E0809DF8050000F00F002072B6
:104430009DF80600C00960729DF80600C0F3801068
:10444000A0729DF80600C0F34010E0729DF80600CF
:10445000C0F300102073002060739DF806008007F1
:10446000000D206120699DF8071040EA810020615D
:1044700020699DF8081040EA911020619DF808001D
:10448000C0F3C20020759DF8080000F007006075B9
:104490009DF809004009A0759DF80900C0F382004D
:1044A000E0759DF809008007400F2076207E9DF87A
:1044B0000A1040EAD11020769DF80A00C0F380105F
:1044C00060769DF80A008006400EA076A07E9DF8DA
:1044D0000B1040EAD110A0769DF80B0000F07F0091
:1044E000E0769DF80C00C00920779DF80C00C0F321
:1044F000411060779DF80C00C0F38200A0779DF812
:104500000C008007000FE077E07F9DF80D1040EA77
:104510009110E0779DF80D00C0F3401084F8200062
:10452000002084F821009DF80D0000F0010084F8BF
:1045300022009DF80E00C00984F823009DF80E00AB
:10454000C0F3801084F824009DF80E00C0F34010E2
:1045500084F825009DF80E00C0F3001084F82600B2
:104560009DF80E00C0F3810084F827009DF80E002E
:1045700000F0030084F828009DF80F00400884F83C
:104580002900012084F82A00304604B070BD0000E4
:10459000000400481800002070B50446FF2520469E
:1045A000FFF7EEFE04F12C00FFF75EFE05462069E2
:1045B000401C6064217E606C891C01228A4050434B
:1045C0006064217A01208840A064D4E91101484345
:1045D0006064284670BD70B5002518E000F04AF907
:1045E000044604F01F04052C04D00B2C04D00D2C21
:1045F00006D103E0052605E00B2070BD0D20FCE789
:10460000FF2600BF00BF052E00D102E06D1C402D2B
:10461000E4D900BF00BF00F02DF90028FBD02046F0
:10462000EBE770B5054640F6FF7400E0641E00F04D
:1046300021F9A84201D0002CF8D10CB9FF2070BD9F
:104640000020FCE738B500224FF480515548FCF7B4
:1046500097F995220021084600F01CF90120FFF788
:10466000E0FF08B1FF2038BD87224FF4D571082044
:1046700000F010F90120FFF7D4FF08B1FF20F2E7A6
:104680004948007800F07CF94748007800F078F954
:104690004548007800F074F94348007800F070F95C
:1046A00065220021372000F0F5F80120FFF7B9FF5F
:1046B00077224FF08041292000F0ECF80020FFF72E
:1046C000B0FF88B33848007800F05AF9652200211D
:1046D000372000F0DFF80120FFF7A3FF77224FF02B
:1046E0008041292000F0D6F80020FFF79AFFD8B1CA
:1046F0002D48007800F044F9FF220021012000F04D
:10470000C9F80020FFF78DFF70B12748007800F04E
:1047100037F9FF220021012000F0BCF80020FFF74C
:1047200080FF08B1FCF71AF81F48007800F028F95C
:10473000002211463A2000F0ADF80020FFF771FF8B
:1047400070B11948007800F01BF9002211463A2098
:1047500000F0A0F80020FFF764FF08B1FBF7FEFFB0
:10476000002405E000F086F80DF80400601CC4B2D7
:10477000042CF7DB9DF8000000F0400018B1012088
:104780000A49087002E0002008490870012211035C
:104790000448FCF7F5F80448007800F0F1F8002030
:1047A00061E7000000040048180000201900002004
:1047B00010B50024012211030748FCF7E1F800BFFF
:1047C00004E00648007800F0DBF8641C092CF8D9F6
:1047D000FFF738FF10BD000000040048180000205B
:1047E0002DE9F047064614461D46DDF820800027D7
:1047F0004FF0FF0900224FF480511B48FCF7C0F82E
:104800001A48007840B14FF4007200232046294630
:10481000FBF7DCFC04460D46FF222146112000F088
:1048200039F80020FFF7FDFE90B9FE20FFF7F9FEF2
:1048300070B9002704E000F01DF83070761C7F1C72
:104840004745F8D300F016F800F014F84FF00009CF
:10485000012211030448FCF793F80548007800F0A2
:104860008FF84846BDE8F087000400481900002092
:10487000180000201CB50520012301AA034900905F
:104880000348FEF70DFD9DF804001CBD1800002034
:10489000E80100202DE9FC4106460C46174600259C
:1048A00046F040008DF80000200E8DF80100200C2D
:1048B0008DF80200200A8DF80300E0B28DF80400A4
:1048C0008DF8057000BF04E01DF8050000F058F8F1
:1048D0006D1C062DF8D3BDE8FC8100002DE9F047E2
:1048E000064614461D46DDF8208000274FF0FF09DC
:1048F00000224FF480511F48FCF742F81E48007810
:1049000040B14FF40072002320462946FBF75EFCBD
:1049100004460D46FF2221461820FFF7BBFF00206A
:10492000FFF77FFEC8B91548007800F029F8FE208F
:1049300000F026F8002704E0307800F021F8761C1B
:104940007F1C4745F8D3FFF795FFFFF793FFFFF76D
:1049500042FE052801D14FF000090122110305484C
:10496000FCF70EF80548007800F00AF84846BDE864
:10497000F087000000040048190000201800002003
:1049800001B582B00520012301AA02A900900348C5
:10499000FEF786FC9DF804000EBD0000E801002033
:1049A00070B504460D462B4600224FF4C0512046F8
:1049B00000F016F828B1206E40F020002066032099
:1049C00070BD2B4600228021204600F063F828B1FC
:1049D000206E40F0200020660320F1E70020EFE782
:1049E0002DE9F84304460E4617461D46FBF7CEFF59
:1049F000804648E0B6F5C06F05D127B92068007B36
:104A000000909DF80000681CE0B32DB1FBF7BEFFDD
:104A1000A0EB0800A84236D32068406820F0E000F0
:104A2000216848606068B0F5827F0DD1A068B0F55C
:104A3000004F03D0A068B0F5806F05D120680068F2
:104A400020F0400021680860A06AB0F5005F0ED138
:104A500000BF206800684DF6FF71084021680860BB
:104A60002068006840F400502168086000BF012001
:104A700084F85D0000BF002084F85C0000BF0320C4
:104A8000BDE8F883FFE7206880683040B842B1D1C4
:104A90000020F5E72DE9F04104460E4617461D4675
:104AA000FBF774FF80463FE0681CE0B32DB1FBF7D5
:104AB0006DFFA0EB0800A84236D32068406820F0C4
:104AC000E000216848606068B0F5827F0DD1A06881
:104AD000B0F5004F03D0A068B0F5806F05D1206815
:104AE000006820F0400021680860A06AB0F5005F0F
:104AF0000ED100BF206800684DF6FF7108402168A4
:104B000008602068006840F400502168086000BF19
:104B1000012084F85D0000BF002084F85C0000BF25
:104B20000320BDE8F081FFE7206880683040B8428C
:104B3000BAD10020F5E7704710B5FCF765F9FEF72C
:104B400080FD10BD10B5A6B003201C904FF480303E
:104B50001D9001201F901020209002202290C10360
:104B60001CA8C1610901016200214162FDF7F2FD4B
:104B700008B1FBF7F3FD0F201790022018900020DA
:104B800019904FF480601A9000201B90012117A803
:104B9000FDF71AFC08B1FBF7E1FD10480190002079
:104BA00008904FF48000169001A8FDF737FA08B17D
:104BB000FBF7D4FDFDF77EFD4FF47A71B0FBF1F405
:104BC0002046FEF724FD0420FEF70CFD00221146CE
:104BD000501EFCF792F926B010BD00002000020024
:104BE0001948006840F470001749086017480068C9
:104BF00040F0010015490860084640681449084023
:104C00001249486008460068124908400F49086088
:104C10000846006820F4802008600846406820F4B8
:104C2000FE0048600846C06A20F00F00C8620846CF
:104C3000006B094908400549086300208860C803E3
:104C4000014980390860704788ED00E0001002409B
:104C50000CC07FF8FFFFF6FECCFC00FF02460B46BF
:104C6000D2F81812D2F8180218B10020C1F81402B4
:104C700070470220FCE770B504460E46D4F818527F
:104C80003146204600F07CFCC5F80C02D4F818022E
:104C900048B1D5F80402D4F81C12CA6805F50371AE
:104CA0009047002070BD0220FCE770B504460E4618
:104CB00000258121204600F0A9FB0121204600F0BB
:104CC000A5FB8221204600F0A1FBD4F8180250B1C8
:104CD000D4F81C1248688047D4F8180200F074FF1A
:104CE0000020C4F81802284670BD70B50546D5F8F6
:104CF0001842D5F81C0278B194F80002FF280BD0B6
:104D000094F8012294F80002D5F81C128B68214611
:104D10009847FF2084F80002002070BD01460A2059
:104D200008800148704700008400002001464320AD
:104D300008800148704700000C0100200146432014
:104D40000880014870470000C80000200146432049
:104D50000880014870470000500100202DE9F04113
:104D600004460F460026207C70B94FF400730222DF
:104D70008121204600F070FC4FF4007302220121D3
:104D8000204600F069FC0BE04023022281212046EE
:104D900000F062FC402302220121204600F05CFC6E
:104DA000082303228221204600F056FC4FF40770AE
:104DB00000F00CFFC4F81802D4F8180208B9012654
:104DC0001CE0D4F81852D4F81C1208688047002060
:104DD000C5F81402C5F81802207C40B94FF40073DE
:104DE00001212046D5F8042200F046FC06E04023CD
:104DF00001212046D5F8042200F03EFC3046BDE8F3
:104E0000F08170B50446D4F81852D4F8180298B15D
:104E1000207C40B94FF4007301212046D5F80422CC
:104E200000F02AFC06E0402301212046D5F80422A8
:104E300000F022FC002070BD0220FCE702460220A8
:104E400011B1C2F81C12002070470246D2F8183285
:104E5000C3F804120020704710B50346D3F8184277
:104E6000C4F80812C4F81022002010BD70B5054621
:104E70000C46D5F81862207800F0600040B3202876
:104E800035D1E088E0B1207800F0800060B1E288A0
:104E90006078D5F81C128B6831469847E288314615
:104EA000284600F0B9F812E0607886F80002A07990
:104EB00086F80102E2883146284600F08CF806E0C8
:104EC0006078D5F81C1200228B68214698470FE0C5
:104ED00060780A2802D00B2807D105E00122064994
:104EE000284600F099F800E000BF00BF00BF00BFF7
:104EF00000BF002070BD00009301002070B5054682
:104F0000D5F81842D5F8180290B1D4F8140268B94F
:104F10000120C4F81402B4F8100283B2812128469B
:104F2000D4F8082200F053FC002070BD0120FCE7FB
:104F30000220FAE770B504460D46D4F8140229465B
:104F4000426820469047002070BD70B504460D466B
:104F500094F8FC01022802D0032811D100E000BF20
:104F6000688801280BD10020C4F80402D4F8140288
:104F70002946826820469047204600F05EF804E00B
:104F80002946204600F01BF800BF00BF70BD70B579
:104F900006460C4615462B4622460021304600F0B8
:104FA0006BFB002070BD70B506460C4615462B46BF
:104FB00022460021304600F00AFC002070BD70B58A
:104FC00004460D468021204600F0E5FB00212046E6
:104FD00000F0E1FB70BD70B504460E461546032097
:104FE000C4F8F4014FF484700551001D05512B469F
:104FF00032460021204600F03FFB002070BD10B576
:1050000004460520C4F8F40100231A461946204638
:1050100000F032FB002010BD70B504460E46154668
:105020000220C4F8F401A561E5612B463246002157
:10503000204600F0CCFB002070BD10B504460420D3
:10504000C4F8F40100231A461946204600F0BFFBBD
:10505000002010BD70B505460C462DB92246064904
:1050600006A000F087F904E02246034903A000F0FF
:1050700081F9014870BD0000CC0600204344432064
:10508000436F6E666967000002461220088001487F
:10509000704700005000002070B505460C462DB941
:1050A0002246064906A000F065F904E022460349BD
:1050B00003A000F05FF9014870BD0000CC0600209D
:1050C00043444320496E7465726661636500000065
:1050D0000246042008800148704700006400002058
:1050E00070B505460C462246024903A000F042F97D
:1050F000004870BDCC06002053544D6963726F6543
:105100006C656374726F6E696373000070B50546F9
:105110000C462DB92246064906A000F02BF904E002
:105120002246034903A000F025F9014870BD0000A4
:10513000CC06002053544D33322056697274756189
:105140006C20436F6D506F727400000070B505469F
:105150000C462DB92246064906A000F00BF904E0E2
:105160002246034903A000F005F9014870BD000084
:10517000CC060020303030303030303030303141EB
:105180000000000070B504460D46E888012804D0F0
:1051900029462046FFF713FF1BE094F8FC01022884
:1051A00002D003280FD108E00020A060012204F102
:1051B00008012046FFF730FF0AE00122211D2046AA
:1051C000FFF72AFF04E029462046FFF7F8FE00BF5C
:1051D00000BF70BDF8B504460E467088001208285E
:1051E0007FD2DFE800F07E040C207E7E5F6D207CA5
:1051F000D4F810120A6869469047054676E0207C8C
:1052000040B9D4F81402816A6846884705460221ED
:10521000697007E0D4F81402C16A684688470546F9
:105220000221697062E0B078062834D2DFE800F02D
:10523000030B131B232B207CD4F810124A686946F9
:10524000904705462CE0207CD4F810128A68694605
:105250009047054624E0207CD4F81012CA686946BD
:10526000904705461CE0207CD4F810120A69694674
:105270009047054614E0207CD4F810124A6969462C
:10528000904705460CE0207CD4F810128A696946E4
:105290009047054604E031462046FFF790FEF8BDF2
:1052A00000BF23E0207C30B9D4F81402416B68467B
:1052B000884705461AE031462046FFF780FEEEE7B4
:1052C000207C48B9D4F81402016B6846884705462B
:1052D000072169700AE004E031462046FFF76FFEBF
:1052E000DDE731462046FFF76AFED8E700BFBDF88C
:1052F000000088B1F08878B1F088BDF800108842CD
:1053000002DDBDF8000000E0F0880090BDF800204C
:1053100029462046FFF780FE00BFC0E70146002077
:1053200002E0421CD0B2491C0A78002AF9D1704729
:1053300070B504460D4694F8FC01022802D00328FB
:1053400011D100E000BF0020E060D4F8040218B1E1
:10535000E06840F00200E060022204F10C01204607
:10536000FFF75AFE04E029462046FFF728FE00BF5B
:1053700000BF70BD2DE9F04104460D4617460026DA
:10538000FCB12046FFF7CAFF022101EB4000388044
:105390003A783046711CCEB22A5403223046711C32
:1053A000CEB22A540AE014F8012B3046711CCEB25A
:1053B0002A5400223046711CCEB22A54207800288C
:1053C000F1D1BDE8F08170B504460D4616460CB922
:1053D000022070BDD4F8140210B10020C4F81402E9
:1053E0000DB1C4F81052012084F8FC01267020464B
:1053F00000F0D0F80020ECE770B504460D462946D1
:10540000D4F82002FBF768FF002070BD70B5044699
:105410000D462946D4F82002FBF705FE002070BD9A
:105420002DE9F04104460E461746002E54D104F1F2
:105430001405D4F8F401022843D1D5E902018842C9
:1054400010D9D5E90201401AA860288982B23946EC
:105450002046FFF7A8FD00231A461946204600F013
:105460000BF92EE0E9686868B0FBF1F201FB12006D
:10547000B8B9E9686868884213D36868D4F8F81145
:1054800088420ED2002211462046FFF78CFD0020F4
:10549000C4F8F80100231A461946204600F0ECF83B
:1054A0000FE0D4F81402C06840B194F8FC0103285E
:1054B00004D1D4F81402C168204688472046FFF77B
:1054C0009EFD94F80002012814D1204600F0ABF9AB
:1054D000002084F800020DE0D4F81402406948B1BD
:1054E00094F8FC01032805D1D4F81402314642692E
:1054F000204690470020BDE8F0812DE9F0410546A7
:105500000E4617465EBB05F58274D5F8F4010328F4
:1055100033D1D4E90201884210D9D4E90201401AFA
:10552000A060D4E90201884201D2A06800E0E068EE
:1055300082B239462846FFF72AFD1EE0D5F814024C
:10554000006940B195F8FC01032804D1D5F8140294
:105550000169284688472846FFF76FFD0DE0D5F81A
:105560001402806948B195F8FC01032805D1D5F8EB
:10557000140231468269284690470020BDE8F08138
:1055800070B504460D462946D4F82002FBF734FFD7
:1055900070BD000010B504461F48C0F8A443C4F80D
:1055A00020021E481C4908600820486002211A4851
:1055B00081600021C1600221016100218161C1611E
:1055C0000162FCF71CFC08B1FBF7C8F804F508748D
:1055D0001823002211462068FBF7E2FC5823002222
:1055E00080212068FBF7DCFCC02300228121206899
:1055F000FBF7D6FC4FF48873002201212068FBF7EB
:10560000CFFC2068A4F508744FF480730022822137
:10561000FBF7C6FC002010BD000D0020005C004020
:1056200010B50246D2F8203201F08000802809D15E
:1056300001F07F00C0EBC00403F1280000EB840000
:10564000807810BD01F07F00C0EBC00403F5E67068
:1056500000EB84008078F4E72DE9F04104460F4622
:1056600015461E462B4632463946D4F82002FBF733
:10567000CFFE0020BDE8F0812DE9F04104460D4643
:1056800016461F463B4632462946D4F82002FCF710
:105690004AF90020BDE8F08110B5044640230022FD
:1056A00011462046FFF7D8FF40214FF48870015182
:1056B0004023002280212046FFF7CEFF40212162B7
:1056C000012084F8FC01D4F8180228B12179D4F81B
:1056D0001402426820469047002010BD014691F810
:1056E000FD0181F8FC010020704710B5044694F8D4
:1056F000FC01032808D1D4F81402C06920B1D4F801
:105700001402C16920468847002010BD024611746A
:105710000020704770B504460D462946D4F8200293
:10572000FCF73DFC002070BD70B504460D462946CF
:1057300004F5027000F05BF80120C4F8F40140F2B7
:105740000E20005BC4F8F80194F8080200F01F0076
:1057500020B1012808D0022812D10BE004F5027113
:10576000204600F028F913E004F50271204600F00D
:1057700006FA0DE004F50271204600F055F907E045
:1057800094F8080200F08001204600F004F800BF01
:1057900000BF002070BD70B504460D462946D4F800
:1057A0002002FCF769F9002070BD10B50446D4F85A
:1057B0002002FCF718FC002010BD014691F8FC0106
:1057C00081F8FD01042081F8FC01002070472DE9DB
:1057D000F04104460D4616461F463B4632462946D2
:1057E000D4F82002FCF7BDF90020BDE8F0810A786A
:1057F00002704A7842708B78CA7803EB02224280AA
:105800000B794A7903EB022282808B79CA7903EB08
:105810000222C28070470246002011B1C2F8141261
:1058200000E00220704701460020704770B5044632
:105830000D46A888F8B9E888E8B9A87800F07F068E
:1058400094F8FC01032804D129462046FFF7B7FB52
:1058500015E084F8FE6131462046FFF75BFF2046E5
:10586000FFF7EBFB1EB1022084F8FC0107E00120EA
:1058700084F8FC0103E029462046FFF7A0FB70BD39
:1058800070B504460D460226D4F8140238B1D4F897
:105890001402294602682046904700B90026304687
:1058A00070BD000070B504460D46A87834490870F4
:1058B00008460078012804DD29462046FFF77FFBD3
:1058C0005BE094F8FC01022802D003284FD11CE0D1
:1058D0002B480078A8B12A4800786060032084F83B
:1058E000FC01274801782046FFF7CAFF022804D1AF
:1058F00029462046FFF763FB70BD2046FFF79DFB5E
:1059000002E02046FFF799FB36E01D48007870B9A9
:10591000022084F8FC011A48007860601848017879
:105920002046FFF707FB2046FFF787FB1EE01449E0
:1059300009786068884216D021792046FFF7FAFA84
:105940000F48007860600E4801782046FFF798FF06
:10595000022804D129462046FFF731FBCCE7204638
:10596000FFF76BFB02E02046FFF767FB04E02946E8
:105970002046FFF724FB00BF00BF00BFBCE70000CC
:105980009401002070B504460D46688801280AD1AC
:10599000C4F80402D4F814022946826820469047CD
:1059A0002046FFF74AFB70BD10B504462046FFF7BE
:1059B000FCFE002010BD70B505460C460026607840
:1059C0000A2829D2DFE800F01923281E280A052812
:1059D000140F21462846FFF7FDFB22E0214628460A
:1059E000FFF724FF1DE021462846FFF75BFF18E084
:1059F00021462846FFF7C6FB13E021462846FFF75D
:105A000097FC0EE021462846FFF7BCFF09E021463F
:105A10002846FFF79AFA04E021462846FFF7CFFA16
:105A200000BF00BF304670BD2DE9F04105460E466F
:105A30004FF000083479307800F06000202808D159
:105A4000D5F8140231468268284690470020BDE808
:105A5000F0817078002855D001282AD003287AD107
:105A600095F8FC01022802D003281BD107E02CB1D5
:105A7000802C03D021462846FFF78DFE17E0708862
:105A800030B92CB1802C03D021462846FFF783FE85
:105A9000D5F8140231468268284690472846FFF719
:105AA000CCFA04E031462846FFF789FA00BF00BF70
:105AB00062E095F8FC01022802D003281BD107E020
:105AC0002CB1802C03D021462846FFF764FE17E056
:105AD000708878B904F07F0048B121462846FFF766
