:020000040800F2
:10000000600E0020D5000008DD000008DF000008B9
:1000100000000000000000000000000000000000E0
:10002000000000000000000000000000E1000008E7
:100030000000000000000000E3000008F5230008B5
:10004000E7000008E7000008E5230008E7000008D3
:10005000E7000008E7000008E7000008E7000008E4
:10006000E7000008E7000008E7000008E7000008D4
:10007000E7000008E700000800000000E7000008B3
:1000800000000000E7000008000000000000000081
:10009000E700000800000000E7000008E700000893
:1000A000E7000008E7000008E7000008E700000894
:1000B000E7000008E700000800000000C130000869
:1000C0000348854600F02AF8004800470931000837
:1000D000600E00200448804704480047FEE7FEE722
:1000E000FEE7FEE7FEE7FEE799240008C1000008EE
:1000F00030B50B46014600202022012409E00D46C0
:10010000D5409D4205D31D469540491B2546954047
:1001100040191546521E002DF1DC30BD064C01255C
:10012000064E05E0E36807CC2B430C3C984710349F
:10013000B442F7D3FFF7C8FFEC3100080C320008D7
:1001400010B50446FF30FF30023080690122920270
:1001500082181378022B07D0032B05D0052B03D070
:10016000062B01D0092B0AD10220107000235370F6
:100170009370D3701371507193719360D36007487B
:10018000407DC00606D5204602F086FF204602F0DC
:1001900075FE10BD488800F097F910BD980000204A
:1001A00070B54322D20043231458DB0001221B58B0
:1001B0009202CD889B181A78002D11D0022A01D006
:1001C000052A0AD14A889A60CA880321DA60197020
:1001D0005971214602F0ACF970BD02F09FF970BD73
:1001E000052A01D0022AF8D10120D8710621197000
:1001F00000209870D8701871597170BD70B5C21D0B
:10020000FF320546FA3201209469800221180B78EA
:1002100000201F4E032B02D0062B33D11DE0CB68EC
:10022000002B18D004230B708870C87008714B71B4
:100230008868002802D12078412806D00869D16951
:10024000A2198B69012198471CE00869D169A2199C
:100250008B690021F7E705220FE0CA79012A02D055
:10026000002A05D00EE007220A7001238B7006E0F9
:10027000084A127D520705D502220A708870C8709C
:1002800008714A710622A119284602F06DF970BD65
:10029000010400009800002010B5C41DFF34FA349A
:1002A0000123A1699B02C9180022104BCA711B7D52
:1002B0005B0706D5062008708A70CA700A714871FB
:1002C00010BD08230B708A70CA700A714B7102F05E
:1002D000E3FEE06980688047BFF34F8F054904481B
:1002E000C860BFF34F8F00BFFDE7000098000020FB
:1002F0000400FA0500ED00E0F8B5C71DFF370E4613
:10030000FA370123B9690546F2889B020020CC1810
:10031000002A40D02278022A04D0092A02D0E060C4
:10032000A06033E07388A360F288E260002B16D0EF
:10033000012B25D909262670A070E0702071980243
:10034000184B6671C0182369C018FB695B69984730
:100350000146A08982B2284602F006F9F8BD032AB8
:1003600001D9022200E009222270A070E070207101
:100370006271087021204870412088700322EAE7EA
:100380000F212170A070E070207161713146284604
:1003900002F0C4F8F8BD02212170A070E070207155
:1003A0006171F8BD00F8FFFF10B5074900224A61EE
:1003B00006494B684C1523434B604B680824234384
:1003C0004B60026010BD0000C00000200020024011
:1003D0001A498869C2051A4803D5426908231A4395
:1003E00042618A69920503D5426904231A43426136
:1003F0008A69520503D5426902231A4342618A6918
:10040000120503D5426910231A4342618A69920496
:1004100003D5426901231A4342618A69920303D5D5
:10042000426920231A4342618A69D20303D5426993
:1004300040231A434261034888617047002002400C
:10044000C0000020002F030070B5054600F092F9AF
:1004500006461C4C0AE0681C08D0002D04D000F0B1
:1004600089F9801BA84201D9032070BDA069C0434F
:10047000C007F0D0A069800701D50220A061A06963
:10048000C043C00517D5A069C043800513D5A06936
:10049000C04340050FD5A069C04300050BD5A06936
:1004A000C043800407D5A069C043800303D5A06979
:1004B000C043C00303D4FFF78BFF012070BD0020B1
:1004C00070BD00000020024031B500F053F9044631
:1004D00000F050F90099001B8842F9D338BD0000A4
:1004E000F8B51A4D0646287C0F46012807D0012092
:1004F00028741748FFF7A8FF010002D022E002206D
:10050000F8BD00206861401E3860746814E0204621
:10051000FFF74AFF0E48FFF797FF01460D48426874
:1005200008239A434260426843159A434260002977
:1005300001D03C6006E08034B0687268C001801869
:10054000A042E4D8002028740846F8BDC00000206E
:1005500050C30000002002400348416802221143BA
:10056000416000207047000000200240F8B50C4CAC
:100570001546207C0F46012808D001202074094828
:10058000FFF762FF0026002802D006E00220F8BD37
:1005900066613D600348FFF757FF2674F8BD000011
:1005A000C000002050C300000948416889070CD5ED
:1005B0004168C90703D00749C1600749C1600749BD
:1005C0000161074901610020704701207047000068
:1005D00000200240EFCDAB8905040302BFAE9D8C25
:1005E00016151413F8B500230124A2E027469F40F6
:1005F0003A4070D04D68022D01D0122D14D1DD0883
:10060000AD002D1800952D6A5E07AC46F50E0F263D
:10061000AE46AE406546B543AC460E697546AE4043
:1006200065462E43009D2E624D68012D05D0022D9A
:1006300003D0112D01D0122D16D185680326AC46AA
:100640005D00AE46AE406546B543AC46CE687546E5
:10065000AE4065462E43866046680D79BE43ED0682
:10066000ED0F9D403543456006685F000325BD40A2
:10067000AE46AE430D79B446AE07B60FBE406546F2
:100680002E430660C6687546AE438D68BD4035434F
:10069000C5604D68ED004BD5294D6E6B26436E63EA
:1006A0009E08284DB6007519AC46AD689E07360FFA
:1006B0000F27B740BD4305273F07B84201D10027A8
:1006C00015E0214FB84201D1012710E01F4FB84279
:1006D00002D102270BE02BE01D4FB84201D10327C6
:1006E00005E01C4FB84201D1052700E00627B740BE
:1006F0002F436546AF60184D2E684F689643FF0341
:1007000000D516432E606E684F689643BF0300D530
:1007100016436E60AE684F689643FF0200D51643DD
:10072000AE60EE684F689643BF0200D51643EE6098
:100730005B1C0A681546DD4000D057E7F8BD000095
:10074000001002400000014000040050000800506A
:10075000000C0050001C00500004014000690840DB
:1007600000D001207047002A01D08161704781626A
:10077000704700000148006870470000000000203A
:1007800002480168491C0160704700000000002019
:1007900010B506480168402211430160002000F0B6
:1007A00007F800F017F8002010BD000000200240FC
:1007B00010B5044600F092FE7D21C900FFF798FCB9
:1007C00001F0F6FA00222146501E00F01BF800202E
:1007D00010BD000010B50548416B01221143416373
:1007E00000221146501E00F00DF810BD001002400E
:1007F000C106C90E01208840014908607047000009
:1008000000E100E010B501F0DBFB10BD10B50C06F7
:1008100006D54906490E1C2461430818283004E017
:100820001C2461430818FF30093099B2002A06D011
:1008300001228272C180190C0181002010BD0022AA
:1008400082728180F9E71C224A43121810B5FF30EA
:10085000FF300230926BC06902F023F910BD1C22F8
:100860004A43121810B5FF30FF32FF300132023018
:100870009269C06902F070F910BD0000F0B54B0636
:10088000CA095B0E002A04D01C225A4312182832CF
:1008900004E01C224A431218FF32093200249470EB
:1008A00013700346C909FF335170E133197A0129E6
:1008B0001DD00121197251781B4E00291B4C117853
:1008C000056816D089006F5A7F0605D56F5A3740E4
:1008D000164E403637436F52117800688A00815AAD
:1008E000114D3035294010256940202515E00220A2
:1008F000F0BD89006F5A7F0404D56F5A37400C4E03
:1009000037436F52117800688A00815A084DF13DD3
:10091000294001252D0369406D0069402143815222
:1009200000201872F0BD00008F8F00008080000052
:1009300080C00000F0B54D066D0E2E461C246543A8
:10094000CF092C18002F01D0283401E0FF340934DE
:100950002670C90961700146FF31E260E131E37040
:100960008C46097A01290DD0012261460A72E2788B
:100970009A49002A08D0012A1FD0022A0ED0032A41
:1009800024D112E00220F0BD237802689D00535B61
:100990000B40FF33FF330233535317E022780368D1
:1009A00092009D5A0D409D5210E0237802689B00F2
:1009B000D55A0D400321490206E0237802689B00C6
:1009C000D55A0D40012189026918D1522378066851
:1009D0009D00725B82490A4082490A431A4372535E
:1009E000A27A002A59D02278076895007B5B7C4A5E
:1009F0007D4E134033437B53E38850265D080368E4
:100A00006D00F65AF6182378DF0001239B02FB18CD
:100A1000F552238950265D0803686D00F65AF618D2
:100A20002378DF004B11FB18F55263780768002B21
:100A300023787BD09B00FD5A6D0404D5FD5A6B4E84
:100A400015403543FD52237807689B00FD5A6D061B
:100A500005D5FD5A634E154040363543FD52257885
:100A60000368AD005E5B1640604A16435E53227811
:100A7000036895005A5B5A4E303632400A435A5347
:100A8000026820788300D05A584CF13C204008433B
:100A9000D052002061460872F0BD6278002AA28818
:100AA00021D0530802685025AD5A5B00AD1822785A
:100AB000D60001229202B218AB522278036892004B
:100AC0009D5A6D0606D59D5A454E3540454E4036D9
:100AD00035439D52026820788300D05A404C303410
:100AE0002040202442E0530802685025AD5A5B00A4
:100AF000AD182278D6003E4AB218AB520268502395
:100B00009B5A3B4D9A182378AD1CDB005B19D51816
:100B1000E2683E2A0BD9D3021B0CD20601D15B1E20
:100B20009BB29A020123DB031A4307E020E0D303C0
:100B30001B0CD20701D05B1C9BB29A022A80227840
:100B4000036892009D5A6D0405D59D5A244E354088
:100B5000264E35439D52026820788300D05A234C9C
:100B6000F13C2040012424036040640060408EE793
:100B70009B00FD5A6D0404D5FD5A1C4E15403543AB
:100B8000FD52237807689B00FD5A6D0605D5FD5A76
:100B9000144E154040363543FD5225780368AD00AC
:100BA0005E5B16400F4A403216435E53227803685C
:100BB00095005A5B0D4EF13E3240012636037240DD
:100BC000760072400A435A53036820788200985A8C
:100BD000034C30342040084398525AE78F89000074
:100BE0008F8F0000808000008081000080C00000A6
:100BF00004040000F0B54906490E1C244C43241897
:100C0000FF340934636122610022A26103466270ED
:100C1000FF332170E133197A012908D001211972BB
:100C20006569E1688D4204D96D1A656103E00220AF
:100C3000F0BD29466261A57A002D05D06578002DAA
:100C400019D0012D37D059E005685026765B76190A
:100C50002578EF00324D7D1976193E293ED9CD0217
:100C60002D0CC90637D0A9020125ED03294300E068
:100C7000A902318042E005685026765B7619257816
:100C8000EF00274D2D1F7D1976193E290AD9CD0277
:100C90002D0CCF0601D16D1EADB2AD020127FF03B1
:100CA0003D4306E0CD032D0CCF0701D06D1CADB246
:100CB000AD02358009E005685026765B7619257807
:100CC000EF00174D2D1F7D1971536578002DBBD096
:100CD000012D0AD012E06D1EADB2C4E7CD032D0C7C
:100CE000C907C5D06D1CADB2C2E705685026765B5A
:100CF00076192578EF000A4D7D1971532178006827
:100D00008C00015B074D294001252D0369406D00D2
:100D10006940054D294301531A720020F0BD0000BF
:100D2000060400008FBF000080800000F0B502467E
:100D3000FF32E132137A012B0BD001244F06CB098D
:100D40007F0E1472002B06D01C237B431B18283304
:100D500006E00220F0BD1C234B431B18FF33093370
:100D60009C701F70CE095E70012424031025114B66
:100D7000002F0BD04906C90D002E10D00468605A10
:100D80000D4E304068401843605210E00068018802
:100D90000A4E3140614069401943018007E005680F
:100DA000685A064E303E304060401843685200207A
:100DB0001072F0BD80800000BF8F0000BFBF000038
:100DC000F0B506464806400E1C2141438C19E363EA
:100DD0000021A26321640121283437466170FF3766
:100DE0002070E137387A012806D03972E5686069E9
:100DF000A84203D9401B03E00220F0BD05460020B5
:100E00006061A07A002807D060780121C90300281A
:100E100012D001282DD061E0ABB2A28821693068E0
:100E200001F09DFA30685021095A09182078C20053
:100E3000454810180D5274E030685022125A1218AA
:100E40002078C3004048181812183E2D08D9E8022F
:100E5000000CEB0601D1401E80B28002084306E080
:100E6000E803000CEB0701D0401C80B28002108028
:100E700008E030685022125A12182078C300324815
:100E800018181552304A6078121D002802D0012827
:100E90001CD023E0306850231B5A18182378DB003D
:100EA0009A1882183E2D08D9E802000CEB0601D1F1
:100EB000401E80B28002084306E0E803000CE90708
:100EC00001D0401C80B28002108007E030685021C1
:100ED000095A08182178C9008918455221783068C4
:100EE0008900415A490601D5228900E0E288ABB267
:100EF000216901F034FA60781449002802D00128F1
:100F000007D00EE0207832688000135A0B40104959
:100F100005E0207832688000135A0B400D490B43DE
:100F20001352207831688200885A084B30331840B9
:100F30001023584020235840054B403B184388520B
:100F400000203872F0BD0000020400008F8F000006
:100F5000C080000080C0000070B5044600684030CA
:100F60008088C00B02D0204601F04CF82068403049
:100F7000818849050AD58188334A114081802046FD
:100F800000F0D6F80021204600F0FCF82068403040
:100F90008188490403D581882C4A114081802068CA
:100FA00040308188890403D58188294A1140818095
:100FB0002068403081880425C904002910DA01889E
:100FC000A9430180BD2021680002403108802046ED
:100FD00000F0BAF82068403081881E4A11408180B4
:100FE000206840308188090517D581881A4A114048
:100FF00081802068403001880822114301802068E8
:101000004030018829430180206840308088C043F7
:10101000C00402D5204600F0F7F8206840308188EF
:10102000890506D581880D4A11408180204600F04F
:10103000A1F8206840308188C90503D58188084A15
:101040001140818070BD0000FFFB0000FFBF000069
:10105000FFDF0000FFEF0000FFF70000FFFD0000D2
:10106000FFFE0000F8B500270446002807D02646FA
:10107000FF36E136707A0025002802D005E0012015
:10108000F8BD3572204600F03BF803207072012154
:101090000BE01C2078430219104620304172077281
:1010A000C572556395637F1CD5636068B842F0D8FC
:1010B00000200BE01C2242431219FF32013255720C
:1010C0001072D57255619561401CD561626882428B
:1010D000F0D82068403001802068403005802068CA
:1010E00040308580206840300582BD2022680002A3
:1010F000403210802034257171720020F8BD00004C
:1011000010B50068084988420DD10848816B01225A
:10111000D20511438163002211461F20FFF772FBA5
:101120001F20FFF765FB10BD005C0040001002406F
:1011300010B5C41DFF34FA340121E06901F0D1FD7E
:10114000E06901F096FD10BD10B5044680690028E5
:1011500006D00748016906229143016101F050F968
:10116000FF34FF340234E06901F0A6FD10BD000039
:1011700000ED00E0FF3010B5FF300230C06901F033
:10118000A1FD10BD0246FF32E132137A012B08D0D7
:1011900001231372002906D0203001710020107243
:1011A0007047022070470068802140308181F5E758
:1011B00010B5872189000A580146FF31ED311046EC
:1011C00001F09BFD10BD00684030018B0122D2036D
:1011D00011430183002070470146FF31E1310A7A53
:1011E000012A0FD001220A72036840331A80036873
:1011F000002240339A8000680323403003800A7243
:10120000104670470220704710B50446FF30FF308B
:101210000230C06901F0BBFDA069002804D003487A
:10122000016906221143016110BD000000ED00E0DC
:10123000F8B504460078534D800660D5514E403EC7
:101240003168032760693F05024639403A409142C0
:1012500008D08003800F032804D13068800301D5B3
:101260000120F8BDB06B012109070843B06346486F
:101270000168821511430160FFF77CFA009005E0D8
:10128000FFF778FA0099401A642823D83E4800688E
:10129000C005F5D5286903210904626908400A40A0
:1012A00090422CD028692A6988430121C9040A4345
:1012B0002A612A698A432A61286180050FD5FFF7D0
:1012C00059FA009008E0FFF755FA0099411A2F48A3
:1012D000814201D90320F8BD28698005F3D56069F2
:1012E0008103890F032946D03068B84330602969EB
:1012F0000320000462698143024011432961207880
:10130000C00705D0E8686168800880000843E8608D
:101310002078800705D5E8680C218843A168084338
:10132000E8602078400706D5E868032189028843F1
:10133000E1680843E8602078000706D5E8680321E3
:101340000903884321690843E8602078400606D5F0
:10135000E868012189068843A1690843E86020788C
:10136000000606D5E868032189048843E16908433B
:10137000E8600020F8BD31683840B943014331606E
:10138000B5E70000401002400070004088130000E4
:10139000F8B505464E480E460068C007C00FB0427B
:1013A0000AD24B480168490849003143016000688E
:1013B000C007C00FB0426FD12878464C800705D5D2
:1013C000E068F0218843A9680843E0602878C007F6
:1013D00052D06868022817D0002818D02168032846
:1013E00018D04907002957DAE168890889000143C4
:1013F000E160FFF7BFF969680746022912D00329A7
:101400001CD0002926D032E021688903EAE7216850
:101410008905E7E78901E5E7FFF7ACF9C11B2E482D
:10142000814222D8E0680007800F0228F4D123E02F
:10143000FFF7A0F9C11B2848814216D8E0680007D1
:10144000800F0328F4D117E0FFF794F9C11B22485D
:1014500081420AD8E0680007800FF5D10CE0FFF761
:1014600089F9C11B1C48814201D90320F8BDE068FD
:101470000007800F0128F2D115480168C907C90F7C
:10148000B1420BD30168490849003143016000684B
:10149000C007C00FB04201D00120F8BD2878400736
:1014A00006D5E068072109028843E9680843E0603F
:1014B0002878000707D5E0680721C9028843296911
:1014C000C9000843E0600020FFF772F90020F8BD72
:1014D00000200240001002408813000010B500F008
:1014E00011F80549C968054A0906090F515CC84049
:1014F0000349086010BD0000001002409831000848
:101500005800002010B51A4A5068D3680004410FF3
:101510000C200340174805D0042B06D0082B0BD015
:101520000C2B0BD0491C884010BD1068C00601D59B
:10153000114810BD114810BD114810BDD068D168C8
:101540008002104B000F185C0902D368890F012438
:101550002404491C234204D11268D20603D5064A4A
:1015600002E0074A00E0054A5043FEF7C1FD10BD06
:10157000001002400080000000093D000024F4003B
:1015800000127A00B8310008FEB504460078FA4D22
:10159000C0074DD0E8680007800F022807D0E86830
:1015A0000007800F032809D1E868C00306D5286822
:1015B00080033DD56068002875D039E0012062685D
:1015C0000004824203D129680143296014E0052305
:1015D00001211B0489049A422A6805D182432A60AA
:1015E0002A680A432A60EEE782432A602A6802409A
:1015F0000092286888432860606800280CD0FFF7B4
:10160000B9F8064604E0FFF7B5F8801B64287DD8DA
:1016100028688003F7D50BE0FFF7ACF8064604E036
:10162000FFF7A8F8801B6428F1D828688003F7D456
:101630002078800740D5E8681F270007800F3F0209
:10164000012807D0E8680007800F032809D1E8685F
:10165000C00306D42868400717D5E068012822D1C6
:1016600013E0E1680920002916D02A6882430A4362
:101670002A60FFF77FF8064604E0FFF77BF8801B3F
:101680000228C4D828684007F7D568682169B8439C
:101690000902084368600FE0296881432960FFF769
:1016A00069F8064605E096E0FFF764F8801B02281B
:1016B000ADD828684007F7D42078B04FC0064BD586
:1016C000E8680007800F09D0E0690028286835D055
:1016D00038432860FFF74EF806461DE0286880056D
:1016E00002D5E069002876D068680721490388435D
:1016F000616A084368606868218C0002000A090674
:10170000084368600020FFF753F825E0D9E0FFF7B1
:1017100031F8801B022887D828688005F7D56868CB
:10172000072149038843616A084368606868218C1F
:101730000002000A0906084368600DE0B84328600B
:10174000FFF718F8064604E0FFF714F8801B02289C
:1017500097D828688005F7D42078894E000724D5CB
:1017600060690028306910D0012108433061FFF71B
:1017700001F8009005E0FEF7FDFF0099401A0228ED
:1017800096D830698007F6D50FE0400840003061F8
:10179000FEF7F0FF009005E0FEF7ECFF0099401A1D
:1017A000022885D830698007F6D42078800633D5A2
:1017B000A069744A002819D0A96801200143A960D2
:1017C000696B01436963106A6F4908431062FEF751
:1017D000D1FF009006E0E9E0FEF7CCFF0099401A47
:1017E00002286ED8A8688007F6D515E0A8684008DA
:1017F0004000A860106A6449C94308401062FEF7BF
:10180000B9FF009005E0FEF7B5FF0099401A0228E5
:1018100057D8A8688007F6D4207840076FD50020F5
:1018200002900190A86BC00006D4A86B01210907A3
:101830000843A8630120029054480068C00513D4EF
:10184000524801683943016001200190FEF792FF80
:10185000009005E0FEF78EFF0099401A642830D80A
:101860004A480068C005F5D5A068B84202D1306981
:1018700038430CE001218902002803D0052212021E
:1018800090420CD03069B843306130698843306190
:10189000A068002816D0FEF76DFF00900DE03069BB
:1018A000B8433061306908433061E0E7FEF762FF1A
:1018B0000099411A3648814271D830698005F5D5C2
:1018C0000EE06CE0FEF756FF009006E0FEF752FFD8
:1018D0000099411A2E48814261D830698005F5D4BB
:1018E0000198002803D029480168B9430160029893
:1018F000002804D0A96B012000078143A963A06AD6
:10190000002851D0E9680907890F03294ED0012624
:1019100036060228286805D0B0432860FEF72AFF63
:1019200004463EE0B0432860FEF724FF074604E08B
:10193000FEF720FFC01B022831D828688001F7D4A9
:10194000616B206BEA680843E16AFD231B049A433C
:1019500011430843E860286830432860FEF70AFF17
:10196000044604E0FEF706FF001B022817D828688B
:101970008001F7D518E000000010024000010000CF
:1019800040100240000001400120000000700040B3
:1019900088130000FEF7EEFE001B022801D9032089
:1019A000FEBD28688001F5D40020FEBD0120FEBDEB
:1019B000F7B5054604462035287882B0012814D0B2
:1019C00001202870022068702168CA2048622168BE
:1019D000532048622068806800264005FF270028C1
:1019E00012DAFEF7C7FE00900AE0022005B0F0BD53
:1019F000FEF7C0FE0099411A7D20C000814215D833
:101A00002068C0684007F3D42068816801229202F0
:101A100091438160FEF7AEFE00900DE0FEF7AAFE56
:101A20000099411A7D20C000814205D92068476293
:101A3000032068702E70D9E72068C0684007EDD594
:101A400021680398486120688168C908C9008160DD
:101A500020688168049A114381600D480268012161
:101A600009050A43026082680A438260206881682F
:101A70000122920311438160206881681211114391
:101A8000816020684762012068702E700020ADE7F9
:101A9000000401407047000010B504460068C068AB
:101AA000400509D52046FFF7F5FF2068C168802270
:101AB0001140054A8918C1600120044900054861A8
:101AC00001202034607010BD7FFBFFFF0004014047
:101AD00070B5040005D0254620356878002802D06E
:101AE00006E0012070BD00202870204600F042F87A
:101AF000022068702168CA20486221685320486229
:101B0000204600F052FCFF210028206803D04162EB
:101B100004206870E5E78268154B1A4082602268ED
:101B200090686368A669184323693343184390603B
:101B30002268E06810612068026923891B041A4347
:101B400002612068C26880239A43C2602068C26C28
:101B500092089200C264E269606902432068C36C23
:101B60001A43C2642068416201206870002070BD81
:101B7000BFFF8FFF10B50068084988420DD10848A3
:101B800001690122920411430161002211460220E1
:101B9000FEF738FE0220FEF72BFE10BD00280040A5
:101BA00040100240F8B505460446203528780B461B
:101BB000012815D001202870022068705878002A6A
:101BC00010D000F0DFFB987800F0DCFBD8789E782E
:101BD000000406435878197800024903084316E0C8
:101BE0000220F8BDC10603D5EF2108400A30587025
:101BF000D87800F0CFFB0604587800F0CBFB000249
:101C00000643987800F0C6FB064318784003064365
:101C10002168CA204862216853204862204600F0AB
:101C2000C4FB0027002811D11048064020684660F8
:101C30002068C16880229143C16020688068800666
:101C40000CD4204600F08CF8002807D02168FF2033
:101C50004862042068702F700120F8BD2168FF20C1
:101C60004862012068702F700020F8BD3FFFFF0020
:101C7000F8B506460446203630780D4601280ED0C9
:101C80000120307002207070206800278068002AD0
:101C900007D040061AD5287800F074FB17E0022020
:101CA000F8BD400600D4EF70287800F073FB020402
:101CB000687800F06FFB00020243A87800F06AFB2E
:101CC0000243E8780004024300920BE0EF702978A9
:101CD000A878090408436978EA78090212041143D4
:101CE000084300902168CA20486221685320486256
:101CF000204600F05AFB00281FD1184900980840E0
:101D00002168086020688168012292049143816003
:101D10002969E868084321688A6810438860206858
:101D2000C16880229143C1602068806880060CD41D
:101D3000204600F015F8002807D02168FF204862EF
:101D40000420707037700120F8BD2168FF204862C0
:101D50000120707037700020F8BD00007F7F7F0089
:101D600070B504460068C168A0229143C160FEF7C7
:101D700001FD7D260546F60006E0FEF7FBFC401B54
:101D8000B04201D9032070BD2068C0688006F4D538
:101D9000002070BD042204490428086902D0904341
:101DA000086170471043FBE700E000E07047000067
:101DB000094910B5401E884201D9012010BD074CC9
:101DC00060610321081F00F0FBF80020A0610720DC
:101DD0002061002010BD0000FFFFFF0000E000E0D8
:101DE00010B5FFF7E3FF10BD002070471FB5044694
:101DF000012001F0C1F9FEF7D7FB002180200194FA
:101E0000009102900C46039103A96846FEF768FB17
:101E1000002800D00224FEF79FFB002001F0ACF95F
:101E2000204604B010BD002070470020704770B5F8
:101E3000064615460C46012001F09EF9002302E0FB
:101E4000F058E0501B1DAB42FAD3002001F094F98A
:101E5000204670BDF7B516460F46012001F094F9F3
:101E6000FEF7A2FB012001F087F900252C4609E0CE
:101E70000098391902590220FEF778FB002800D09B
:101E80000225241DB44201D2002DF1D0FEF764FBDF
:101E9000002001F079F9002001F06EF92846FEBD1E
:101EA000F0B51D4887B0C16A01252943C162C16AE6
:101EB00029400591C26A02210A43C262C06A002415
:101EC00008400590FF20043005273F07009001944B
:101ED000694602943846FEF785FB104E0294694627
:101EE0003846009601950394FEF77CFB0294039418
:101EF00038200B4C0090694601952046FEF772FB96
:101F0000002231463846FEF72EFC002238212046BA
:101F1000FEF729FC07B0F0BD001002406C80000005
:101F20000004005010B51649164886B0002412C0AF
:101F30007F2101608460C4600461FF2144614160CD
:101F40000838FFF7C5FD6846047044708470039438
:101F5000012269460B480494FFF78AFE0121684676
:101F6000017541758175C4750A4605A90548FFF7D5
:101F700019FE022204490348FFF71AFD06B010BDFE
:101F800000280040380B00201112000010B500227C
:101F90000749084800F063FD0749064800F01CFFA8
:101FA0000649044800F0CEFB024800F067FF10BD70
:101FB00024000020140700205C00002008000020FE
:101FC0008307FF22DB0E9A408907090E99400028FB
:101FD0000BDA0007000F0838830808489B00181820
:101FE000C36993430B43C3617047830804489B0054
:101FF0001B181868904308431860704700ED00E014
:1020000000E400E0F0B585B0044600206946888011
:1020100020462030029079E199890F073F0F24D0A4
:10202000BE00815B9980998809046FD5815BBF4AA6
:10203000114081531C2078430519FF350935A87AD2
:10204000002820687DD029788A00825A520479D5E8
:102050005022125ACB00B64912185918515A890504
:10206000890D00916FD0EA88C0E09989C9062AD409
:102070000188B04A1140018020685021095A254644
:10208000283509182878C200A9481018085A800570
:10209000800D2064A16B0818A06300212046FEF784
:1020A000D2FB029800790028B5D068690028B2D127
:1020B0000298007980210843216840318881029884
:1020C0000021017122E12546FF3503880935694663
:1020D0008B80898809051AD5118A09182878C200C9
:1020E0009348001D1018085A294683059B0DAB61C3
:1020F000AA88E431206800F023F9206801888B4A1F
:10210000114001802046FFF753F8FFE095E0694653
:1021100089880904D6D50188844A11400180206845
:102120005021095A824E08182978361DC90089198C
:10213000405A83059B0DAB610CD0AA8829692068A1
:1021400002E033E045E055E000F0FAF8A9692869BB
:102150004018286100212046FEF781FB20685021AD
:10216000095A08188119E8683E280AD9C202120CD7
:10217000C00601D1521E92B290020122D203104336
:1021800006E0C203120CC00701D0521C92B29002AA
:10219000088021680888684A1040012212035040D4
:1021A00052005040654A10430880AFE05021095A60
:1021B0000A182978CB005E49091D5918515A89051A
:1021C000890D009121D0AA882969009B00F0B8F8F8
:1021D0001BE05022CB00125A55491218091D5918FC
:1021E000515A8905890D009104D02A892969009BDB
:1021F00000F0A6F8287821688200885A4D4B803379
:1022000018404E4B403318438852A969009808186B
:10221000A861296900980A182A616B69002B03D00C
:10222000E9680098814204D929782046FEF717FB17
:1022300003E029782046FEF7DDFC6846808800062A
:1022400064D51C20474320683D19825B39490A4008
:1022500082532835A87A002812D028782168820075
:102260008A5A52061FD55022525A5118C20030487D
:102270001018085A83059B0DAB6125D0EA881FE032
:1022800020685021095A09182878C20028481018D7
:10229000085A83059B0DAB6121D0AA882969206863
:1022A00000F05DF81BE05022525A5218C10020483D
:1022B000001D0818105A83059B0DAB6104D02A89B4
:1022C0002969206800F04BF8297820688900425A73
:1022D000184B80331A40184BF1331A43425220688E
:1022E00002464030018A88182978114AC9008918A5
:1022F000405A8005800DA86129690A182A616B6916
:102300002978002B20460DD0FEF75AFD20680246A2
:10231000403291886B469981090400D57CE6002003
:1023200005B0F0BDFEF78FFAF0E700008F0F000058
:10233000020400000F8F00008FBF000080800000AB
:10234000101801225B1C92025B088018002B05D03C
:1023500002880A80801C891C5B1EF9D17047101806
:1023600001225B1C920210B55B088018002B08D07C
:102370004A780C78120222430280801C891C5B1E62
:10238000F6D110BD01090A2200075143000F401881
:10239000C0B27047002102E00A38C0B2491C0A28C6
:1023A000FAD20907090E0843704770B50446006861
:1023B000C168490613D40021C943C160FEF7DAF9A8
:1023C0007D260546F60006E0FEF7D4F9401BB04234
:1023D00001D9032070BD2068C0684006F4D50020F4
:1023E00070BD000010B50248FFF756FB10BD00009D
:1023F000380B002010B5FEF7C3F9FFF7F1FC10BD54
:1024000010B523489CB0816B0204114381632148BD
:1024100001680322D2029143C214891801602A2064
:102420000090012006900390059002200A9000245D
:10243000400510210D9004910B940C946846FFF711
:10244000A3F80F200E9003200F90109411940121F7
:1024500012940EA8FEF79CFF602013900120400408
:1024600018904002199013A8FEF7E2FEFFF736F825
:102470007D21C900FDF73CFEFFF79AFC0420FFF721
:1024800089FC00221146501EFEF7BCF91CB010BD9D
:10249000001002400070004010480168821511438E
:1024A0000160C1680E4A1140C16001680D4A1140C7
:1024B0000160816849084900816001680122920435
:1024C00091430160C168FD2212049143C160002163
:1024D00001610549C0038860704700000010024098
:1024E0000C40FF88F6FFF6FE00ED00E010B58522F7
:1024F0009200125852689047002010BD134610B544
:102500000A46002100F0ACFB002010BD134610B5B8
:102510000A46002100F043FC002010BD10B504461F
:10252000802100F019FC0021204600F015FC10BDB0
:1025300010B5FF230324F5331C50C31DF9339A60F3
:10254000DA6013460A46002100F08AFB002010BD25
:1025500010B5FF210522F5310A5000231A4619460D
:1025600000F07EFB002010BD10B5FF230224F533E0
:102570001C5082611346C2610A46002100F00FFC24
:10258000002010BD10B5FF210422F5310A500023B0
:102590001A46194600F003FC002010BD00207047C9
:1025A0000020704770B5C41DFF34FA340121A069C2
:1025B00089024018002585600221C56001704570C0
:1025C0004171A069002806D0E06980688047A06951
:1025D00000F071FDA561002070BD00207047000073
:1025E0007CB5C31DFF330246FA3301219869890285
:1025F00044182178042902D0072952D054E0A16858
:10260000002500290ED0012933D9284A89028918CA
:102610002269DB6989181B69E2689847002828D07D
:1026200002207CBD0178002904D0212906D041294F
:1026300013D015E0E06801281BD011E0E1680529FE
:102640000ED18278417812028918C278007912047A
:1026500089180006081820610BE0E168052911D0EF
:102660006846E56005700121C18069461046FFF7A4
:1026700055FFE5600320A5602070A570E570257109
:10268000607111E08278417812028918C27800796D
:1026900012048918000608182061D969C96888479A
:1026A000BCE71046FDF7F8FD00207CBD00F8FFFFF9
:1026B0001B21018000487047980000200A210180FA
:1026C00000487047B400002010B5062909D8FF3033
:1026D000FF300230C0690449006800F09EF90248EA
:1026E00010BD002010BD00005C0B002010B504469A
:1026F0008320C00000F0E0FCFF34FF340234A0610E
:10270000002816D001210022890241184A618A60FE
:102710000948CA600861CA71022008704A708A704C
:10272000CA700A7148718A71E06940688047002860
:1027300000D0022010BD00000040000800207047BB
:1027400000207047002903D0FF30FF300230C16104
:102750000020704700207047F8B54323DB001C5869
:1027600000270B7860263340374E3A463D4643D02B
:10277000202B62D14F7800223B0000F0A9FC073AE1
:1027800005080B0E20235B00FDF70AFD55E0FDF761
:10279000B3FD52E0FDF732FD4FE0A01901780A29A0
:1027A00009D00A2101700E2343708270C270027139
:1027B0004171827141E0022101704270F5E701220E
:1027C000A1192BE0A0190178022907D0032905D00F
:1027D000052903D0062901D009292ED10221017033
:1027E00042708270C2700271417182718260C260F7
:1027F00023E0FDF7A5FC20E04B78062B04D00A2B44
:102800000FD00B2B16D111E04B881B0A212B04D1C2
:10281000CA880E4F092A00D909223946FFF7A4FEBB
:102820000BE00949012214316118F7E74A881306C1
:102830001B0E04D0FFF772FE02252846F8BDD0B269
:10284000A1194861F9E7000000040000AA00002077
:1028500010B50A46024903A000F0DFF8004810BD99
:102860003809002044465520436F6E6669670000B2
:1028700012200880004870474400002010B50A4626
:10288000024903A000F0C9F8004810BD3809002033
:1028900044465520496E74657266616365000000A8
:1028A00004200880004870474000002010B50A4608
:1028B000024903A000F0B1F8004810BD380900201B
:1028C00053544D6963726F656C656374726F6E69A2
:1028D0006373000010B50A46024903A000F09DF89A
:1028E000004810BD3809002053544D333220446F46
:1028F000776E4C6F6164204669726D7761726520F6
:10290000557064617465000010B50A46024903A061
:1029100000F083F8004810BD380900203030303016
:10292000303030303030314100000000F8B50D4615
:1029300004464988FF300A0AFF300230130000F0D5
:10294000C7FB08500509165050454D500069237CBF
:10295000026817E0217C02264069002905D0C16A7F
:10296000684688470146467047E0816AF8E7CAB280
:10297000130000F0ADFB06040B0F161A1E240069AD
:10298000237C426869461846904716E00069227C1D
:10299000836802E00069227CC36869461046984754
:1029A0000BE00069227C0369F7E70069227C436938
:1029B000F3E70069227C8369EFE701461DE0406987
:1029C000C9B2836B6A4620469847F6E7217C002906
:1029D00007D14069416B68468847EEE7217C0029B2
:1029E00004D029462046FFF799FDF8BD4069016BE8
:1029F00068468847072201464270684600880028DA
:102A0000F3D0EA88002AF0D0824200D90246684614
:102A100002802046FFF7A8FDF8BD70B5002300280E
:102A20001CD00446002502E06D1CEDB2641C267823
:102A3000002EF9D16C00A41C1480CC5403225B1C22
:102A4000CA5400245B1C06E0CA545B1CDAB28C54E6
:102A5000521CD3B2401C0278002AF5D170BD10B5CB
:102A6000002813D0C31DFF33FA335C69002C01D05A
:102A700000245C61002900D01961FF210123FD3190
:102A80000B54027000F0A2F8002010BD022010BD0F
:102A9000FF3010B5FF300230006AFDF7EFFE002076
:102AA00010BDFEB50446FF30E51DE130FF35FA35B7
:102AB00013460190002908D068694269002A49D06C
:102AC0000198007F032843D044E02646FF36813634
:102AD0002046716F1430022934D1C2688168009297
:102AE000914207D9891A81608AB219462046FFF7B8
:102AF0000DFD13E0406811460746FDF7F9FA00297D
:102B000013D10098874210D3B06F87420DD20022B4
:102B100011462046FFF7FAFC0020B06700231A4652
:102B20001946204600F09CF80CE06869C16800294D
:102B300005D00198007F032801D120468847204610
:102B4000FFF706FD2878012804D10020287001E055
:102B5000204690470020FEBD70B50546FF35E135A3
:102B60002B46203316460446002907D0586982694F
:102B7000002A29D0287F032824D025E0FF21F53121
:102B8000E01D0959FD3003291ED18268C1688A42BF
:102B90000BD9511A8160C068814200D301468AB2C4
:102BA00031462046FFF7AAFC0EE05869016900296A
:102BB00004D0287F032801D1204688472046FFF70C
:102BC000E1FC01E020469047002070BD10B512499D
:102BD000C41DC861FF341149FA34114821620860EC
:102BE000022205208A60486003200A61C860002034
:102BF000886108620846FEF735FA0022182311465C
:102C0000206AFDF703FE582300228021206AFDF789
:102C1000FDFD002010BD0000F4060020F40400209B
:102C2000005C0040FF30CA09FF3049060230490EFF
:102C30001C23006A59430818002A01D0203001E003
:102C4000FF300130807A704710B5FF301C46FF30EE
:102C500002301346006A2246FDF76CFE002010BDCC
:102C6000FF3010B5FF300230006AFDF7C3FF0020CF
:102C700010BD70B50022044640231146FFF7E4FF63
:102C80004025FF20113005512B460022802120468F
:102C9000FFF7DAFFFF200121FD3025620155E01D1D
:102CA000FF30FA308169002904D0406921794268F7
:102CB00020469047002070BDFF30E130417F017712
:102CC0000020704710B5FF21FD31095C032906D1B2
:102CD000852189000958C969002900D0884700204A
:102CE00010BD017400207047FF3010B5FF30023076
:102CF000006AFEF747FA002010BD70B50446412077
:102D0000C0002018054600F053F82146FF318131FC
:102D10000122084680304A67C2898A67007AC10664
:102D2000C90E0AD001290DD0022910D0C109C9014C
:102D3000204600F011F8002070BD2946204600F022
:102D4000A2F8F8E72946204600F089F9F3E729467A
:102D5000204600F00FF9EEE7FF3010B5FF300230EB
:102D6000006AFDF7E3FF002010BDFF3010B5FF3013
:102D70000230006AFEF727FA002010BDFF3010B5C0
:102D8000FF300230006AFEF727FA002010BDFF3046
:102D9000E130017F41770421017700207047FF3047
:102DA00010B5FF300230006AFEF70AF8002010BDAF
:102DB0000A7802704A784270CB788A781B02D2185F
:102DC00042804B790A791B02D21882808A79C979AC
:102DD00009025118C180704702460020002904D022
:102DE000FF32FF320232516170470220704710B546
:102DF0008522920012580224002A04D012689047BB
:102E0000002800D10024204610BD000070B50E46F9
:102E10008978194D04462970012904D93146204684
:102E2000FFF77CFB70BD2046FF30E130027F022AB5
:102E300015D0032AF2D1002917D0606888420AD041
:102E4000C1B22046FFF752FB297861602046FFF7A8
:102E5000CEFF0228E2D02046FFF794FB70BD002988
:102E6000F9D0032261600277F0E702220277204660
:102E70006160FFF73BFBEEE7BE00002010B5FFF7F7
:102E800074FF002010BDF8B500220092C61DFF3669
:102E90004C781746FA3632460125203A230000F0D6
:102EA00017F90A3C564150410906412B2841FFF7CA
:102EB0003DFD5DE004468888002818D1C8880028B8
:102EC00015D1887817464606107F760E03280ED057
:102ED000BE7731462046FFF707FF2046FFF752FB3B
:102EE000002E02D00220387742E03D7740E02046B5
:102EF00018E0FFF78BFF3BE0CB88012B12D1127F4C
:102F0000022A02D0032A0DD104E001220146083131
:102F1000876013E00122011D10E0127F022A04D015
:102F2000032A02D0FFF7FAFA22E0C560716800298F
:102F300001D00321C160014602220C31FFF714FBCE
:102F400016E004464888012812D1756009E004465D
:102F5000107F022801D00328C9D14888012807D151
:102F6000776070698268204690472046FFF70AFB29
:102F70000098F8BDF8B504460D462878E61D4006D1
:102F8000FF3600270979800FFA36012809D06A78C0
:102F900030462038002A38D0012A1ED0032A3DD1DD
:102FA00006E0706929468268204690470020F8BDF7
:102FB000007F022817D003282CD16888002806D16A
:102FC000002904D0802902D02046FFF7C5FE706991
:102FD000294682682046904713E0007F022802D0ED
:102FE000032817D104E0002918D080291AD115E050
:102FF0006888002812D1480603D02046FFF748FD14
:10300000E5E72046FFF7BEFA08E0007F022807D078
:1030100003280BD029462046FFF780FA3846F8BD32
:103020004806FBD02046FFF797FEF7E7C80904D013
:103030004806400D0519143504E04806400D0519F1
:10304000FF3505352046FFF7EDFD002800D00120B3
:103050002860022229462046FFF786FADEE770B58F
:103060000446FF30E130007F0D4603280FD1287958
:1030700001280CD88520800000598268204690479E
:10308000E888002806D12046FFF77CFA02E02046B7
:10309000FFF744FA002070BD10B504460179FF30F7
:1030A000FF30023040694268204690472046FFF7D3
:1030B00065FE002010BD704700487047D800002012
:1030C00010B50248FDF748FF10BD0000F4040020D1
:1030D00030B47446641E2578641CAB4200D21D4691
:1030E000635D5B00E31830BC184702E008C8121F9C
:1030F00008C1002AFAD170477047002001E001C1E1
:10310000121F002AFBD17047FDF742FBFFF778F949
:10311000FEF7C6FEFEF73AFFFEF704FF05252D0772
:10312000012220212846FDF71EFB012240212846CE
:10313000FDF719FB0D4F0E4C0E4E01212846FDF7F1
:103140000DFB002805D002212846FDF707FB0028CB
:10315000F3D120680121384049078842EDD16068E9
:103160003060216881F308888047E6E70000FE2F81
:103170000040000804000020024610B50520082188
:103180000007FDF7F0FA10BD024610B50520042136
:103190000007FDF7E8FA10BD00000000010203047B
:1031A00001020304060708090000000000000000F7
:1031B0000102030406070809030406080C1018207E
:1031C0003000000040496E7465726E616C20466C80
:1031D0006173682020202F30783038303034303020
:1031E000302F312A31364B67000000000C320008C6
:1031F00000000020C0000000EA300008CC320008C7
:10320000C0000020A00D0000FA30000800000000FF
:1032100000000000C43100082B1E0008E91D000852
:10322000ED1D0008551E00082F1E0008271E00086F
:1032300071280008A1280008AD280008D52800083A
:1032400009290008512800087D2800080403090402
:103250001201000200000040830411DF000201029D
:103260000301000080841E00ED260008A52500084B
:1032700059270008E1250008DB2500089D250008E6
:10328000A1250008552700083D2700084127000810
:10329000B1260008B1260008B1260008BD260008A6
:1032A000C926000809021B00010102C032090400FE
:1032B0000000FE01020609210BFF0000041A0100B4
:0C32C0000A0600020000004001000000AF
:04000005080000C12E
:00000001FF
