:020000040800F2
:1040000000030020D5400008DD400008DF40000824
:1040100000000000000000000000000000000000A0
:10402000000000000000000000000000E140000867
:104030000000000000000000E3400008315E0008BE
:10404000E7400008E7400008215E0008E74000085C
:10405000E7400008E7400008E7400008E7400008A4
:10406000E7400008E7400008E7400008E740000894
:10407000E7400008E740000800000000E7400008B3
:1040800000000000E7400008000000000000000001
:10409000E740000800000000E7400008E740000893
:1040A000E7400008E7400008E7400008E740000854
:1040B000E7400008E740000800000000E740000873
:1040C0000348854600F03EF800480047ED600008D0
:1040D000000300200448804704480047FEE7FEE74D
:1040E000FEE7FEE7FEE7FEE7D15E0008C1400008FC
:1040F00030B50B46014600202022012409E00D4680
:10410000D5409D4205D31D469540491B2546954007
:1041100040191546521E002DF1DC30BD70B500244B
:104120002546002801DA01244042002901DA012550
:104130004942FFF7DDFFAC4200D04042002C00D0E6
:10414000494270BD064C0125064E05E0E36807CCE8
:104150002B430C3C98471034B442F7D3FFF7B4FF1D
:10416000FC6300081C64000870B5044600688168A0
:10417000490720D5816810264907002905DA81689A
:10418000890702D481683143816000F0ADFC0546A7
:104190000DE000F0A9FC401B0A2808D9A06D3043AF
:1041A000A065E06D01210843E065084670BD206808
:1041B00080684007EDD4002070BD000038B504468B
:1041C000064805490068FFF793FF604300E0401E82
:1041D00000900028FBD138BD40420F0014000020A1
:1041E000F8B50446006881688907890F012925D13F
:1041F0000168C90722D081680522114010250126D7
:1042000001290FD1816802221143816021680320B6
:10421000086000F069FC07460CE000F065FCC01B7C
:104220000A2807D9A06D2843A065E06D3043E065FA
:104230000120F8BD20688068C007EED10020F8BDDD
:10424000F8B50446006881688907890F012902D101
:104250000168C90722D18168114A10261140012541
:1042600000290ED18168294381600120FFF7A6FF54
:1042700000F03AFC07460CE000F036FCC01B0A28B0
:1042800007D9A06D3043A065E06D2843E0650120AB
:10429000F8BD20680068C043C007EDD10020F8BD1C
:1042A000170000801A498869C2051A4803D5426977
:1042B00008231A4342618A69920503D5426904239F
:1042C0001A4342618A69520503D5426902231A439F
:1042D00042618A69120503D5426910231A4342617B
:1042E0008A69920403D5426901231A4342618A69AB
:1042F000920303D5426920231A4342618A69D2039B
:1043000003D5426940231A434261034888617047DC
:104310000020024018000020002F030070B5054661
:1043200000F0E2FB06461C4C0AE0681C08D0002D99
:1043300004D000F0D9FB801BA84201D9032070BD36
:10434000A069C043C007F0D0A069800701D5022052
:10435000A061A069C043C00517D5A069C04380050E
:1043600013D5A069C04340050FD5A069C04300051F
:104370000BD5A069C043800407D5A069C043800362
:1043800003D5A069C043C00303D4FFF78BFF01200E
:1043900070BD002070BD000000200240F8B5064648
:1043A0000D464036317D01290DD00121317501685E
:1043B0008A68520709D5816D20221143816500204A
:1043C00030750120F8BD0220F8BD174B6A68D8058A
:1043D00047109A42154C8A6A2B6812D05B035B0B1C
:1043E0001A438A622968490305D5A1680143A1607F
:1043F0000A20FFF7E3FE2868800312D5A06838433F
:104400000EE05B035B0B9A438A622968490302D57D
:10441000A1688143A1602868800302D5A068B843E1
:10442000A06000203075F8BD011000000027014099
:104430000068006C7047000070B5040006D0A06DE5
:10444000264600254036002802D006E0012070BD37
:10445000E5653575204600F0D1F8A06DC00603D49F
:1044600021688868400705D5A06D10210843A06524
:104470003575EBE7A06DFF22013290430222104315
:10448000A06588688207920F5948012A02D10A68FC
:10449000D2072BD1032362699B079A4205D05B4266
:1044A0009A4202D05B009A4209D10A6992009208AE
:1044B0000A6121680A6963691A430A610CE00A69A2
:1044C000920092080A6181680F22920491438160F0
:1044D00081686269114381602168CA6818239A4320
:1044E000CA602168CA68A3691A43CA608168012248
:1044F0005206914381608168A26C5206114381602B
:1045000020688168C90004D4816801221207114320
:1045100081602068C168374A1140C160216A606AC1
:10452000022923D000210843A16AA26B490352004B
:1045300011430843216C0843616C89030843E16C13
:10454000C90308432168CA681043C860206B01464C
:10455000FF39C23905D0616B08432168CA6810432E
:10456000C860E06A0121012802D00BE00421DAE7EB
:10457000A06A002823D0A06D20221043A065E06D22
:104580000843E0656068012820681FD00169C907F9
:1045900003D0016949084900016120684169C908DF
:1045A000C900416120684169E26911434161E565E3
:1045B000A06D80088000401CA065002070BD2068B0
:1045C000C26801231B041A43C260DBE702690A4B7D
:1045D0001A40026120680269A36826691A43E368E9
:1045E00033431A430261206802690A430261D4E737
:1045F000002701401902FEFF03FCFF7F30B5006871
:104600000D4985B0884215D10C48416B42151143C4
:1046100041638020032400256A4631C20520694693
:10462000000700F099F90094694605480295019445
:1046300000F092F905B030BD0024014000100240A6
:1046400000040050F8B50446C06B254640350E46C0
:1046500008280BD02068C068C00709D0A06D2021B1
:104660000843A065002028750120F8BD082700E058
:104670000C2700F039FA009011E0701C0FD0002ECA
:1046800005D000F031FA0099401AB04207D9A06D68
:1046900004210843A065002028750320F8BD206888
:1046A00000683842E9D0A06D012149020843A065A5
:1046B0002068C16809058A0F0C21002A1AD1A26A54
:1046C000002A17D10268120714D582685307012205
:1046D000002B08DB43688B434360A06D13029843B3
:1046E0001043A06506E0A06D20231843A065E06D8F
:1046F0001043E065606C002801D120680160002053
:10470000F8BD000070B5044621680020896849079B
:1047100021D425464035297D01291CD00121297548
:10472000E16C012904D02046FFF78AFD002811D151
:10473000A16D0A4A1140FF2201321143A1650021F7
:10474000E165297522681C21116021688A680423AB
:104750001A438A6070BD022070BD0000FEF1FFFFA9
:1047600070B5054604464035287D012807D001264E
:104770002E752046FFF7F8FC002802D00CE002203E
:1047800070BD2046FFF72CFD002805D1A16DFF224A
:10479000013291433143A1650021297570BD0000AC
:1047A00070B54379012B19D001254571022303719E
:1047B000066834680A4B93409C430B6849680B4376
:1047C00093402343336001680B68C0249440A343A3
:1047D0000B60057100214171084670BD022070BD5B
:1047E000FE0F000070B5040004D0207900250028D9
:1047F00002D005E0012070BD6571204600F008F888
:1048000002202071E56001202071002070BD0000B1
:1048100000B500680A4985B088420FD10948816B0C
:104820004204114381631020009003200190002076
:10483000029005206946000700F08EF805B000BD23
:10484000007400400010024008B50068801808306D
:1048500000900360002008BD30B54279012A13D0D2
:10486000012242710223037103681D6814468C40C3
:1048700025431D6001680B68042423400C6838251B
:104880002C40042B02D006E0022030BD382C02D18F
:104890004B6813434B60027100214171084630BDE3
:1048A00030B50268146801231D468D40AC43146086
:1048B0000371002030BD31B500F016F9044600F058
:1048C00013F90099001B8842F9D338BD03484168A9
:1048D0000122114341600020704700000020024087
:1048E000F8B5124D0746287C14460E46012807D01D
:1048F000012028740E48FFF711FD002802D012E0B5
:104900000220F8BD00206861022F04D0012F04D0DE
:10491000002F04D004E0346002E0348000E0347002
:104920000348FFF7FBFC00212974F8BD18000020A4
:1049300050C3000005484168C90705D00449C1605B
:104940000449C160002070470120704700200240E8
:10495000EFCDAB8905040302F8B500230124A2E0E2
:1049600027469F403A4070D04D68022D01D0122D4D
:1049700014D1DD08AD002D1800952D6A5E07AC46F8
:10498000F50E0F26AE46AE406546B543AC460E6901
:104990007546AE4065462E43009D2E624D68012D42
:1049A00005D0022D03D0112D01D0122D16D185680E
:1049B0000326AC465D00AE46AE406546B543AC4608
:1049C000CE687546AE4065462E43866046680D79D2
:1049D000BE43ED06ED0F9D403543456006685F0020
:1049E0000325BD40AE46AE430D79B446AE07B60FC3
:1049F000BE4065462E430660C6687546AE438D6868
:104A0000BD403543C5604D68ED004BD5294D6E6BFB
:104A100026436E639E08284DB6007519AC46AD68F6
:104A20009E07360F0F27B740BD4305273F07B84203
:104A300001D1002715E0214FB84201D1012710E034
:104A40001F4FB84202D102270BE02BE01D4FB842A6
:104A500001D1032705E01C4FB84201D1052700E032
:104A60000627B7402F436546AF60184D2E684F6844
:104A70009643FF0300D516432E606E684F68964339
:104A8000BF0300D516436E60AE684F689643FF02C1
:104A900000D51643AE60EE684F689643BF0200D55E
:104AA0001643EE605B1C0A681546DD4000D057E7F0
:104AB000F8BD00000010024000000140000400505A
:104AC00000080050000C0050001C00500004014081
:104AD0000069084000D001207047002A01D08161A0
:104AE000704781627047000001480068704700000D
:104AF0000000002070B502462032537D022B27D0E3
:104B0000537D122B24D0537D222B21D0537D322B69
:104B10001ED0537D422B1BD0137D012B18D00123B7
:104B2000137502245475046825689D432560046844
:104B300025681E03B5432560046825680D4325607C
:104B4000006801681943016053750020107570BD3D
:104B5000022070BD70B5040006D025462035687D62
:104B60000026002802D005E0012070BD2E752046E9
:104B700000F042F802206875206801684908490081
:104B800001600F2160680906884321680861206878
:104B900082680121C9038A438260A068002807D087
:104BA000E268012A01D02121890208432168886036
:104BB000E068022802D121688002486020684168CC
:104BC0000C4A11434160616920690843A1690902E7
:104BD00008432168C860216AE069084321680860C9
:104BE0002068026801210A430260A66369750020FB
:104BF00070BD00000080000200B500680C4985B05F
:104C0000884212D1C020009012200121019003207F
:104C100002910491039069460648FFF79DFE0648FD
:104C2000816B012252051143816305B000BD000074
:104C3000005400400004005000100240FFB506463A
:104C400004462036707D81B0174601287BD102983A
:104C5000002844D0002F42D0307D012873D001209D
:104C60003075422070750020A063206841680125DE
:104C7000ED03A9434160002208212046049B00F077
:104C8000FFFE002804D0206841682943416041E0CC
:104C900021680820C861E06802280AD100220821A2
:104CA0002046049B00F0ECFE0028ECD1216808208F
:104CB000C8610121002209042046049B00F0E0FEA7
:104CC0000028E0D12046049900F03AFF002809D0DE
:104CD0002068416829434160A06B04281AD1012053
:104CE00005B0F0BD02982168007888620298401CE7
:104CF0007F1E3F0402903F0CE4D11921204600F0B2
:104D0000F7FE00280AD02068416829434160A06B63
:104D1000042801D00320E3E70020A06321682020BD
:104D2000C861012229462046049B00F0A9FE002804
:104D3000A9D1206841682943416001207075002095
:104D40003075CDE7FFE70220CAE70000024801689E
:104D5000491C0160704700000000002010B50648A3
:104D60000168402211430160002000F007F800F0C4
:104D700017F8002010BD00000020024010B50446C6
:104D800000F098F97D21C900FFF7B2F900F004FEA8
:104D900000222146501E00F01BF8002010BD00002C
:104DA00010B50548416B01221143416300221146B1
:104DB000501E00F00DF810BD00100240C106C90ED3
:104DC00001208840014908607047000000E100E0D0
:104DD00010B500F0D3FF10BD094B1A68920892007D
:104DE00002431A600748026904239A4302610129B9
:104DF00003D040BF20BF20BF704730BF70470000C6
:104E00000070004000ED00E0F8B504460078534D16
:104E1000800660D5514E403E3168032760693F05EA
:104E2000024639403A40914208D08003800F03285F
:104E300004D13068800301D50120F8BDB06B012199
:104E400009070843B06346480168821511430160B1
:104E5000FFF74AFE009005E0FFF746FE0099401A72
:104E6000642823D83E480068C005F5D52869032189
:104E70000904626908400A4090422CD028692A69D6
:104E800088430121C9040A432A612A698A432A61A5
:104E9000286180050FD5FFF727FE009008E0FFF797
:104EA00023FE0099411A2F48814201D90320F8BD01
:104EB00028698005F3D560698103890F032946D0ED
:104EC0003068B84330602969032000046269814377
:104ED0000240114329612078C00705D0E868616865
:104EE000800880000843E8602078800705D5E868DE
:104EF0000C218843A1680843E8602078400706D564
:104F0000E868032189028843E1680843E860207863
:104F1000000706D5E868032109038843216908438F
:104F2000E8602078400606D5E868012189068843B4
:104F3000A1690843E8602078000606D5E8680321E7
:104F400089048843E1690843E8600020F8BD3168BE
:104F50003840B94301433160B5E7000040100240DA
:104F60000070004088130000F8B505464E480E4614
:104F70000068C007C00FB0420AD24B480168490818
:104F80004900314301600068C007C00FB0426FD1D3
:104F90002878464C800705D5E068F0218843A96849
:104FA0000843E0602878C00752D06868022817D00C
:104FB000002818D02168032818D04907002957DA9B
:104FC000E168890889000143E160FFF78DFD6968A8
:104FD0000746022912D003291CD0002926D032E02E
:104FE00021688903EAE721688905E7E78901E5E7A0
:104FF000FFF77AFDC11B2E48814222D8E0680007E6
:10500000800F0228F4D123E0FFF76EFDC11B284872
:10501000814216D8E0680007800F0328F4D117E01A
:10502000FFF762FDC11B224881420AD8E0680007F1
:10503000800FF5D10CE0FFF757FDC11B1C488142E2
:1050400001D90320F8BDE0680007800F0128F2D1E4
:1050500015480168C907C90FB1420BD30168490857
:105060004900314301600068C007C00FB04201D061
:105070000120F8BD2878400706D5E068072109021D
:105080008843E9680843E0602878000707D5E068AE
:105090000721C90288432969C9000843E06000204C
:1050A000FFF76CFE0020F8BD002002400010024017
:1050B0008813000010B500F011F80549C968054AC9
:1050C0000906090F515CC8400349086010BD000083
:1050D00000100240C46300081400002010B51A4AF2
:1050E0005068D3680004410F0C200340174805D0D6
:1050F000042B06D0082B0BD00C2B0BD0491C88405E
:1051000010BD1068C00601D5114810BD114810BD72
:10511000114810BDD068D1688002104B000F185C98
:105120000902D368890F01242404491C234204D1B5
:105130001268D20603D5064A02E0074A00E0054A93
:105140005043FEF7D5FF10BD001002400080000064
:1051500000093D000024F40000127A00F06300080A
:10516000FEB504460078FA4DC0074DD0E868000748
:10517000800F022807D0E8680007800F032809D1B4
:10518000E868C00306D5286880033DD5606800281C
:1051900075D039E0012062680004824203D1296899
:1051A0000143296014E0052301211B0489049A426C
:1051B0002A6805D182432A602A680A432A60EEE7FA
:1051C00082432A602A680240009228688843286047
:1051D000606800280CD0FFF787FC064604E0FFF764
:1051E00083FC801B64287DD828688003F7D50BE0FA
:1051F000FFF77AFC064604E0FFF776FC801B642884
:10520000F1D828688003F7D42078800740D5E86873
:105210001F270007800F3F02012807D0E86800071A
:10522000800F032809D1E868C00306D42868400726
:1052300017D5E068012822D113E0E1680920002990
:1052400016D02A6882430A432A60FFF74DFC0646BF
:1052500004E0FFF749FC801B0228C4D828684007F7
:10526000F7D568682169B8430902084368600FE010
:10527000296881432960FFF737FC064605E096E080
:10528000FFF732FC801B0228ADD828684007F7D40E
:105290002078B04FC0064BD5E8680007800F09D0D2
:1052A000E0690028286835D038432860FFF71CFCE7
:1052B00006461DE02868800502D5E069002876D002
:1052C0006868072149038843616A08436860686821
:1052D000218C0002000A0906084368600020FFF7DD
:1052E0004DFD25E0D9E0FFF7FFFB801B022887D8A2
:1052F00028688005F7D56868072149038843616AF3
:10530000084368606868218C0002000A09060843A7
:1053100068600DE0B8432860FFF7E6FB064604E04E
:10532000FFF7E2FB801B022897D828688005F7D496
:105330002078894E000724D560690028306910D094
:10534000012108433061FFF7CFFB009005E0FFF734
:10535000CBFB0099401A022896D830698007F6D511
:105360000FE0400840003061FFF7BEFB009005E011
:10537000FFF7BAFB0099401A022885D830698007E8
:10538000F6D42078800633D5A069744A002819D055
:10539000A96801200143A960696B01436963106A30
:1053A0006F4908431062FFF79FFB009006E0E9E0B9
:1053B000FFF79AFB0099401A02286ED8A868800768
:1053C000F6D515E0A86840084000A860106A644956
:1053D000C94308401062FFF787FB009005E0FFF724
:1053E00083FB0099401A022857D8A8688007F6D492
:1053F000207840076FD5002002900190A86BC00074
:1054000006D4A86B012109070843A8630120029074
:1054100054480068C00513D45248016839430160FC
:1054200001200190FFF760FB009005E0FFF75CFBB7
:105430000099401A642830D84A480068C005F5D55C
:10544000A068B84202D1306938430CE001218902DA
:10545000002803D00522120290420CD03069B843D4
:105460003061306988433061A068002816D0FFF7AA
:105470003BFB00900DE03069B84330613069084370
:105480003061E0E7FFF730FB0099411A364881426E
:1054900071D830698005F5D50EE06CE0FFF724FB8C
:1054A000009006E0FFF720FB0099411A2E48814248
:1054B00061D830698005F5D40198002803D02948C7
:1054C0000168B94301600298002804D0A96B01204B
:1054D00000078143A963A06A002851D0E968090741
:1054E000890F03294ED0012636060228286805D0E8
:1054F000B0432860FFF7F8FA04463EE0B043286066
:10550000FFF7F2FA074604E0FFF7EEFAC01B0228A5
:1055100031D828688001F7D4616B206BEA680843B2
:10552000E16AFD231B049A4311430843E86028689D
:1055300030432860FFF7D8FA044604E0FFF7D4FAB6
:10554000001B022817D828688001F7D518E0000052
:105550000010024000010000401002400000014025
:10556000012000000070004088130000FFF7BCFA23
:10557000001B022801D90320FEBD28688001F5D454
:105580000020FEBD0120FEBDF7B5054604462035CE
:10559000287882B0012814D0012028700220687079
:1055A0002168CA20486221685320486220688068C8
:1055B00000264005FF27002812DAFFF795FA009031
:1055C0000AE0022005B0F0BDFFF78EFA0099411AFB
:1055D0007D20C000814215D82068C0684007F3D400
:1055E000206881680122920291438160FFF77CFA72
:1055F00000900DE0FFF778FA0099411A7D20C00075
:10560000814205D920684762032068702E70D9E76F
:105610002068C0684007EDD521680398486120687C
:105620008168C908C900816020688168049A1143B3
:1056300081600D480268012109050A430260826801
:105640000A438260206881680122920311438160CD
:10565000206881681211114381602068476201202F
:1056600068702E700020ADE7000401407047000014
:1056700010B504460068C068400509D52046FFF70C
:10568000F5FF2068C16880221140054A8918C16071
:10569000012004490005486101202034607010BDDC
:1056A0007FFBFFFF0004014070B5040005D02546D4
:1056B00020356878002802D006E0012070BD002067
:1056C0002870204600F042F8022068702168CA2045
:1056D0004862216853204862204600F084FBFF2185
:1056E0000028206803D0416204206870E5E78268E2
:1056F000154B1A408260226890686368A669184357
:1057000023693343184390602268E0681061206881
:10571000026923891B041A4302612068C26880233E
:105720009A43C2602068C26C92089200C264E26927
:10573000606902432068C36C1A43C26420684162F6
:1057400001206870002070BDBFFF8FFF10B500689A
:10575000084988420DD10848016901229204114389
:105760000161002211460220FFF732FB0220FFF701
:1057700025FB10BD0028004040100240F8B505464A
:105780000446203528780B46012815D001202870C2
:10579000022068705878002A10D000F011FB987829
:1057A00000F00EFBD8789E780004064358781978EC
:1057B00000024903084316E00220F8BDC10603D5E4
:1057C000EF2108400A305870D87800F001FB060439
:1057D000587800F0FDFA00020643987800F0F8FAD5
:1057E00006431878400306432168CA2048622168AE
:1057F00053204862204600F0F6FA0027002811D115
:1058000010480640206846602068C16880229143A5
:10581000C1602068806880060CD4204600F08CF8B7
:10582000002807D02168FF204862042068702F708C
:105830000120F8BD2168FF204862012068702F70A8
:105840000020F8BD3FFFFF00F8B5064604462036AD
:1058500030780D4601280ED0012030700220707083
:10586000206800278068002A07D040061AD52878CB
:1058700000F0A6FA17E00220F8BD400600D4EF7051
:10588000287800F0A5FA0204687800F0A1FA000276
:105890000243A87800F09CFA0243E878000402432F
:1058A00000920BE0EF702978A87809040843697822
:1058B000EA78090212041143084300902168CA20C3
:1058C0004862216853204862204600F08CFA002884
:1058D0001FD1184900980840216808602068816835
:1058E00001229204914381602969E8680843216894
:1058F0008A68104388602068C16880229143C16033
:105900002068806880060CD4204600F015F8002836
:1059100007D02168FF204862042070703770012092
:10592000F8BD2168FF2048620120707037700020A8
:10593000F8BD00007F7F7F0070B504460068C16835
:10594000A0229143C160FFF7CFF87D260546F600FF
:1059500006E0FFF7C9F8401BB04201D9032070BD33
:105960002068C0688006F4D5002070BD0248016937
:10597000022211430161704700E000E00422044963
:105980000428086902D09043086170471043FBE780
:1059900000E000E070470000094910B5401E884251
:1059A00001D9012010BD074C60610321081F00F0E0
:1059B000E5F90020A06107202061002010BD000053
:1059C000FFFFFF0000E000E010B5FFF7E3FF10BDB0
:1059D00002480169022291430161704700E000E042
:1059E000F8B50E460446FFF77FF8009020688169FD
:1059F000C943C90640D425462035697D122905D002
:105A0000697D522902D0697D622907D141688901E7
:105A100004D44168012292031143416001272068A8
:105A20008069C04380060FD5701CF8D0002E06D0C8
:105A3000FFF75AF801460098081AB042EFD96F757F
:105A4000002028750320F8BD21681020C861216856
:105A50002020C86120688169C943C90700D0C76197
:105A600020684168054A114041600420A0636F75B9
:105A7000002028750120F8BD0020F8BD00E800FED8
:105A8000F8B51C4615460F460646FFF72DF8294681
:105A900035462035009000290BD021E0601C08D04D
:105AA000002C17D0FFF720F801460098081AA042F2
:105AB00010D83068816938468843C003EED115E0BC
:105AC000601C0DD0002C05D0FFF70EF80099401A8D
:105AD000A04205D901206875002028750320F8BD73
:105AE0003068816938468843C003E9D00020F8BD9A
:105AF00070B50D460446FEF7F7FF064619E0294645
:105B00002046FFF76DFF002801D0012070BD002D59
:105B100004D0FEF7E9FF801BA8420AD9A06B202120
:105B20000843A06301202034607500202075032005
:105B300070BD20688069C0438006E0D4002070BD3D
:105B400070B50D460446FEF7CFFF06461BE029461A
:105B50002046FFF745FF002801D0012070BD681CDA
:105B600011D0002D04D0FEF7BFFF801BA8420AD938
:105B7000A06B20210843A063012020346075002021
:105B80002075032070BD20688069C0438007DED483
:105B9000002070BD1CB51848164901600021012283
:105BA0004160920781614261C16141628162C1626B
:105BB00001224163026281630164416404228164C1
:105BC000C263C164FEF738FC0C480090012000035A
:105BD000019069460848FEF7E1FB094800906946D4
:105BE0000548FEF7DBFB0748009069460248FEF7D0
:105BF000D5FB1CBD00240140300000208000001CAB
:105C000000010020000200241CB508490648086075
:105C10000846FEF7E7FD0020009002460190694625
:105C20000248FEF7BDFD1CBD00740040B40000201A
:105C3000F0B5254887B0C26A04210A43C262C26A2D
:105C40000A400592C16A01263143C162C16A3140EE
:105C50000591C26A02210A43C262C06A0324084055
:105C600005900320800300256A4631C26946174823
:105C7000FEF772FE05200195694600070295009423
:105C8000FEF76AFE124F052002956946000700974D
:105C900001960395FEF760FE1F2000026A4631C29E
:105CA000052069460007FEF757FE38206A4631C2D4
:105CB00069460848FEF750FE0520002239460007D5
:105CC000FEF70BFF07B0F0BD0010024000080050C7
:105CD0006CE000000004005010B50C480A49016057
:105CE0000B494160802181600121C1600021016177
:105CF00041618161C1610162FEF72CFF002103480F
:105D0000FEF7F8FE10BD000000540040C400002063
:105D1000FFD9500010B51649164886B0002412C0AD
:105D20007F2101608460C4600461FF21446141609F
:105D30000838FFF7B9FC6846047044708470039417
:105D4000012269460B480494FFF77EFD0121684655
:105D5000017541758175C4750A4605A90548FFF7A7
:105D60000DFD022204490348FFF70EFC06B010BDEA
:105D70000028004090000020111200008307FF223D
:105D8000DB0E9A408907090E994000280BDA0007BC
:105D9000000F0838830808489B001818C36993430C
:105DA0000B43C3617047830804489B001B181868A5
:105DB000904308431860704700ED00E000E400E005
:105DC00001090A2200075143000F4018C0B2704772
:105DD000002102E00A38C0B2491C0A28FAD2090799
:105DE000090E0843704770B504460068C16849064B
:105DF00013D40021C943C160FEF776FE7D26054617
:105E0000F60006E0FEF770FE401BB04201D9032009
:105E100070BD2068C0684006F4D5002070BD000049
:105E200010B50248FFF724FC10BD000090000020D0
:105E300010B5FEF78BFFFFF7C7FD10BD10B5224868
:105E40009CB0816B020411438163204801680322E6
:105E5000D2029143C214891801600A2000900121E6
:105E600010200490059102200A900391002440051F
:105E70000D900B940C946846FFF772F90F200E906A
:105E800003200F9010941194012112940EA8FFF793
:105E90006BF828201390012040041890179413A841
:105EA000FEF7B2FFFFF706F97D21C900FEF720F9E2
:105EB000FFF772FD0420FFF761FD00221146501E1E
:105EC000FEF786FF1CB010BD0010024000700040BD
:105ED00010480168821511430160C1680E4A1140E3
:105EE000C16001680D4A114001608168490849009C
:105EF000816001680122920491430160C168FD2222
:105F000012049143C160002101610549C00388600A
:105F100070470000001002400C40FF88F6FFF6FEBC
:105F200000ED00E002E008C8121F08C1002AFAD103
:105F300070477047002001E001C1121F002AFBD109
:105F4000704770B5002400F021F800281CD1012012
:105F500000F001FA7D25ED002846FEF7ACFC00F0CC
:105F600015F8002810D1012400F0F5F92846FEF7B5
:105F7000A2FC00F00BF8002806D1012000F0EBF99C
:105F80002846FEF798FC0224204670BD10B5052077
:105F900002210007FEF79CFD10BD000070B50D4604
:105FA000044600210A48FEF757FC0022234611460A
:105FB0000748FEF749FC0A20FEF77DFC284600F062
:105FC00055F9044600210248FEF76AFC204670BDE0
:105FD000B4000020F8B50026354623493046FFF7C7
:105FE000DDFF012000F0C0F9012000F0B4F91F48E6
:105FF000FEF761FC002000F0B7F9002000F0ABF9DB
:106000001B4F002418492046FFF7C8FFB04201DDAE
:1060100006462546E005C00F00F0A6F9A005C00F12
:1060200000F099F96005C00F00F0A7F92005C00F36
:1060300000F0ABF9641CBC42E4DD0D4888388542B1
:1060400000DA88352946002000F0A8F9002000F089
:106050008BF9002000F07FF9002000F08EF900207D
:1060600000F093F9F8BD000000020024B80B000016
:10607000FF0F000070B5012000F065F9002000F06E
:1060800073F9002000F067F9002000F07EF900208D
:1060900000F073F90125144EAD02FFF799FC0221BF
:1060A0000020FEF799FEFFF761FC304600F0DEF8B5
:1060B0000446A84214DA012000F04DF90A20FEF748
:1060C000FAFB002000F047F9C820FEF7F4FB01209E
:1060D00000F041F90A20FEF7EEFB002000F03BF94A
:1060E000AC42DADB70BD00008000001C08B5FEF792
:1060F00035FEFFF7A3FEFFF79BFDFFF74BFDFFF714
:1061000083FDFFF7E9FDFFF705FE514C0026FFF781
:1061100018FF012802D002280DD004E020780028C2
:1061200007D000202070207800280DD0FFF7A2FFB4
:10613000EDE70120F6E7002000F005F9FFF74AFF40
:10614000012000F000F9267068460680002000F06B
:10615000F2F8002000F0F7F8012000F005F9002027
:1061600000F0F9F83B4805683B49681E884201D3B6
:10617000FFF730FF39492846FFF710FF80B2694624
:1061800008803749884206D9012000F0FEF8002037
:1061900000F0F3F805E0012000F0EFF8002000F037
:1061A000F4F83048407D012829D0002000F0DCF8C8
:1061B0006420FEF780FB012000F0D6F86420FEF793
:1061C0007AFB002000F0D0F86420FEF774FB012079
:1061D00000F0CAF86420FEF76EFB002000F0CDF856
:1061E000002000F0D2F87D25ED002846FEF763FB85
:1061F000002000F097F82846FEF75DFB87E70120B6
:1062000000F090F81748184B022269462038FEF734
:1062100015FD00280AD0012000F09DF8FF202D3048
:10622000FEF749FB002000F096F8D6E7012000F0C9
:1062300092F86420FEF73FFB002000F08CF8642009
:10624000FEF739FB012000F086F86420E8E7000043
:106250000400002000000808FF0F000000010020DB
:10626000FF070000E4000020B80B0000F0B5054671
:10627000002087B0C04300902648FEF7DDF80024D8
:10628000254E01273F03A00030580490A84201D1B9
:10629000059701E02148059004A91E48FEF77EF805
:1062A000641C032CEFDB1E4801AD07C807C57D2623
:1062B0000024F6000C3D1748FEF724FA002808D108
:1062C00031461448FEF7BEF90028124816D0FEF7F2
:1062D00047FA019800280EDB029800280BDB039890
:1062E000002808DB029901984018039940180321FF
:1062F000FDF714FF0090009807B0F0BDFEF798F886
:10630000A10068500348FEF72BFA641C032CD2DB73
:10631000DFE700003000002008000020011000002E
:10632000D4630008024610B501210520C903000707
:10633000FEF7D3FB10BD024610B505202021000753
:10634000FEF7CBFB10BD024610B50520402100072B
:10635000FEF7C3FB10BD024610B5012105208903DD
:106360000007FEF7BAFB10BD024610B5012105205B
:1063700049030007FEF7B1FB10BD024610B505202A
:1063800004210007FEF7A9FB10BD024610B5052049
:1063900008210007FEF7A1FB10BD000070B50E46F6
:1063A0000546FEF7C7FA040006D10548324629180B
:1063B0000220FEF795FA0446FEF788FA204670BDE3
:1063C00000000808000000000102030401020304A9
:1063D00006070809FFFFFFFFFFFFFFFFFFFFFFFFAB
:1063E0000000000000000000010203040607080985
:1063F000030406080C101820300000001C6400087C
:106400000000002018000000245F00083464000829
:1064100018000020E8020000345F000800000000BF
:10642000000000008000001C000200240002002484
:0464300080841E0046
:04000005080040C1EE
:00000001FF
