:020000040800F2
:1000000060100020D5000008DD000008DF000008B7
:1000100000000000000000000000000000000000E0
:10002000000000000000000000000000E1000008E7
:100030000000000000000000E30000084536000852
:10004000E7000008E700000835360008E700000870
:10005000E7000008E7000008E7000008E7000008E4
:10006000E7000008E7000008E7000008E7000008D4
:10007000E7000008E700000800000000E7000008B3
:1000800000000000E7000008000000000000000081
:10009000E700000800000000E7000008E700000893
:1000A000E7000008E7000008E7000008E700000894
:1000B000E7000008E7000008000000001D430008FA
:1000C0000348854600F088FB00480047014E0008C1
:1000D000601000200448804704480047FEE7FEE720
:1000E000FEE7FEE7FEE7FEE715370008C10000085F
:1000F00030B50B46014600202022012409E00D46C0
:10010000D5409D4205D31D469540491B2546954047
:1001100040191546521E002DF1DC30BD70B500248B
:100120002546002801DA01244042002901DA012590
:100130004942FFF7DDFFAC4200D04042002C00D026
:10014000494270BD03460B439B0703D009E008C931
:10015000121F08C0042AFAD203E00B780370401C77
:10016000491C521EF9D27047D2B201E00270401C05
:10017000491EFBD270470022F6E710B513460A4627
:1001800004461946FFF7F0FF204610BD421C0178D7
:10019000401C0029FBD1801A70470321001D401E1E
:1001A000037812021A43491EF9D5104670470246D9
:1001B00070B54A40D30FDB0740002DD04A002AD04B
:1001C000010E140E000212020919400A520A841884
:1001D000E50104465443000A120A2E045043A419B0
:1001E0004219200CC543AA18120C0125AD03521C5C
:1001F000521912047F39240400D0521C104301D438
:100200004000491EC2B20C06C0092018401C40081C
:10021000802A02D003E0002070BD40084000002981
:1002200000DA0020184370BDF0B50C465C4085B084
:10023000E40FE40703944C00002664085900944638
:10024000490802460296224321D062460A431ED044
:100250006200570D4A000E032303550D0124024688
:100260002C492405781B1B0B360B401823432643CF
:10027000614600901C46501AB44103D30098401CBC
:10028000009002E0921800985B41002803DA0020F9
:10029000014605B0F0BD002001210905074686464C
:1002A00011E064461D46141BB54106D36546521B3A
:1002B000B341744607430C43A646CD07400849089E
:1002C000284392185B4105460D43EAD11046184376
:1002D00013D06046194650407140084306D060462E
:1002E000101AB34106D20122002306E000220123A6
:1002F000DB0702E00122D243531000987446010547
:10030000381C6141029C039D0019694100F0B7F857
:10031000BFE70000FD030000C217C10F504010B539
:100320004018CA079623002100F070F810BD10B5E0
:1003300000229623114600F069F810BDC20FD207C3
:10034000400040080BD0C10D0723DB01C918400253
:100350000905400A1143C2084007114370470020B5
:1003600001467047CB0FDB07490010B5490802462C
:100370000A4307D00A0D07240903E401090B121BE5
:10038000002A01DC002010BDC900440F0C43C1004D
:10039000E018D205801800F031F810BDF0B51FB498
:1003A0000646002082B005464024019100901BE0E3
:1003B000019922460F46304600F030FA049A059B18
:1003C000801A994110D310461946224600F016FAB9
:1003D000361A8F410197224601200021009F00F02C
:1003E0000DFA38184D4100902046641E0028DFDCCD
:1003F000019B00982946324607B0F0BD002904DA77
:10040000401C490001D140084000704770B40024EE
:10041000050C05D11024000402D1002921D011249B
:10042000050E01D100020834050F01D10001241D81
:10043000850F01D18000A41C002801DB4000641C52
:10044000002908D020252E1B0D46F540A14000D0E4
:1004500001212943084301061B1B000ADB1D02D5AD
:10046000002070BC7047DB05181880180029F8DAE6
:10047000401C4900F5D170BC40084000704710B5E1
:10048000002B08DA0024401C614192185B411A439A
:1004900001D14008400010BDF0B51FB482B0054640
:1004A0000C0003D0084603F055FF02E003F052FFB2
:1004B0002030024600902146284600F09FF9049B18
:1004C000059A04460F4618431143084314D01846B2
:1004D00010431BD0009840210A1A1846059900F0D5
:1004E0009DF905460E46009A0599049800F086F994
:1004F000084305D0012004E02046394607B0F0BD8E
:100500000020C11705430E432C43374300990E9832
:100510006305401A7905E40A00220C43FD0A0A30FB
:1005200002D500200146E9E70105101969410C9C3C
:100530000D9D00196941FFF7A2FFDFE7F0B50746FF
:100540000846584087B0C00F049048000E46590036
:1005500040084908BC1A884105D2384631461E4633
:1005600017460B4602465800400810434CD0300D49
:10057000039040055900400D490D0590401A029026
:10058000402872DA18030121000B09050843019085
:1005900004980092002805D0019952420020884119
:1005A00000920190029840210A1A0199009800F0E7
:1005B00025F905460C466B4607CB00F040F9C019FB
:1005C0007141039A0E0D0023D71756401A467A4000
:1005D000164344D0049A002A2DD0029A012A039A85
:1005E00015DC1205C01A914101263605001C714127
:1005F000D20F059ED2070093019202962A46234607
:10060000FFF74AFF07B0F0BD38463146FAE7160556
:10061000224A0F46B218C01AB74101210905001C31
:100620004F4100187F41114618187941E20F1043DD
:100630006D19644113E0E2076D0815436408C207B1
:100640001443039A01261205C01A91413605001C75
:100650007141CE07400830434908C01851412A462D
:100660002346FFF70CFFCDE7FFE704980122400087
:10067000C117121A00238B4104983146C417381A47
:10068000A141EEE730B40124E407634030BC55E7F4
:1006900030B40124E407614030BC4FE70000E0FFC4
:1006A000F0B51FB488B00B99099800244840099907
:1006B000C00F490049080991C0070B9900904900F3
:1006C00049080B9109990898A64608431CD00B9934
:1006D0000A98084318D0099801244000420D4800A8
:1006E000410D099824050003000B204309900B9845
:1006F0000003000B20430B9050181C4940180022A7
:1007000001901446104605E0002001460DB0F0BDF2
:10071000032801DA034600E003239C46C11A0AAE0F
:100720000AE05F0008ADED5B4F00F75B7D430027FB
:10073000AA187C41491C5B1E6145F2DD410004ABF7
:100740005A522104120C0A43240C401C0828DFDBF7
:10075000019802900099704601910090059B049ABF
:1007600007990698FFF798FED0E700000DFCFFFF01
:100770004A0009030123090B1B0519430A4B10B555
:10078000520D9A4202DA0020014610BD064B343366
:100790009A4203DC9A1A00F041F810BD034BD218BC
:1007A00000F02CF810BD0000FF030000CDFBFFFFA0
:1007B00010B5002904DB0124E40740428C412146A6
:1007C000002B04DB1C460123DB075242A341994264
:1007D00000D1904210BD0000064C0125064E05E0F8
:1007E000E36807CC2B430C3C98471034B442F7D352
:1007F000FFF76AFC705400089054000810B5202AD6
:1008000004DB0146203A9140002010BD9140202396
:100810009C1A0346E3401943904010BD10B5202AAE
:1008200004DB0846203AD040002110BD0B46D340DF
:10083000D0402024A21A91400843194610BD10B59B
:10084000202A06DBCB170846203A1041C1170B437C
:1008500006E00B461341D0402024A21A91400843E1
:10086000194610BD70B58C180578401C6B075B0FDE
:1008700001D10378401C2A1106D10278401C03E004
:1008800006780E70401C491C5B1EF9D12B0705D45D
:100890000023521E0DD40B70491CFAE70378401C4C
:1008A000CB1A921C03E01D780D70491C5B1C521E74
:1008B000F9D5A142D8D3002070BD70B504460068B8
:1008C0008168490720D5816810264907002905DA83
:1008D0008168890702D481683143816000F028FD76
:1008E00005460DE000F024FD401B0A2808D9A06D44
:1008F0003043A065E06D01210843E065084670BD06
:10090000206880684007EDD4002070BD38B50446EB
:10091000064805490068FFF7EBFB604300E0401E16
:1009200000900028FBD138BD40420F008C01002010
:10093000F8B50446006881688907890F012925D127
:100940000168C90722D081680522114010250126BF
:1009500001290FD18168022211438160216803209F
:10096000086000F0E5FC07460CE000F0E1FCC01B6D
:100970000A2807D9A06D2843A065E06D3043E065E3
:100980000120F8BD20688068C007EED10020F8BDC6
:10099000F8B50446006881688907890F012902D1EA
:1009A0000168C90722D18168114A1026114001252A
:1009B00000290ED18168294381600120FFF7A6FF3D
:1009C00000F0B6FC07460CE000F0B2FCC01B0A28A1
:1009D00007D9A06D3043A065E06D2843E065012094
:1009E000F8BD20680068C043C007EDD10020F8BD05
:1009F0001700008070B50C46042826DD144D202811
:100A000002D0212821D10FE00846FFF7C6FB0002E3
:100A1000E178000A09060843286020792871607986
:100A20006871A079A87110E0287820702888000AE1
:100A300060702868000CA0702868000EE0702879AB
:100A4000207168796071A8798871002070BD0000FC
:100A5000200100200020704710B5084C06480022F5
:100A60000749206002F069FF05492068803902F0DB
:100A70005AFF002010BD00008C0900201C0100203E
:100A80002802002070B50C460A68054601460B484E
:100A9000FFF758FB208881B2084800F015F80121C3
:100AA00007A000F011F8074C2946206802F03BFF30
:100AB000206802F012FF002070BD00002802002014
:100AC0000A0000001C01002010B5074C03462068F6
:100AD000002807D00A46194602F02FFF206802F0CE
:100AE00071FF10BD022010BD1C0100201A49886949
:100AF000C2051A4803D5426908231A4342618A692C
:100B0000920503D5426904231A4342618A6952055A
:100B100003D5426902231A4342618A69120503D54B
:100B2000426910231A4342618A69920403D54269DB
:100B300001231A4342618A69920303D54269202343
:100B40001A4342618A69D20303D5426940231A439A
:100B500042610348886170470020024090010020F4
:100B6000002F030070B5054600F0E2FB06461C4C62
:100B70000AE0681C08D0002D04D000F0D9FB801BCF
:100B8000A84201D9032070BDA069C043C007F0D0BE
:100B9000A069800701D50220A061A069C043C005FB
:100BA00017D5A069C043800513D5A069C04340058F
:100BB0000FD5A069C04300050BD5A069C0438004D0
:100BC00007D5A069C043800303D5A069C043C00313
:100BD00003D4FFF78BFF012070BD002070BD000023
:100BE00000200240F8B506460D464036317D012909
:100BF0000DD00121317501688A68520709D5816DD0
:100C0000202211438165002030750120F8BD0220AB
:100C1000F8BD174B6A68D80547109A42154C8A6A86
:100C20002B6812D05B035B0B1A438A622968490365
:100C300005D5A1680143A1600A20FFF767FE286877
:100C4000800312D5A06838430EE05B035B0B9A4328
:100C50008A622968490302D5A1688143A160286896
:100C6000800302D5A068B843A06000203075F8BDAD
:100C700001100000002701400068006C7047000070
:100C800070B5040006D0A06D264600254036002829
:100C900002D006E0012070BDE5653575204600F004
:100CA000D1F8A06DC00603D421688868400705D537
:100CB000A06D10210843A0653575EBE7A06DFF22FC
:100CC0000132904302221043A06588688207920F88
:100CD0005948012A02D10A68D2072BD1032362693D
:100CE0009B079A4205D05B429A4202D05B009A422F
:100CF00009D10A69920092080A6121680A69636948
:100D00001A430A610CE00A69920092080A6181683C
:100D10000F2292049143816081686269114381606E
:100D20002168CA6818239A43CA602168CA68A369FF
:100D30001A43CA608168012252069143816081682A
:100D4000A26C52061143816020688168C90004D4F6
:100D5000816801221207114381602068C168374A07
:100D60001140C160216A606A022923D00021084332
:100D7000A16AA26B4903520011430843216C084346
:100D8000616C89030843E16CC90308432168CA68A0
:100D90001043C860206B0146FF39C23905D0616B32
:100DA00008432168CA681043C860E06A012101282D
:100DB00002D00BE00421DAE7A06A002823D0A06D5E
:100DC00020221043A065E06D0843E06560680128BB
:100DD00020681FD00169C90703D00169490849008B
:100DE000016120684169C908C90041612068416901
:100DF000E26911434161E565A06D80088000401CF7
:100E0000A065002070BD2068C26801231B041A433E
:100E1000C260DBE702690A4B1A400261206802697E
:100E2000A36826691A43E36833431A4302612068C2
:100E300002690A430261D4E7002701401902FEFF5C
:100E400003FCFF7F30B500680D4985B0884215D19D
:100E50000C48416B42151143416380200324002557
:100E60006A4631C205206946000700F099F90094EE
:100E7000694605480295019400F092F905B030BD2D
:100E8000002401400010024000040050F8B5044660
:100E9000C06B254640350E4608280BD02068C06838
:100EA000C00709D0A06D20210843A0650020287547
:100EB0000120F8BD082700E00C2700F039FA009067
:100EC00011E0701C0FD0002E05D000F031FA00990F
:100ED000401AB04207D9A06D04210843A065002044
:100EE00028750320F8BD206800683842E9D0A06D5D
:100EF000012149020843A0652068C16809058A0FDD
:100F00000C21002A1AD1A26A002A17D102681207FE
:100F100014D5826853070122002B08DB43688B43FA
:100F20004360A06D130298431043A06506E0A06DD6
:100F300020231843A065E06D1043E065606C002835
:100F400001D1206801600020F8BD000070B50446A2
:100F5000216800208968490721D425464035297D2C
:100F600001291CD001212975E16C012904D02046FA
:100F7000FFF70EFD002811D1A16D0A4A1140FF2292
:100F800001321143A1650021E165297522681C2108
:100F9000116021688A6804231A438A6070BD0220A8
:100FA00070BD0000FEF1FFFF70B5054604464035F8
:100FB000287D012807D001262E752046FFF77DFCED
:100FC000002802D00CE0022070BD2046FFF7B0FCE4
:100FD000002805D1A16DFF22013291433143A16563
:100FE0000021297570BD000070B54379012B19D01F
:100FF0000125457102230371066834680A4B93404A
:101000009C430B6849680B4393402343336001685A
:101010000B68C0249440A3430B600571002141710B
:10102000084670BD022070BDFE0F000070B50400C0
:1010300004D020790025002802D005E0012070BDF1
:101040006571204600F008F802202071E56001205B
:101050002071002070BD000000B500680A4985B00D
:1010600088420FD10948816B4204114381631020EB
:10107000009003200190002002900520694600079F
:1010800000F08EF805B000BD007400400010024072
:1010900008B500688018083000900360002008BD83
:1010A00030B54279012A13D0012242710223037123
:1010B00003681D6814468C4025431D6001680B6859
:1010C000042423400C6838252C40042B02D006E071
:1010D000022030BD382C02D14B6813434B600271A3
:1010E00000214171084630BD30B502681468012303
:1010F0001D468D40AC4314600371002030BD31B5F6
:1011000000F016F9044600F013F90099001B88421C
:10111000F9D338BD034841680122114341600020E2
:101120007047000000200240F8B5124D0746287CA9
:1011300014460E46012807D0012028740E48FFF7F8
:1011400011FD002802D012E00220F8BD00206861E5
:10115000022F04D0012F04D0002F04D004E034600B
:1011600002E0348000E034700348FFF7FBFC00210C
:101170002974F8BD9001002050C300000548416863
:10118000C90705D00449C1600449C1600020704707
:101190000120704700200240EFCDAB890504030217
:1011A000F8B500230124A2E027469F403A4070D0C2
:1011B0004D68022D01D0122D14D1DD08AD002D187F
:1011C00000952D6A5E07AC46F50E0F26AE46AE4082
:1011D0006546B543AC460E697546AE4065462E433E
:1011E000009D2E624D68012D05D0022D03D0112DDA
:1011F00001D0122D16D185680326AC465D00AE469F
:10120000AE406546B543AC46CE687546AE406546D1
:101210002E43866046680D79BE43ED06ED0F9D4076
:101220003543456006685F000325BD40AE46AE43CA
:101230000D79B446AE07B60FBE4065462E43066034
:10124000C6687546AE438D68BD403543C5604D6880
:10125000ED004BD5294D6E6B26436E639E08284DDD
:10126000B6007519AC46AD689E07360F0F27B7401C
:10127000BD4305273F07B84201D1002715E0214FA4
:10128000B84201D1012710E01F4FB84202D1022716
:101290000BE02BE01D4FB84201D1032705E01C4FA6
:1012A000B84201D1052700E00627B7402F43654625
:1012B000AF60184D2E684F689643FF0300D5164364
:1012C0002E606E684F689643BF0300D516436E606C
:1012D000AE684F689643FF0200D51643AE60EE68D5
:1012E0004F689643BF0200D51643EE605B1C0A6848
:1012F0001546DD4000D057E7F8BD00000010024061
:10130000000001400004005000080050000C005094
:10131000001C0050000401400069084000D001207A
:101320007047002A01D081617047816270470000D8
:1013300001480068704700000000002070B50246B8
:101340002032537D022B27D0537D122B24D0537D86
:10135000222B21D0537D322B1ED0537D422B1BD00C
:10136000137D012B18D001231375022454750468D2
:1013700025689D432560046825681E03B5432560E4
:10138000046825680D432560006801681943016001
:1013900053750020107570BD022070BD70B504003B
:1013A00006D025462035687D0026002802D005E0BD
:1013B000012070BD2E75204600F042F802206875AD
:1013C000206801684908490001600F21606809062A
:1013D000884321680861206882680121C9038A4323
:1013E0008260A068002807D0E268012A01D021218C
:1013F0008902084321688860E068022802D12168D8
:1014000080024860206841680C4A1143416061696C
:1014100020690843A169090208432168C860216A5C
:10142000E0690843216808602068026801210A43D6
:101430000260A6636975002070BD00000080000294
:1014400000B500680C4985B0884212D1C0200090D8
:10145000122001210190032002910491039069461A
:101460000648FFF79DFE0648816B01225205114395
:10147000816305B000BD000000540040000400502E
:1014800000100240FFB5064604462036707D81B04C
:10149000174601287BD10298002844D0002F42D063
:1014A000307D012873D001203075422070750020F6
:1014B000A063206841680125ED03A9434160002233
:1014C00008212046049B01F0FBFC002804D0206882
:1014D00041682943416041E021680820C861E06813
:1014E00002280AD1002208212046049B01F0E8FCD2
:1014F0000028ECD121680820C861012100220904DC
:101500002046049B01F0DCFC0028E0D12046049931
:1015100001F036FD002809D0206841682943416068
:10152000A06B04281AD1012005B0F0BD02982168F3
:10153000007888620298401C7F1E3F0402903F0C96
:10154000E4D11921204601F0F3FC00280AD02068DC
:10155000416829434160A06B042801D00320E3E7E0
:101560000020A06321682020C8610122294620466E
:10157000049B01F0A5FC0028A9D1206841682943FB
:1015800041600120707500203075CDE7FFE7022033
:10159000CAE7000002480168491C0160704700006A
:1015A0000000002010B50648016840221143016088
:1015B000002000F007F800F017F8002010BD000030
:1015C0000020024010B5044600F094FF7D21C900C0
:1015D000FEF78EFD01F000FC00222146501E00F0B7
:1015E0001BF8002010BD000010B50548416B01221A
:1015F0001143416300221146501E00F00DF810BD4A
:1016000000100240C106C90E01208840014908604F
:101610007047000000E100E010B501F0F9FD10BDD9
:1016200010B50C0606D54906490E1C24614308185E
:10163000283004E01C2461430818FF30093099B2B7
:10164000002A06D001228272C180190C018100207B
:1016500010BD002282728180F9E71C224A431218D1
:1016600010B5FF30FF300230926BC06902F043FBCF
:1016700010BD1C224A43121810B5FF30FF32FF3054
:10168000013202309269C06902F090FB10BD000087
:10169000F0B54B065B0E1C461C225343CD091A18AD
:1016A000002D01D0283201E0FF32093203461470C8
:1016B000C909FF335170E133197A01293DD0012165
:1016C0001972947A4C49002C547838D0002C147834
:1016D00005685FD0A4002E5B760404D52E5B474FCF
:1016E0000E403E432E5314780568A4002E5B760608
:1016F00004D52E5B424F0E403E432E5314780568AE
:10170000A4002E5B0E403D490E432E53117806680F
:101710008D00715B384C30342140394C403C2143C2
:101720007153016810788200885A344DF13D284089
:101730002043885200201872F0BD0220F0BD002C1A
:1017400011D014780568A4002E5B760604D52E5BB4
:101750000E402B490E432E53046810788100605AC6
:10176000254A303210E015780468AD00665B7604D7
:1017700004D5665B0E4021490E4366530468107819
:101780008100605A1D4AF13A10401D4A403A104308
:101790006052CFE7A4002E5B760404D52E5B174F72
:1017A0000E403E432E5314780568A4002E5B760647
:1017B00004D52E5B124F0E403E432E53147805681D
:1017C000A4002E5B0E400E490E432E53117806687E
:1017D0008D00715B094CF13C2140094C403C214398
:1017E0007153056810788100685A034A30321040FE
:1017F000204368529EE700008F8F000080C00000E9
:10180000C0800000F0B54B06CA095B0E002A04D068
:101810001C225A431218283204E01C224A43121890
:10182000FF3209320024947013700346C909FF3354
:101830005170E133197A01291DD0012119725178B3
:101840001B4E00291B4C1178056816D089006F5A71
:101850007F0605D56F5A3740164E403637436F52D4
:10186000117800688A00815A114D303529401025C1
:101870006940202515E00220F0BD89006F5A7F04E1
:1018800004D56F5A37400C4E37436F5211780068B9
:101890008A00815A084DF13D294001252D036940F8
:1018A0006D0069402143815200201872F0BD000094
:1018B0008F8F00008080000080C000004906490E24
:1018C0001C2251430818FF300130008C80B2704751
:1018D000F0B54D066D0E2E461C246543CF092C181D
:1018E000002F01D0283401E0FF3409342670C909E3
:1018F00061700146FF31E260E131E3708C46097AA4
:1019000001290DD0012261460A72E2789A49002A23
:1019100008D0012A1FD0022A0ED0032A24D112E0B7
:101920000220F0BD237802689D00535B0B40FF331B
:10193000FF330233535317E02278036892009D5A15
:101940000D409D5210E0237802689B00D55A0D404F
:101950000321490206E0237802689B00D55A0D4016
:10196000012189026918D152237806689D00725BB3
:1019700082490A4082490A431A437253A27A002AD2
:1019800059D02278076895007B5B7C4A7D4E1340D6
:1019900033437B53E38850265D0803686D00F65A95
:1019A000F6182378DF0001239B02FB18F5522389E8
:1019B00050265D0803686D00F65AF6182378DF009C
:1019C0004B11FB18F55263780768002B23787BD006
:1019D0009B00FD5A6D0404D5FD5A6B4E15403543EE
:1019E000FD52237807689B00FD5A6D0605D5FD5A08
:1019F000634E154040363543FD5225780368AD00EF
:101A00005E5B1640604A16435E5322780368950079
:101A10005A5B5A4E303632400A435A530268207895
:101A20008300D05A584CF13C20400843D05200204B
:101A300061460872F0BD6278002AA28821D053085E
:101A400002685025AD5A5B00AD182278D6000122FD
:101A50009202B218AB522278036892009D5A6D062A
:101A600006D59D5A454E3540454E403635439D522C
:101A7000026820788300D05A404C30342040202423
:101A800042E0530802685025AD5A5B00AD18227839
:101A9000D6003E4AB218AB52026850239B5A3B4DC7
:101AA0009A182378AD1CDB005B19D518E2683E2A32
:101AB0000BD9D3021B0CD20601D15B1E9BB29A023A
:101AC0000123DB031A4307E020E0D3031B0CD207FA
:101AD00001D05B1C9BB29A022A8022780368920094
:101AE0009D5A6D0405D59D5A244E3540264E3543EA
:101AF0009D52026820788300D05A234CF13C20404C
:101B0000012424036040640060408EE79B00FD5A7E
:101B10006D0404D5FD5A1C4E15403543FD52237803
:101B200007689B00FD5A6D0605D5FD5A144E1540F9
:101B300040363543FD5225780368AD005E5B1640A4
:101B40000F4A403216435E532278036895005A5B71
:101B50000D4EF13E3240012636037240760072404F
:101B60000A435A53036820788200985A034C303451
:101B70002040084398525AE78F8900008F8F000059
:101B8000808000008081000080C00000040400000C
:101B9000F0B54906490E1C244C432418FF3409347F
:101BA000636122610022A26103466270FF332170EB
:101BB000E133197A012908D0012119726569E168B8
:101BC0008D4204D96D1A656103E00220F0BD2946FB
:101BD0006261A57A002D05D06578002D19D0012D00
:101BE00037D059E005685026765B76192578EF00E6
:101BF000324D7D1976193E293ED9CD022D0CC906EC
:101C000037D0A9020125ED03294300E0A902318064
:101C100042E005685026765B76192578EF00274D5F
:101C20002D1F7D1976193E290AD9CD022D0CCF061C
:101C300001D16D1EADB2AD020127FF033D4306E0A9
:101C4000CD032D0CCF0701D06D1CADB2AD02358098
:101C500009E005685026765B76192578EF00174D68
:101C60002D1F7D1971536578002DBBD0012D0AD031
:101C700012E06D1EADB2C4E7CD032D0CC907C5D06F
:101C80006D1CADB2C2E705685026765B76192578E3
:101C9000EF000A4D7D197153217800688C00015BBB
:101CA000074D294001252D0369406D006940054D10
:101CB000294301531A720020F0BD00000604000001
:101CC0008FBF000080800000F0B50246FF32E13295
:101CD000137A012B0BD001244F06CB097F0E14720F
:101CE000002B06D01C237B431B18283306E0022060
:101CF000F0BD1C234B431B18FF3309339C701F702E
:101D0000CE095E70012424031025114B002F0BD047
:101D10004906C90D002E10D00468605A0D4E30409F
:101D200068401843605210E0006801880A4E314054
:101D3000614069401943018007E00568685A064E12
:101D4000303E304060401843685200201072F0BDB1
:101D500080800000BF8F0000BFBF0000F0B50646C6
:101D60004806400E1C2141438C19E3630021A26305
:101D700021640121283437466170FF372070E13734
:101D8000387A012806D03972E5686069A84203D91B
:101D9000401B03E00220F0BD054600206061A07AF0
:101DA000002807D060780121C903002812D001283B
:101DB0002DD061E0ABB2A2882169306801F0F7FB59
:101DC00030685021095A09182078C2004548101877
:101DD0000D5274E030685022125A12182078C30055
:101DE0004048181812183E2D08D9E802000CEB06DE
:101DF00001D1401E80B28002084306E0E803000CD7
:101E0000EB0701D0401C80B28002108008E03068EF
:101E10005022125A12182078C3003248181815524E
:101E2000304A6078121D002802D001281CD023E01F
:101E3000306850231B5A18182378DB009A18821830
:101E40003E2D08D9E802000CEB0601D1401E80B2FD
:101E50008002084306E0E803000CE90701D0401CBB
:101E600080B28002108007E030685021095A0818BB
:101E70002178C90089184552217830688900415A73
:101E8000490601D5228900E0E288ABB2216901F060
:101E90008EFB60781449002802D0012807D00EE09C
:101EA000207832688000135A0B40104905E02078F2
:101EB00032688000135A0B400D490B4313522078AF
:101EC00031688200885A084B30331840102358403C
:101ED00020235840054B403B18438852002038725D
:101EE000F0BD0000020400008F8F0000C0800000E1
:101EF00080C0000070B50446006840308088C00B88
:101F000002D0204601F0A6F92068403081884905BA
:101F10000AD58188334A11408180204600F0D6F8E6
:101F20000021204600F0FCF82068403081884904F8
:101F300003D581882C4A11408180206840308188F7
:101F4000890403D58188294A114081802068403066
:101F500081880425C904002910DA0188A943018079
:101F6000BD202168000240310880204600F0BAF808
:101F70002068403081881E4A1140818020684030AE
:101F80008188090517D581881A4A11408180206807
:101F900040300188082211430180206840300188C8
:101FA00029430180206840308088C043C00402D5A6
:101FB000204600F0DFF8206840308188890506D58A
:101FC00081880D4A11408180204600F0A1F82068E8
:101FD00040308188C90503D58188084A1140818035
:101FE00070BD0000FFFB0000FFBF0000FFDF00002E
:101FF000FFEF0000FFF70000FFFD0000FFFE000004
:10200000F8B500270446002807D02646FF36E136FB
:10201000707A0025002802D005E00120F8BD357255
:10202000204600F03BF80320707201210BE01C20D9
:10203000784302191046203041720772C572556309
:1020400095637F1CD5636068B842F0D800200BE030
:102050001C2242431219FF32013255721072D5729E
:1020600055619561401CD56162688242F0D8206854
:1020700040300180206840300580206840308580F5
:10208000206840300582BD20226800024032108066
:102090002034257171720020F8BD000010B5006871
:1020A000084988420DD10848816B0122D2051143AD
:1020B0008163002211461F20FFF7AEFA1F20FFF7B1
:1020C000A1FA10BD005C00400010024010B5C41D14
:1020D000FF34FA340121E06901F049FFE06901F0C1
:1020E0000EFF10BD10B504468069002806D00748D1
:1020F000016906229143016101F0AAFAFF34FF341D
:102100000234E06901F01EFF10BD000000ED00E0A8
:10211000FF3010B5FF300230C06901F019FF10BD6B
:102120000246FF32E132137A012B08D001231372E9
:10213000002906D020300171002010727047022063
:1021400070470068802140308181F5E710B5872114
:1021500089000A580146FF31ED31104601F013FFA6
:1021600010BD00684030018B0122D203114301836E
:102170000020704710B50446FF30FF300230C069C0
:1021800001F042FFA069002804D00348016906223B
:102190001143016110BD000000ED00E0094B1A6819
:1021A0009208920002431A600748026904239A4386
:1021B0000261012903D040BF20BF20BF704730BF5C
:1021C000704700000070004000ED00E01C498B6A81
:1021D000CA0313438B628B6A93438B6219494A6823
:1021E000B7231B069A434A604A6803681A434A6049
:1021F0004A6843681A434A604A6883681A434A60D7
:102200004A68120E12064A604A68C3681A434A6056
:102210004A68038A1B041A434A600A683F231B0268
:102220009A430A600A684069000202430A6008682B
:10223000402210430860086820221043086070475D
:1022400000100240006C0040F8B504460078534D81
:10225000800660D5514E403E3168032760693F05D6
:10226000024639403A40914208D08003800F03284B
:1022700004D13068800301D50120F8BDB06B012185
:1022800009070843B063464801688215114301609D
:10229000FFF74EF8009005E0FFF74AF80099401A62
:1022A000642823D83E480068C005F5D52869032175
:1022B0000904626908400A4090422CD028692A69C2
:1022C00088430121C9040A432A612A698A432A6191
:1022D000286180050FD5FFF72BF8009008E0FFF785
:1022E00027F80099411A2F48814201D90320F8BDEF
:1022F00028698005F3D560698103890F032946D0D9
:102300003068B84330602969032000046269814362
:102310000240114329612078C00705D0E868616850
:10232000800880000843E8602078800705D5E868C9
:102330000C218843A1680843E8602078400706D54F
:10234000E868032189028843E1680843E86020784F
:10235000000706D5E868032109038843216908437B
:10236000E8602078400606D5E868012189068843A0
:10237000A1690843E8602078000606D5E8680321D3
:1023800089048843E1690843E8600020F8BD3168AA
:102390003840B94301433160B5E7000040100240C6
:1023A0000070004088130000F8B505464E480E4600
:1023B0000068C007C00FB0420AD24B480168490804
:1023C0004900314301600068C007C00FB0426FD1BF
:1023D0002878464C800705D5E068F0218843A96835
:1023E0000843E0602878C00752D06868022817D0F8
:1023F000002818D02168032818D04907002957DA87
:10240000E168890889000143E160FEF791FF69688E
:102410000746022912D003291CD0002926D032E019
:1024200021688903EAE721688905E7E78901E5E78B
:10243000FEF77EFFC11B2E48814222D8E0680007CC
:10244000800F0228F4D123E0FEF772FFC11B284859
:10245000814216D8E0680007800F0328F4D117E006
:10246000FEF766FFC11B224881420AD8E0680007D8
:10247000800FF5D10CE0FEF75BFFC11B1C488142C9
:1024800001D90320F8BDE0680007800F0128F2D1D0
:1024900015480168C907C90FB1420BD30168490843
:1024A0004900314301600068C007C00FB04201D04D
:1024B0000120F8BD2878400706D5E0680721090209
:1024C0008843E9680843E0602878000707D5E0689A
:1024D0000721C90288432969C9000843E060002038
:1024E000FFF770F80020F8BD002002400010024005
:1024F0008813000010B500F011F80549C968054AB5
:102500000906090F515CC8400349086010BD00006E
:1025100000100240E45300088C01002010B51A4A54
:102520005068D3680004410F0C200340174805D0C1
:10253000042B06D0082B0BD00C2B0BD0491C884049
:1025400010BD1068C00601D5114810BD114810BD5E
:10255000114810BDD068D1688002104B000F185C84
:102560000902D368890F01242404491C234204D1A1
:102570001268D20603D5064A02E0074A00E0054A7F
:102580005043FDF7B5FD10BD001002400080000073
:1025900000093D000024F40000127A0010540008E5
:1025A000FEB504460078FA4DC0074DD0E868000734
:1025B000800F022807D0E8680007800F032809D1A0
:1025C000E868C00306D5286880033DD56068002808
:1025D00075D039E0012062680004824203D1296885
:1025E0000143296014E0052301211B0489049A4258
:1025F0002A6805D182432A602A680A432A60EEE7E6
:1026000082432A602A680240009228688843286032
:10261000606800280CD0FEF78BFE064604E0FEF74B
:1026200087FE801B64287DD828688003F7D50BE0DF
:10263000FEF77EFE064604E0FEF77AFE801B642865
:10264000F1D828688003F7D42078800740D5E8685F
:102650001F270007800F3F02012807D0E868000706
:10266000800F032809D1E868C00306D42868400712
:1026700017D5E068012822D113E0E168092000297C
:1026800016D02A6882430A432A60FEF751FE0646A6
:1026900004E0FEF74DFE801B0228C4D828684007DE
:1026A000F7D568682169B8430902084368600FE0FC
:1026B000296881432960FEF73BFE064605E096E067
:1026C000FEF736FE801B0228ADD828684007F7D4F5
:1026D0002078B04FC0064BD5E8680007800F09D0BE
:1026E000E0690028286835D038432860FEF720FECE
:1026F00006461DE02868800502D5E069002876D0EE
:102700006868072149038843616A0843686068680C
:10271000218C0002000A0906084368600020FEF7C9
:1027200051FF25E0D9E0FEF703FE801B022887D881
:1027300028688005F7D56868072149038843616ADE
:10274000084368606868218C0002000A0906084393
:1027500068600DE0B8432860FEF7EAFD064604E035
:10276000FEF7E6FD801B022897D828688005F7D47D
:102770002078894E000724D560690028306910D080
:10278000012108433061FEF7D3FD009005E0FEF71C
:10279000CFFD0099401A022896D830698007F6D5F7
:1027A0000FE0400840003061FEF7C2FD009005E0F8
:1027B000FEF7BEFD0099401A022885D830698007CF
:1027C000F6D42078800633D5A069744A002819D041
:1027D000A96801200143A960696B01436963106A1C
:1027E0006F4908431062FEF7A3FD009006E0E9E0A0
:1027F000FEF79EFD0099401A02286ED8A86880074F
:10280000F6D515E0A86840084000A860106A644941
:10281000C94308401062FEF78BFD009005E0FEF70B
:1028200087FD0099401A022857D8A8688007F6D477
:10283000207840076FD5002002900190A86BC0005F
:1028400006D4A86B012109070843A8630120029060
:1028500054480068C00513D45248016839430160E8
:1028600001200190FEF764FD009005E0FEF760FD99
:102870000099401A642830D84A480068C005F5D548
:10288000A068B84202D1306938430CE001218902C6
:10289000002803D00522120290420CD03069B843C0
:1028A0003061306988433061A068002816D0FEF797
:1028B0003FFD00900DE03069B84330613069084356
:1028C0003061E0E7FEF734FD0099411A3648814255
:1028D00071D830698005F5D50EE06CE0FEF728FD73
:1028E000009006E0FEF724FD0099411A2E4881422F
:1028F00061D830698005F5D40198002803D02948B3
:102900000168B94301600298002804D0A96B012036
:1029100000078143A963A06A002851D0E96809072C
:10292000890F03294ED0012636060228286805D0D3
:10293000B0432860FEF7FCFC04463EE0B04328604C
:10294000FEF7F6FC074604E0FEF7F2FCC01B022887
:1029500031D828688001F7D4616B206BEA6808439E
:10296000E16AFD231B049A4311430843E860286889
:1029700030432860FEF7DCFC044604E0FEF7D8FC98
:10298000001B022817D828688001F7D518E000003E
:102990000010024000010000401002400000014011
:1029A000012000000070004088130000FEF7C0FC0A
:1029B000001B022801D90320FEBD28688001F5D440
:1029C0000020FEBD0120FEBDF7B5054604462035BA
:1029D000287882B0012814D0012028700220687065
:1029E0002168CA20486221685320486220688068B4
:1029F00000264005FF27002812DAFEF799FC009018
:102A00000AE0022005B0F0BDFEF792FC0099411AE1
:102A10007D20C000814215D82068C0684007F3D4EB
:102A2000206881680122920291438160FEF780FC58
:102A300000900DE0FEF77CFC0099411A7D20C0005B
:102A4000814205D920684762032068702E70D9E75B
:102A50002068C0684007EDD5216803984861206868
:102A60008168C908C900816020688168049A11439F
:102A700081600D480268012109050A4302608268ED
:102A80000A438260206881680122920311438160B9
:102A9000206881681211114381602068476201201B
:102AA00068702E700020ADE7000401407047000000
:102AB00010B504460068C068400509D52046FFF7F8
:102AC000F5FF2068C16880221140054A8918C1605D
:102AD000012004490005486101202034607010BDC8
:102AE0007FFBFFFF0004014070B5040005D02546C0
:102AF00020356878002802D006E0012070BD002053
:102B00002870204600F042F8022068702168CA2030
:102B10004862216853204862204600F06EFDFF2184
:102B20000028206803D0416204206870E5E78268CD
:102B3000154B1A408260226890686368A669184342
:102B400023693343184390602268E068106120686D
:102B5000026923891B041A4302612068C26880232A
:102B60009A43C2602068C26C92089200C264E26913
:102B7000606902432068C36C1A43C26420684162E2
:102B800001206870002070BDBFFF8FFF10B5006886
:102B9000084988420DD10848016901229204114375
:102BA0000161002211460220FEF736FD0220FEF7E9
:102BB00029FD10BD0028004040100240F8B5054630
:102BC0000446203528780B46012815D001202870AE
:102BD000022068705878002A10D000F0FBFC98782A
:102BE00000F0F8FCD8789E780004064358781978ED
:102BF00000024903084316E00220F8BDC10603D5D0
:102C0000EF2108400A305870D87800F0EBFC060439
:102C1000587800F0E7FC00020643987800F0E2FCE8
:102C200006431878400306432168CA204862216899
:102C300053204862204600F0E0FC0027002811D114
:102C400010480640206846602068C1688022914391
:102C5000C1602068806880060CD4204600F08CF8A3
:102C6000002807D02168FF204862042068702F7078
:102C70000120F8BD2168FF204862012068702F7094
:102C80000020F8BD3FFFFF00F8B506460446203699
:102C900030780D4601280ED001203070022070706F
:102CA000206800278068002A07D040061AD52878B7
:102CB00000F090FC17E00220F8BD400600D4EF7051
:102CC000287800F08FFC0204687800F08BFC00028A
:102CD0000243A87800F086FC0243E878000402432F
:102CE00000920BE0EF702978A8780904084369780E
:102CF000EA78090212041143084300902168CA20AF
:102D00004862216853204862204600F076FC002883
:102D10001FD1184900980840216808602068816820
:102D200001229204914381602969E868084321687F
:102D30008A68104388602068C16880229143C1601E
:102D40002068806880060CD4204600F015F8002822
:102D500007D02168FF20486204207070377001207E
:102D6000F8BD2168FF204862012070703770002094
:102D7000F8BD00007F7F7F0070B504460068C16821
:102D8000A0229143C160FEF7D3FA7D260546F600E6
:102D900006E0FEF7CDFA401BB04201D9032070BD1A
:102DA0002068C0688006F4D5002070BD0248016923
:102DB000022211430161704700E000E0042204494F
:102DC0000428086902D09043086170471043FBE76C
:102DD00000E000E070470000094910B5401E88423D
:102DE00001D9012010BD074C60610321081F00F0CC
:102DF0000FFA0020A06107202061002010BD000014
:102E0000FFFFFF0000E000E010B5FFF7E3FF10BD9B
:102E100002480169022291430161704700E000E02D
:102E2000F8B50E460446FEF783FA009020688169E3
:102E3000C943C90640D425462035697D122905D0ED
:102E4000697D522902D0697D622907D141688901D3
:102E500004D4416801229203114341600127206894
:102E60008069C04380060FD5701CF8D0002E06D0B4
:102E7000FEF75EFA01460098081AB042EFD96F7566
:102E8000002028750320F8BD21681020C861216842
:102E90002020C86120688169C943C90700D0C76183
:102EA00020684168054A114041600420A0636F75A5
:102EB000002028750120F8BD0020F8BD00E800FEC4
:102EC000F8B51C4615460F460646FEF731FA294668
:102ED00035462035009000290BD021E0601C08D039
:102EE000002C17D0FEF724FA01460098081AA042D9
:102EF00010D83068816938468843C003EED115E0A8
:102F0000601C0DD0002C05D0FEF712FA0099401A73
:102F1000A04205D901206875002028750320F8BD5E
:102F20003068816938468843C003E9D00020F8BD85
:102F300070B50D460446FEF7FBF9064619E0294632
:102F40002046FFF76DFF002801D0012070BD002D45
:102F500004D0FEF7EDF9801BA8420AD9A06B20210E
:102F60000843A063012020346075002020750320F1
:102F700070BD20688069C0438006E0D4002070BD29
:102F800070B50D460446FEF7D3F906461BE0294608
:102F90002046FFF745FF002801D0012070BD681CC6
:102FA00011D0002D04D0FEF7C3F9801BA8420AD926
:102FB000A06B20210843A06301202034607500200D
:102FC0002075032070BD20688069C0438007DED46F
:102FD000002070BD1CB5184816490160002101226F
:102FE0004160920781614261C16141628162C16257
:102FF00001224163026281630164416404228164AD
:10300000C263C164FDF73CFE0C4800900120000340
:10301000019069460848FDF7E5FD094800906946BA
:103020000548FDF7DFFD0748009069460248FDF7B7
:10303000D9FD1CBD00240140FC0B00208000001CB9
:1030400000010020000200241CB508490648086061
:103050000846FDF7EBFF002000900246019069460C
:103060000248FDF7C1FF1CBD00740040B00B0020FA
:10307000F0B52D4887B0C26A04210A43C262C26A11
:103080000A400592C16A01263143C162C16A3140DA
:103090000591C26A02210A43C262C06A0324084041
:1030A00005900320800300256A4631C269461F4807
:1030B000FEF776F805200195694600070295009411
:1030C000FEF76EF81A4F0520029569460007009733
:1030D00001960395FEF764F860200090112001909E
:1030E00005200295694603950007FEF759F8781107
:1030F0006A4631C2052069460007FEF751F83820BC
:103100006A4631C269460B48FEF74AF8052000229C
:1031100039460007FEF705F9052001226021000766
:10312000FEF7FFF807B0F0BD0010024000080050A5
:103130000CE000000004005010B50C480A49016082
:103140000B494160802181600121C1600021016142
:1031500041618161C1610162FEF720F900210348EC
:10316000FEF7ECF810BD000000540040C00B00203A
:10317000FB3D300010B51649164886B0002412C039
:103180007F2101608460C4600461FF21446141606B
:103190000838FFF7A9FC68460470447084700394F3
:1031A000012269460B480494FFF76EFD0121684631
:1031B000017541758175C4750A4605A90548FFF773
:1031C000FDFC022204490348FFF7FEFB06B010BDD8
:1031D00000280040A80400201112000010B50022B1
:1031E0000749084800F05CFD0749064800F031FF38
:1031F0000649044800F08DFB024800F07BFF10BD3B
:10320000380100208C090020E40000202801002063
:103210008307FF22DB0E9A408907090E9940002898
:103220000BDA0007000F0838830808489B001818BD
:10323000C36993430B43C3617047830804489B00F1
:103240001B181868904308431860704700ED00E0B1
:1032500000E400E0F0B585B00446002069468880AF
:1032600020462030029079E199890F073F0F24D042
:10327000BE00815B9980998809046FD5815BBF4A44
:10328000114081531C2078430519FF350935A87A70
:10329000002820687DD029788A00825A520479D586
:1032A0005022125ACB00B64912185918515A8905A2
:1032B000890D00916FD0EA88C0E09989C9062AD4A7
:1032C0000188B04A1140018020685021095A2546E2
:1032D000283509182878C200A9481018085A80050E
:1032E000800D2064A16B0818A06300212046FEF722
:1032F000B4F9029800790028B5D068690028B2D1E5
:103300000298007980210843216840318881029821
:103310000021017122E12546FF3503880935694600
:103320008B80898809051AD5118A09182878C20066
:103330009348001D1018085A294683059B0DAB6160
:10334000AA88E431206800F023F9206801888B4ABC
:10335000114001802046FEF7F9FEFFE095E0694646
:1033600089880904D6D50188844A114001802068E3
:103370005021095A824E08182978361DC90089192A
:10338000405A83059B0DAB610CD0AA88296920683F
:1033900002E033E045E055E000F0FAF8A969286959
:1033A0004018286100212046FEF763F9206850216B
:1033B000095A08188119E8683E280AD9C202120C75
:1033C000C00601D1521E92B290020122D2031043D4
:1033D00006E0C203120CC00701D0521C92B2900248
:1033E000088021680888684A104001221203504072
:1033F00052005040654A10430880AFE05021095AFE
:103400000A182978CB005E49091D5918515A8905B7
:10341000890D009121D0AA882969009B00F0B8F895
:103420001BE05022CB00125A55491218091D591899
:10343000515A8905890D009104D02A892969009B78
:1034400000F0A6F8287821688200885A4D4B803316
:1034500018404E4B403318438852A9690098081809
:10346000A861296900980A182A616B69002B03D0AA
:10347000E9680098814204D929782046FEF7F9F8D6
:1034800003E029782046FEF783FB68468088000623
:1034900064D51C20474320683D19825B39490A40A6
:1034A00082532835A87A002812D028782168820013
:1034B0008A5A52061FD55022525A5118C20030481B
:1034C0001018085A83059B0DAB6125D0EA881FE0D0
:1034D00020685021095A09182878C2002848101875
:1034E000085A83059B0DAB6121D0AA882969206801
:1034F00000F05DF81BE05022525A5218C1002048DB
:10350000001D0818105A83059B0DAB6104D02A8951
:103510002969206800F04BF8297820688900425A10
:10352000184B80331A40184BF1331A43425220682B
:1035300002464030018A88182978114AC900891842
:10354000405A8005800DA86129690A182A616B69B3
:103550002978002B20460DD0FEF700FC206802469B
:10356000403291886B469981090400D57CE60020A1
:1035700005B0F0BDFEF771F8F0E700008F0F000016
:10358000020400000F8F00008FBF00008080000049
:10359000101801225B1C92025B088018002B05D0DA
:1035A00002880A80801C891C5B1EF9D170471018A4
:1035B00001225B1C920210B55B088018002B08D01A
:1035C0004A780C78120222430280801C891C5B1E00
:1035D000F6D110BD01090A2200075143000F40181F
:1035E000C0B27047002102E00A38C0B2491C0A2864
:1035F000FAD20907090E0843704770B504460068FF
:10360000C168490613D40021C943C160FDF790FE8B
:103610007D260546F60006E0FDF78AFE401BB04217
:1036200001D9032070BD2068C0684006F4D5002091
:1036300070BD000010B50248FFF73AFA10BD000057
:10364000A804002010B5FDF7A5FFFFF7DDFB10BDB6
:1036500030B52D4DA1B0A86B29040843A8632B48B1
:1036600001680322D2029143C214891801602A2002
:103670000090012006900390059002200A904004DB
:103680000C900001102100240D9004910B946846C9
:10369000FEF786FF0F201C9003201D901E941F94A0
:1036A000012120941CA8FEF77FFE682014900120C1
:1036B000400318900001199040021A9014A8FEF7D8
:1036C000C3FDA86BE9030843A86388000F90104866
:1036D0001190222012900E942020139010940EA886
:1036E000FEF774FDFEF706FF7D21C900FCF700FD23
:1036F000FFF772FB0420FFF761FB00221146501E0A
:10370000FDF78AFF21B030BD00100240007000407C
:103710007FBB000010480168821511430160C16839
:103720000E4A1140C16001680D4A11400160816874
:1037300049084900816001680122920491430160B7
:10374000C168FD2212049143C16000210161054955
:10375000C003886070470000001002400C40FF88E2
:10376000F6FFF6FE00ED00E0FF30FF30023080692A
:10377000002806D0FF300021FF30023041610846AA
:1037800070470220704770B5C21DFF32FA321546ED
:10379000946900F045FBE11DFF31FA31C860A8696A
:1037A000002808D04868E969CA688321890061183F
:1037B0009047002070BD022070BD70B50446002502
:1037C000812100F08FFA0121204600F08BFA82213E
:1037D000204600F087FAFF34FF340234A069002845
:1037E00007D0E06940688047A06900F091FD0020A3
:1037F000A061284670BDFF3010B5FF301A300AC8EE
:10380000002B0AD0CC1DFF34FA342078FF2804D0D6
:103810009B6862789847FF202070002010BD000050
:103820000A210180004870470C00002043210180DC
:10383000004870475C000020432101800048704729
:10384000180000204321018000487047A00000209C
:10385000F8B50446007C012600257602002830D009
:10386000402302228121204600F034FB4023022223
:103870000121204600F02EFB08230322822120464E
:1038800000F028FB8720800000F044FDE11DFF319F
:10389000FA31886100281CD00746C8690068804753
:1038A000FF370020FF3702377861B861207C7A68E3
:1038B000002810D040230121204600F017FB2846A5
:1038C000F8BD334602228121204600F003FB334637
:1038D000CDE70125F3E73346EDE710B54321C900F5
:1038E0000958002913D0027C002A09D0FF31FF318A
:1038F00002314A684023012100F0F8FA002010BD8F
:10390000FF31FF31023101235B024A68F3E70220F5
:1039100010BD02460220002904D0FF32FF320232DD
:103920000020D1617047FF30FF3002308069FF30E6
:10393000FF300230416000207047FF30FF3002301E
:103940008069FF30FF3002300261816000207047E3
:1039500070B50C46C11D0546FF31FA312078602252
:103960008E69024022D0202A28D1E288002A16D06F
:10397000000607D5C96960788B6831469847E288A8
:10398000314618E0F01DFF306178FA300170A179FE
:103990004170E2883146284600F050F80EE0C969CF
:1039A00060788B6800222146984707E060780A28F3
:1039B00004D103490122284600F05CF8002070BDC4
:1039C0000800002010B54321C9000958002911D072
:1039D000FF31FF3102314A69002A01D0012010BDB8
:1039E00001224A610A8A93B28A68812100F014FB9D
:1039F000002010BD022010BD10B585229200125883
:103A000052689047002010BD134610B50A460021A9
:103A100000F06CFA002010BD134610B50A460021D4
:103A200000F0FAFA002010BD10B50446802100F025
:103A3000D9FA0021204600F0D5FA10BD10B5FF23B9
:103A40000324F5331C50C31DF9339A60DA60134622
:103A50000A46002100F04AFA002010BD10B5FF21EF
:103A60000522F5310A5000231A46194600F03EFAA5
:103A7000002010BD10B5FF230224F5331C508261D5
:103A80001346C2610A46002100F0C6FA002010BDAC
:103A900010B5FF210422F5310A5000231A461946B9
:103AA00000F0BAFA002010BD10B50A46024903A082
:103AB00000F0D4F8004810BDA80200204344432081
:103AC000436F6E66696700001220088000487047E7
:103AD0005801002010B50A46024903A000F0BEF8C4
:103AE000004810BDA802002043444320496E74657D
:103AF000726661636500000004200880004870471A
:103B00005401002010B50A46024903A000F0A6F8AF
:103B1000004810BDA802002053544D6963726F65C0
:103B20006C656374726F6E696373000010B50A464A
:103B3000024903A000F092F8004810BDA80200203E
:103B400053544D3332205669727475616C20436F43
:103B50006D506F727400000010B50A46024903A050
:103B600000F07CF8004810BDA80200203030303052
:103B7000303030303030314100000000F8B50D46B3
:103B800004464988FF300A0AFF300230130000F073
:103B9000F8FB084905091649493E46490069237C56
:103BA00002682AE0217C02264069002905D0C16A0A
:103BB000684688470146467040E0816AF8E7C9B226
:103BC0000B0000F0DEFB0604080F13171E2F006920
:103BD000227C436802E00069227C836869461046C3
:103BE000984712E00069227CC368F7E70069227CED
:103BF0000369F3E70069237C4269694618469047E8
:103C000003E00069227C8369E8E7014616E0217C35
:103C1000002907D14069416B68468847F5E7217C58
:103C2000002904D029462046FFF7FEFEF8BD406972
:103C3000016B684688470722014642706846008843
:103C40000028F3D0EA88002AF0D0824200D9024648
:103C5000684602802046FFF70DFFF8BD70B50023CF
:103C600000281CD00446002502E06D1CEDB2641C47
:103C70002678002EF9D16C00A41C1480CC540322A9
:103C80005B1CCA5400245B1C06E0CA545B1CDAB2FD
:103C90008C54521CD3B2401C0278002AF5D170BD5E
:103CA00010B5002813D0C31DFF33FA335C69002C14
:103CB00001D000245C61002900D01961FF2101239B
:103CC000FD310B54027000F0B3F8002010BD02204B
:103CD00010BDFF3010B5FF300230006AFDF792FDD5
:103CE000002010BDFF3010B5FF300230006AFDF734
:103CF000CFFC002010BDFEB50446FF30E51DE130CD
:103D0000FF35FA3513460190002908D068694269E9
:103D1000002A49D00198007F032843D044E026467A
:103D2000FF3681362046716F1430022934D1C268C3
:103D300081680092914207D9891A81608AB2194636
:103D40002046FFF769FE13E0406811460746FCF77E
:103D5000CFF9002913D10098874210D3B06F874262
:103D60000DD2002211462046FFF756FE0020B06714
:103D700000231A461946204600F0B8F80CE068699E
:103D8000C168002905D00198007F032801D1204691
:103D900088472046FFF762FE2878012804D10020DA
:103DA000287001E0204690470020FEBD70B5054612
:103DB000FF35E1352B46203316460446002907D04F
:103DC00058698269002A29D0287F032824D025E059
:103DD000FF21F531E01D0959FD3003291ED182680C
:103DE000C1688A420BD9511A8160C068814200D3F0
:103DF00001468AB231462046FFF706FE0EE05869BA
:103E00000169002904D0287F032801D12046884772
:103E10002046FFF73DFE01E020469047002070BDA0
:103E2000FF3010B5FF300230006AFDF747FD10BDCE
:103E300010B51C49C41DC861FF341B49FA341B4826
:103E400021620860022205208A60486003200A611E
:103E5000C8600020886108620846FEF7D1F8002299
:103E600018231146206AFDF7DBFB5823002280212E
:103E7000206AFDF7D5FBC02300228121206AFDF7CF
:103E8000CFFBFF23113300220121206AFDF7C8FB7D
:103E9000FF23013300228221206AFDF7C1FB0020AD
:103EA00010BD00006C0900206C070020005C004081
:103EB000FF30CA09FF3049060230490E1C23006A50
:103EC00059430818002A01D0203001E0FF300130AA
:103ED000807A704710B5FF301C46FF300230134621
:103EE000006A2246FDF7F4FC002010BDFF3010B53B
:103EF000FF300230006AFDF74BFE002010BD70B5A8
:103F00000022044640231146FFF7E4FF4025FF202E
:103F1000113005512B46002280212046FFF7DAFFA1
:103F2000FF200121FD3025620155E01DFF30FA30F0
:103F30008169002904D04069217942682046904770
:103F4000002070BDFF30E130417F017700207047D5
:103F500010B5FF21FD31095C032906D185218900B7
:103F60000958C969002900D08847002010BD017494
:103F700000207047FF3010B5FF300230006AFEF7B6
:103F8000CFF8002010BD70B504464120C0002018B5
:103F9000054600F04AF82146FF31813101220846EA
:103FA00080304A67C2898A67007AC106C90E0AD082
:103FB00001290DD0022910D0C109C901204600F005
:103FC00011F8002070BD2946204600F098F8F8E767
:103FD0002946204600F07FF9F3E72946204600F005
:103FE00005F9EEE7FF3010B5FF300230006AFDF74B
:103FF0006BFE002010BDFF3010B5FF300230006AAC
:10400000FEF7AFF8002010BDFF30E130017F4177AF
:104010000421017700207047FF3010B5FF300230D7
:10402000006AFDF79BFE002010BD0A7802704A78F6
:104030004270CB788A781B02D21842804B790A7979
:104040001B02D21882808A79C97909025118C1806D
:10405000704702460020002904D0FF32FF320232AE
:10406000516170470220704710B5852292001258A6
:104070000224002A04D012689047002800D10024AE
:10408000204610BD70B50E468978194D044629703A
:10409000012904D931462046FFF7C6FC70BD2046F1
:1040A000FF30E130027F022A15D0032AF2D1002925
:1040B00017D0606888420AD0C1B22046FFF79CFC46
:1040C000297861602046FFF7CFFF0228E2D0204622
:1040D000FFF7DEFC70BD0029F9D003226160027792
:1040E000F0E70222027720466160FFF785FCEEE7E9
:1040F0000400002010B5FFF77EFF002010BDF8B5CA
:1041000000220092C61DFF364C781746FA3632461A
:104110000125203A230000F034F90A3C5641504171
:104120000906412B2841FFF729FD5DE004468888F8
:10413000002818D1C888002815D188781746460667
:10414000107F760E03280ED0BE7731462046FFF74B
:1041500011FF2046FFF79CFC002E02D0022038778A
:1041600042E03D7740E0204618E0FFF78BFF3BE060
:10417000CB88012B12D1127F022A02D0032A0DD143
:1041800004E0012201460831876013E00122011D8D
:1041900010E0127F022A04D0032A02D0FFF744FC69
:1041A00022E0C5607168002901D00321C160014689
:1041B00002220C31FFF75EFC16E004464888012815
:1041C00012D1756009E00446107F022801D003284F
:1041D000C9D14888012807D1776070698268204674
:1041E00090472046FFF754FC0098F8BDF8B5044608
:1041F0000D462878E61D4006FF3600270979800F16
:10420000FA36012809D06A7830462038002A38D09A
:10421000012A1ED0032A3DD106E070692946826832
:10422000204690470020F8BD007F022817D00328C1
:104230002CD16888002806D1002904D0802902D01A
:104240002046FFF7CFFE70692946826820469047D6
:1042500013E0007F022802D0032817D104E00029D0
:1042600018D080291AD115E06888002812D1480694
:1042700003D02046FFF72DFDE5E72046FFF708FCB9
:1042800008E0007F022807D003280BD029462046EB
:10429000FFF7CAFB3846F8BD4806FBD02046FFF7BB
:1042A000A1FEF7E7C80904D04806400D05191435EA
:1042B00004E04806400D0519FF3505352046FFF797
:1042C000F7FD002800D00120286002222946204660
:1042D000FFF7D0FBDEE770B50446FF30E130007F2A
:1042E0000D4603280FD1287901280CD8852080009D
:1042F0000059826820469047E888002806D1204669
:10430000FFF7C6FB02E02046FFF78EFB002070BDE2
:1043100070470000004870474C05002010B5024867
:10432000FDF7E8FD10BD00006C0700200FB410B5CC
:1043300004A9074B02AA039800F0ECF8044602A96E
:10434000002000F083FC204610BC08BC04B01847D5
:104350004D4C00082021020C01D010211046020A09
:1043600001D010460839020901D01046091F820801
:1043700001D01046891E420801D0881E7047081AD5
:10438000704730B47446641E2578641CAB4200D27A
:104390001D46635D5B00E31830BC184702E008C8A7
:1043A000121F08C1002AFAD170477047002001E0AF
:1043B00001C1121F002AFBD170470000F0B51FB4E5
:1043C00084B007980699020D014314D04A484B491E
:1043D0001018484305140F9801280E981CD0281A6D
:1043E000401C0024464E4749009401910290002849
:1043F00014DA474227E00F98012443A3012808D08C
:10440000002104980F9A84600360C260416009B083
:10441000F0BD0E98C143F4E74042E2E7074612E0E0
:10442000F80707D02246334601990098FCF738F97F
:10443000019100902246334610461946FCF730F9A8
:1044400004460E467F10002FEAD10298019B0028F7
:10445000009A0799069802DAFCF722F901E0FBF7C7
:10446000E3FE04460E460022284BFCF7A1F903D8D0
:104470000020C043014607E00022254B204631467C
:10448000FCF75CF8FCF774F9102409E0002C0ADB57
:104490000A220023FBF782FF059B30321A55641E67
:1044A00002460A43F2D11122641C059B121B1C19FF
:1044B0000F9B012B03D0012308430ED10AE00843D0
:1044C00004D011200E9000200F9084E70E98151A4A
:1044D0006D1E0BE00E98824202DD00236D1C03E08E
:1044E000824201DA00236D1E002BEED004980F9952
:1044F0008260C16030C08AE701FCFFFF104D000000
:10450000000024400000F03F300000000000F043B5
:104510000000E03FFFB597B00646002518E22528C9
:1045200077D100242746FD49049400E00443761C1B
:1045300032780120203A90400842F7D130782A287A
:104540000ED00222307801463039092916D8049954
:104550000A235943303940181443761C0490F1E77C
:10456000189802C804911890002904DA0120400329
:1045700004434842049002200443761C30782E28DD
:1045800014D1042004437078761C2A2809D1189885
:10459000761C80C8189009E00A214F43303FC719A4
:1045A000761C3078014630390929F5D930786C28E5
:1045B00010D006DC4C281AD068280ED06A2817D1F3
:1045C00004E0742813D07A2812D110E001204005AD
:1045D00004430CE00121090501E0032109050C4316
:1045E0007178814203D1012000052418761C761CC5
:1045F0003078119066280BD013DC58287DD009DC68
:1046000000287BD04528F6D04628F4D047281AD178
:10461000A5E118E0632835D0642870D0652812D150
:104620009DE170286CD008DC6728F1D069287BD028
:104630006E280DD06F2806D1BAE073282ED07528C9
:1046400071D0782859D01A9A199990476D1C7EE13B
:104650006002400F022809D003280DD004281898C2
:1046600001680DD00D60001D189070E11898EA17D0
:1046700001680D604A60F6E7189801680D80F2E75E
:104680000D70F0E718986A4601781172001D1890B5
:104690000020507202A80090012005E0189802C87E
:1046A000189000200091C04361070DD5002101E062
:1046B0000199491C0191B94212DA8142F8DB009A52
:1046C000515C0029F4D10BE0002101E00199491C63
:1046D00001918142FADB019A0099895C0029F5D1A8
:1046E000019904981A9B471A21463846199A00F0F6
:1046F00097FA0199401945180BE04FE02CE113E0BF
:104700004EE0009800990078491C00911A9A199976
:1047100090470198401E0190401CF2D12146384636
:104720001A9B199A10E137E00A20002100900191AC
:104730006002410F022907D0189A01CA1892C217C5
:104740009446032908D00AE01898C01DC108C90082
:1047500005C91891944607E000B2C217944604298F
:1047600002D140B2C1178C4600226146944506DA58
:104770000A460021404291418C462D2102E021054C
:1047800004D52B216A461173012103E0E10701D012
:104790002021F7E7029155E00A200AE0102008E006
:1047A000102000900021042004430191082703E019
:1047B00008200021019100906002410F022907D0DA
:1047C000189A01CA189200229446032908D008E0DA
:1047D0001898C01DC108C90005C91891944603E086
:1047E00080B2042900D1C0B200210291210729D54D
:1047F0001199702906D0009A1021019B4A401A4352
:1048000005D00EE040216A461173012108E061469F
:10481000014306D030216A46117311995173022168
:104820000291009A0821019B4A401A430AD161462D
:10483000014301D1610705D530216A461173012179
:104840007F1E02911199582904D035A10E910DA90E
:104850000D910DE037A1F9E76146019B009AFBF746
:104860009DFD0E9B8C469B5C0D9A521E0D92137003
:1048700061460143F0D10D9805A9081A2030019036
:10488000600703D501200004844300E0012701985C
:10489000874201DD381A00E000200199009041189C
:1048A000029809180498401A0490E00306D421469F
:1048B0001A9B199A049800F0B3F94519002706E0ED
:1048C00003A81A9AC05D199990476D1C7F1C029825
:1048D0008742F5DBE0030CD521461A9B199A049810
:1048E00000F09EF9451904E01A9A30201999904772
:1048F0006D1C0099481E00900029F5DC08E00D9819
:104900000D990078491C0D911A9A199990476D1CC0
:104910000199481E01900029F1DC63E1092801009A
:104920003031323334353637383961626364656625
:1049300000000000303132333435363738394142E7
:10494000434445460000000000F05AF94519761C22
:104950003078002800D0E2E528461BB0F0BD6007A3
:1049600000D406271898C01DC108C90048680A6805
:104970000831C30FDB071891190001D09CA108E092
:10498000210501D59BA104E0E10701D09AA100E037
:104990009AA1430011985B08109165280CD006DCA1
:1049A000452809D046281DD0472841D141E0662836
:1049B00018D067283CD13CE00021112F01DB1120E9
:1049C00000E0781C0191009008A911A8FFF7F6FCFF
:1049D000139905910021119A15927F1C1298019745
:1049E000009150E00120C00703900120019008A928
:1049F000009711A8FFF7E2FC139A14990592002280
:104A0000119B009212981593059A0192002901D0EA
:104A1000104602E0791C40180190381A01D501981F
:104A200004E04042401E0090781C0190C01B0290A0
:104A300043E0012F00DA01270021112F01DD1120B1
:104A400000E038460191009008A911A8FFF7B6FCD4
:104A500013990591119A00211298159200910197CE
:104A600021070CD40599B94201DB019900E00191BD
:104A7000012904DD159A491E515C302906D0B8423F
:104A800001DA011D05DA0121029115E00199491EA3
:104A9000EDE7002805DC0099411800910199091AF9
:104AA00003E0019A411C914200DD01910099401AF6
:104AB000401C02900120C0070390200706D40299F1
:104AC0000198814202DB0020C04302900020694629
:104AD000C87707AF012103980337C907884224D05C
:104AE000022011902B201290039800280CDA4042EB
:104AF00003902D20129007E00A210398FBF7F8FAA3
:104B000030317F1E039039701199481E1190002991
:104B1000F2DC03980028EFD1791E129808703078E3
:104B2000202108404530BF1E387006A8C01BC01D9C
:104B3000039010980078002800D0012001994118B6
:104B40000298C0170918039809180498401A401EC3
:104B50000490E00306D421461A9B199A049800F0A9
:104B60005FF8451910980078002803D01A9A19990F
:104B700090476D1CE00324D521461A9B199A04988E
:104B800000F04EF845191CE00098002807DB00995A
:104B90000598884203DD1598405C199901E0199940
:104BA00030201A9A904700986D1C401C0090029883
:104BB000401E0290002804D11A9A2E20199990477D
:104BC0006D1C0199481E01900029DDDC05E0387854
:104BD0001A9A7F1C199990476D1C0399481E0390DF
:104BE0000029F4DC21461A9B199A0498ACE60000CF
:104BF0002D0000002B00000020000000000000003D
:104C0000F8B5044600251E461746880404D405E07E
:104C100039462020B0476D1C641EF9D52846F8BDE2
:104C2000FFB50446002581B01E46C80301D53027D4
:104C300000E02027880404D505E038460399B047F2
:104C40006D1C641EF9D5284605B0F0BD0A68531CDA
:104C50000B601070704770B5002400F021F8002838
:104C60001CD1012000F090FB7D25ED002846FCF7CB
:104C700046FA00F015F8002810D1012400F084FB5A
:104C80002846FCF73CFA00F00BF8002806D101207A
:104C900000F07AFB2846FCF732FA0224204670BD69
:104CA00010B5052002210007FCF736FB10BD0000FF
:104CB00070B50D46044600210A48FCF7F1F90022C0
:104CC000234611460748FCF7E3F90A20FCF717FAD8
:104CD000284600F079F9044600210248FCF704FA5E
:104CE000204670BDB00B0020F8B50026374623499A
:104CF0003046FFF7DDFF012000F046FB012000F009
:104D00003AFB1F48FCF7FBF9002000F03DFB0020B8
:104D100000F031FB002419492046FFF7C9FF054682
:104D200081B2204600F0C0FAB54201DD2E4627468A
:104D3000E005C00F00F028FBA005C00F00F01BFB32
:104D40006005C00F00F029FB2005C00F00F02DFB0F
:104D50000C48641C8442DEDD3946002000F02EFB46
:104D6000002000F011FB002000F005FB002000F007
:104D700014FB002000F019FBF8BD00000002002425
:104D8000B80B0000FF0F000070B5012000F0EBFA37
:104D9000002000F0F9FA002000F0EDFA002000F009
:104DA00004FB002000F0F9FA0125144EAD02FEF7D5
:104DB0002FF802210020FDF7F1F9FDF7F7FF30464B
:104DC00000F002F90446A84214DA012000F0DCFAEF
:104DD0000A20FCF794F9002000F0D6FAC820FCF76E
:104DE0008EF9012000F0D0FA0A20FCF788F90020A3
:104DF00000F0CAFAAC42DADB70BD00008000001C93
:104E00008AB0FCF7CFFBFEF723FCFEF731F9FEF783
:104E1000E5F9FEF7DFF8FEF717F9FEF78DF9FEF773
:104E2000A9F95F4D03AEFFF716FF012802D0022853
:104E300008D014E02878002802D0002028700EE066
:104E40000120FBE7002000F08EFAFFF74DFF012064
:104E500000F089FA002028706420FCF750F92878C7
:104E6000002802D0FFF790FFDDE7002000900190BE
:104E7000029000F070FA6420FCF741F9002000F085
:104E800072FA6420FCF73BF9464C2068464A411E02
:104E9000914202D3FFF728FF2068823800D5002016
:104EA00000218A00B050413800D50020491C052956
:104EB000F7DB00246F46A00030583C49FFF7F8FEAE
:104EC0006100641C7852052CF5DB694603A800F0EC
:104ED000D7F83748407D012810D0012000F054FA5F
:104EE0006420FCF70CF9002000F04EFA6420FCF777
:104EF00006F9012000F048FA642024E06846C088E2
:104F0000FBF715FA2B49FBF752F9FBF717FA0022CA
:104F1000294BFBF789F90022284BFBF785F9FBF7B2
:104F200021FA0890012000F00DFA2148244B0422B8
:104F300008A92038FCF7A6FA00280AD0012000F0C2
:104F400023FAFF202D30FCF7DAF8002000F01CFADD
:104F500014E0012000F00FFA6420FCF7D0F80020E4
:104F600000F009FA6420FCF7CAF8012000F003FA07
:104F70006420FCF7C4F8002000F0FDF9002000F0E8
:104F80000CFA002000F011FA0E4C2046FCF7B7F89E
:104F9000002000F0D7F92046FCF7B1F843E7000005
:104FA0007001002000000808FF0F00000001002031
:104FB000E00B002000D0424500FEAF4000408F4093
:104FC000B80B00008A020000F0B50546002087B04B
:104FD000C04300902648FBF753FE0024254E0127CE
:104FE0003F03A00030580490A84201D1059701E08A
:104FF0002148059004A91E48FBF7F4FD641C032C0E
:10500000EFDB1E4801AD07C807C57D260024F6006A
:105010000C3D1748FBF79AFF002808D13146144889
:10502000FBF734FF0028124816D0FBF7BDFF0198AC
:1050300000280EDB029800280BDB0398002808DB11
:10504000029901984018039940180321FBF766F86C
:105050000090009807B0F0BDFBF70EFEA10068506D
:105060000348FBF7A1FF641C032CD2DBDFE7000041
:10507000FC0B00208001002001100000F453000808
:10508000F0B50D4604469FB080218148FBF773F8C8
:1050900028891490FBF74BF97E4F3946FBF787F8C8
:1050A000FBF74CF900227C4BFBF7BEF800227B4B50
:1050B000FBF7BAF8119110902069FBF72DF93946EA
:1050C000FBF775F8FBF73AF90022734BFBF7ACF8E6
:1050D0000022724BFBF7A8F80F910E90E88812900F
:1050E000FBF725F93946FBF762F8FBF727F90022B1
:1050F000694BFBF799F80022684BFBF795F80D9187
:105100000C90E068FBF708F93946FBF750F8FBF71D
:1051100015F90022604BFBF787F800225F4BFBF785
:1051200083F80B910A90A8881390FBF700F9394691
:10513000FBF73DF8FBF702F90022574BFBF774F839
:105140000022564BFBF770F809910890A068FBF716
:10515000E3F83946FBF72BF8FBF7F0F800224E4B4B
:10516000FBF762F800224D4BFBF75EF807910690C3
:105170006E883046FBF7DBF83946FBF718F8FBF78B
:10518000DDF80022444BFBF74FF80022434BFBF7BE
:105190004BF8059104906068FBF7BEF83946FBF7C1
:1051A00006F8FBF7CBF800223B4BFBF73DF800225B
:1051B0003A4BFBF739F8039102902D882846FBF70C
:1051C000B6F83946FAF7F3FFFBF7B8F80022324B8E
:1051D000FBF72AF80022314BFBF726F801910090EB
:1051E0002068FBF799F83946FAF7E1FFFBF7A6F8D4
:1051F0000022294BFBF718F80022284BFBF714F884
:105200008C4627490246CC68886827460023411C03
:105210005F41234BDF6099601C90119910981B919E
:105220001A901D9414980F9918900E981791169033
:105230000D990C9815910B9914900A981191109052
:10524000099908980E9013980C900F9106980A905F
:1052500007990B9104980599089009910399059174
:105260000298049006960098019903910290634673
:1052700000950C490648FFF759F80548FAF786FFEC
:1052800081B20348FBF720FC00201FB0F0BD0000F6
:10529000CC04002000D0424500FEAF4000408F40CB
:1052A000700100201C540008F3B585B080211D4812
:1052B000FAF761FF0698FBF73AF81B4D2946FAF713
:1052C00076FFFBF73BF8194E00223346FAF7ACFFA6
:1052D0000022174BFAF7A8FF04460F460598FBF784
:1052E0001BF82946FAF763FFFBF728F8002233463C
:1052F000FAF79AFF00220E4BFAF796FF024606983D
:105300000B460090039702940AA10648FFF70EF897
:105310000448FAF73BFF81B20248FBF7D5FB0020B7
:1053200007B0F0BDCC04002000D0424500FEAF40E5
:1053300000408F4025312E35662C25642C25312EDA
:1053400035660A00024610B501210520C903000791
:10535000FBF7E7FF10BD024610B50520202100072E
:10536000FBF7DFFF10BD024610B505204021000706
:10537000FBF7D7FF10BD024610B5012105204903F8
:105380000007FBF7CEFF10BD024610B50121052036
:1053900089030007FBF7C5FF10BD024610B50520C5
:1053A00004210007FBF7BDFF10BD024610B5052024
:1053B00008210007FBF7B5FF10BD000070B50E46D1
:1053C0000546FBF7DBFE040006D1054832462918E6
:1053D0000220FBF7A9FE0446FBF79CFE204670BDA9
:1053E0000000080800000000010203040102030499
:1053F00006070809FFFFFFFFFFFFFFFFFFFFFFFF9B
:105400000000000000000000010203040607080974
:10541000030406080C1018203000000025312E353A
:10542000662C25642C25312E35662C25312E3566CB
:105430002C25642C25312E35662C25312E35662CF5
:1054400025642C25312E35662C25312E35662C25EC
:10545000642C25312E35662C25312E35662C25649D
:105460002C25312E35662C256C6C640A000000005A
:10547000905400080000002090010000640800081B
:105480005C55000890010020D00E0000AC430008DD
:10549000C1130A0632023340011409024313020108
:1054A00025C03209041B01020B1305241610010547
:1054B000240110090104240202052406170107052E
:1054C000820308151009040133020A1D07050102B1
:1054D000432C070581070938442A40072A81071110
:1054E0002B0907440A2204440A16FF4413513814B6
:1054F00008BB371408513942081AF70C1A69041A04
:105500008704C11A39281A2D041A45041A21045196
:1055100033C201120813590A1B08550413F5091B5D
:1055200008850813C93A1B08F9041B053B34190404
:105530001A59041AA9101AD5041E04030904128B5F
:10554000311E4083044057C12B02034701132280C0
:0C5550001A1C2A2A24041480841E000067
:04000005080000C12E
:00000001FF
